:020000040800F2
:10000000000002202D3F00081B3400081D340008AA
:100010001F340008213400082334000800000000C9
:10002000000000000000000000000000253400086F
:100030007D3F000800000000273400082934000834
:100040007D3F00087D3F00087D3F000831340008F7
:100050007D3F00087D3F0008333400083534000838
:100060007D3F00087D3F00087D3F00087D3F000880
:100070007D3F00087D3F00087D3F00087D3F000870
:100080007D3F00087D3F00087D3F00087D3F000860
:100090007D3F00087D3F00087D3F000837340008A1
:1000A0007D3F00087D3F00087D3F00087D3F000840
:1000B000793400087B340008000000005134000847
:1000C0007D3F0008593400087D3F00086134000876
:1000D0006934000841340008493400087D3F0008B5
:1000E0007D3F00087D3F0008000000000000000088
:1000F0000000000000000000000000000000000000
:10010000000000007D3F000800000000713400087E
:100110007D3F0008000000007D3F00080000000057
:100120007D3F00087D3F00087D3F00087D3F0008BF
:100130007D3F00087D3F00087D3F00080000000073
:100140007D3F00087D3F00087D3F00087D3F00089F
:100150007D3F00087D3F00087D3F00087D3F00088F
:100160007D3F00087D3F00087D3F00080000000043
:10017000000000007D3F00080000000000000000BB
:100180007D3F00087D3F00087D3F00087D3F00085F
:040190007D3F0008A7
:1001A00010B5054C237833B9044B13B10448AFF3B1
:1001B00000800123237010BDDC010020000000003E
:1001C000C074000808B5034B1BB103490348AFF3E3
:1001D000008008BD00000000E0010020C07400089D
:1001E000034613F8012B002AFBD1181A0138704777
:1001F00001F0FF01102A2BDB10F0070F08D010F8D8
:10020000013B013A8B422DD010F0070F42B3F6D1DB
:10021000F0B441EA012141EA014122F007047FF0F4
:1002200000070023F0E80256083C85EA010586EA4B
:10023000010685FA47F5A3FA87F586FA47F6A5FA87
:1002400087F68EB9EED1F0BC01F0FF0102F0070293
:1002500032B110F8013B013A83EA010313B1F8D13E
:100260000020704701387047002D06BF354603381F
:10027000073815F0010F07D1013015F4807F02BF58
:10028000013015F4C03F0130F0BC0138704700BFA9
:1002900053B94AB9002908BF00281CBF4FF0FF31ED
:1002A0004FF0FF3000F07AB9ADF1080C6DE904CEE3
:1002B00000F006F8DDF804E0DDE9022304B0704741
:1002C0002DE9F0478C460D460446089E002B51D17F
:1002D0008A4217466DD9B2FA82FEBEF1000F0BD0EA
:1002E000CEF1200C01FA0EF520FA0CFC02FA0EF702
:1002F0004CEA050C00FA0EF44FEA174A250CBCFB39
:10030000FAF81FFA87F90AFB18CC45EA0C4508FBF6
:1003100009F3AB420AD9ED1908F1FF3280F02381CD
:10032000AB4240F22081A8F102083D44ED1AA4B28C
:10033000B5FBFAF00AFB105544EA054400FB09F945
:10034000A14509D9E41900F1FF3380F00A81A145E4
:1003500040F2078102383C44A4EB090440EA08401B
:100360000021002E61D024FA0EF400233460736063
:10037000BDE8F0878B4207D9002E54D0002186E8D3
:1003800021000846BDE8F087B3FA83F1002940F068
:100390008E80AB4202D3824200F2FA80841A65EB6F
:1003A00003050120AC46002E3FD086E81010BDE8C2
:1003B000F08712B90127B7FBF2F7B7FA87FEBEF153
:1003C000000F34D1EB1B3A0C1FFA87FC0121B3FB61
:1003D000F2F8250C02FB183345EA03450CFB08F341
:1003E000AB4207D9ED1908F1FF3002D2AB4200F25F
:1003F000D1808046ED1AA3B2B5FBF2F002FB105596
:1004000043EA05440CFB00FCA44507D9E41900F1BC
:10041000FF3302D2A44500F2B8801846A4EB0C04C6
:1004200040EA08409DE731463046BDE8F087CEF10E
:10043000200405FA0EF307FA0EF720FA04F83A0C36
:1004400025FA04F448EA0308B4FBF2F14FEA184530
:1004500002FB11441FFA87FC45EA044501FB0CF33B
:10046000AB4200FA0EF409D9ED1901F1FF3080F02A
:100470008A80AB4240F2878002393D44EB1A1FFA72
:1004800088F5B3FBF2F002FB103345EA034500FBAD
:100490000CF3AB4207D9ED1900F1FF386FD2AB4234
:1004A0006DD902383D44EB1A40EA01418FE7C1F1B2
:1004B000200722FA07F88B4005FA01F448EA030303
:1004C00020FA07FE4FEA134CFD404EEA040EB5FB3E
:1004D000FCF94FEA1E440CFB19551FFA83F844EA55
:1004E000054509FB08F4AC4202FA01F200FA01FAF0
:1004F00008D9ED1809F1FF3043D2AC4241D9A9F136
:1005000002091D442D1B1FFA8EFEB5FBFCF00CFBEF
:1005100010554EEA054400FB08F8A04507D9E41839
:1005200000F1FF3529D2A04527D902381C4440EA02
:100530000940A4EB0804A0FB02894C45C6464D4681
:1005400015D312D056B1BAEB0E0364EB050404FACE
:1005500007F7CB401F43CC40376074600021BDE8F3
:10056000F0871846F8E69046E0E6C245EAD2B8EBD6
:10057000020E69EB03050138E4E72846D7E7404659
:1005800091E78146BEE7014678E702383C4445E7FB
:10059000084608E7A8F102083D442BE7704700BF72
:1005A00008B503F00AF900F0E5FB00F091FCFCE768
:1005B00008B50022024B1A7000F0E4FA08BD00BF33
:1005C000AC04002008B50221002002F04DFD0420FB
:1005D00000F059FBC1B2042930D8DFE801F02E0346
:1005E000102F070001F034FD022127E0154B1B7886
:1005F000022B23D10021134A117019461EE0114B22
:100600001B78012B07D0032B0BD0042B0FD000221B
:100610000C4B1A7012E00A21052000F06BFB03213D
:10062000F5E70121052000F065FB0421EFE7032138
:10063000052000F05FFB0521E9E70121042000F01F
:1006400059FB08BDAC040020014B1870704700BF77
:10065000AC0400207047704738B5002404E0002245
:10066000084B5A550134A4B2072C09D8254604EB8F
:1006700084029300044AD358002BF0D09847EEE749
:1006800038BD00BF000000202875000838B50724D9
:1006900004E00122084B5A55013C24B2002C0ADB2D
:1006A000254604EB84039A00044B13445B68002B3B
:1006B000EFD09847EDE738BD00000020287500080E
:1006C0002DE9F04182B000273D4B1F70B84663E032
:1006D00001AB00220221104602F058F8019B012BC9
:1006E0005ED04FF001085BE0E97C41B1B8F1000F4A
:1006F00005D101AB2246002002F048F801E0EB688A
:100700000193B8F1000F01D0E97C91B92D4B5B68E2
:10071000019A2946204698470134E4B22A4B03EB5C
:10072000C6035B799C420AD2022FDDD0EB680193AD
:10073000ECE7019B2246002002F0FAF9E6E71435C7
:10074000214B53F8362003EBC6031B7903EB8303DD
:10075000990053189D4205D2194A1378013313703A
:100760000024DBE706EB86039A00184B13449B68D2
:1007700003B198470222164B9A550136072E09D825
:10078000114B03EBC6039B799F42F6D10E4B53F8F6
:100790003650D5E70137FFB2022F03D8022F97D08A
:1007A0000026EBE7B8F1000F02D102B0BDE8F081FE
:1007B000012300220221104602F0BAF9F5E700BF3A
:1007C000F8010020C8750008D075000828750008D9
:1007D0000000002010B507240BE004EB84039A000E
:1007E000054B1344DB6898470322044B1A55013C20
:1007F00024B2002CF1DA10BD28750008000000209A
:1008000010B5002405E098470222064B1A55013422
:10081000A4B204EB84039A00034B13441B69002B1E
:10082000F1D110BD0000002028750008F8B507467A
:100830000C464E68964210D315468E68B24212D3CB
:10084000637CFF2B23D0A37C1A4AD35C022B10D0ED
:100850000020F0B101263046F8BD0321164800F013
:1008600083FC3546ECE70321144800F07DFC354657
:10087000E6E700F0A9FD08B10020EAE7627C104B32
:1008800053F822302A46214638469847E1E70020AF
:10089000DFE70C4B5B682A462146384698470646F8
:1008A0000028D8D1E17C0029D5D02B463A4602F069
:1008B0003FF9D0E700000020E87400080875000840
:1008C00050760008C87500082DE9F84380460D46AB
:1008D00017464FF0010E00200646814604460AE006
:1008E000AB1B03EB830398003A4601444046FFF7F5
:1008F0009DFF86460120A4460B4A52F8341079B178
:1009000070B9094B03EBCC031B794B441FFA83F9F5
:1009100009F1FF339D42E3DD0134E4B24E46EAE7DC
:100920007046BDE8F88300BFD075000870B5064674
:100930000C4615460B7CFF2B04D08B7C1B4AD35CEA
:10094000022B07D06368FF2B11D9B3F5803F1BD36F
:1009500003230DE000F038FD0028F3D1227C144B76
:1009600053F822302A4621463046984770BD01236D
:10097000012B0BD0022B11D00E4B1B6821463046A9
:1009800098472860002070BD0223F1E7094B1B68DF
:100990002146304698472870002070BD054B1B68E3
:1009A0002146304698472880002070BD0000002076
:1009B00010760008C87500082DE9F84380460D46FA
:1009C0001746002006468146044686460AE0AB1BD1
:1009D00003EB830398003A4601444046FFF7A6FF25
:1009E00086460120A4460B4A52F8341079B170B9FA
:1009F000084B03EBCC031B794B441FFA83F909F135
:100A0000FF339D42E3DD0134E4B24E46EAE770462F
:100A1000BDE8F883D0750008014B1878704700BF17
:100A2000F80100204B68FF2B04D9B3F5803F0AD3AF
:100A3000032300E00123012B07D0022B08D00B6811
:100A400053F8200070470223F5E70B68185C7047E5
:100A50000B6833F8100070474B68FF2B04D9B3F5CF
:100A6000803F0AD3032300E00123012B07D0022B90
:100A700009D00B6843F8202003E00223F5E70B6858
:100A80001A54002070470B6823F81020F9E709205A
:100A9000704700000D4B03EB8002527813F82030B2
:100AA000012B08D01BB1022B0AD005207047084B40
:100AB000995400207047074B23F81210002070470C
:100AC000054B43F822100020704700BF84780008CF
:100AD000B0040020C0040020B804002030B4224A32
:100AE00002EB80035B7812F82020012A14D01AB19F
:100AF000022A25D005200DE01C4AD25C0A601C4861
:100B000003EB4303C2189478CC60C35C4B6053780A
:100B10008B60002030BC7047164A32F813200A6000
:100B2000154A5800C5186C001519AD88CD60145BC6
:100B30004C6003445800024453888B600020E9E76E
:100B40000E4A52F823200A600D4A5800C518AC001E
:100B50001519AD68CD6014594C60034498000244E7
:100B600053688B600020D5E784780008B00400202B
:100B70006C780008C004002054780008B8040020F5
:100B80005478000870B586B000248DF800408DF8C8
:100B900001408DF8024001E00134E4B2022C13D888
:100BA000304D01AB0022114615F8240001F0EEFD96
:100BB00005EB84056A88019B9A42EDD0012206ABC1
:100BC000234403F8182CE7E7002416E002A9204686
:100BD000FFF784FF059B00222946224810F82600D3
:100BE00001F0A6FF03E002A92046FFF777FF059971
:100BF0002046FFF74FFF0134E4B2082C18D81A4BF7
:100C000003EB84039D78002DEDD0174B03EB840399
:100C1000DE7806AB334413F8183C012BD6D005AB75
:100C2000002229460F4810F8260001F0AFFDDEE74C
:100C3000002401E00134E4B2022C10D806AB2344B6
:100C400013F8183C012BF5D1064800EB84035B88B0
:100C50000022114610F8240001F06AFFEAE706B00E
:100C600070BD00BF080000208478000800B585B082
:100C70006946FFF733FF20B14FF0FF3005B05DF854
:100C800004FB0098FAE708B5FFF7F0FF08BD08B5C8
:100C9000C0B2FFF7F8FF08BDF0B585B007460E46B5
:100CA0006946FFF71BFF0546019CB44203D3029C33
:100CB000A64200D3344615B1284605B0F0BD214602
:100CC0003846FFF7E7FE094B03EB870399780029C5
:100CD000F2D0064B03EB8707FE7823460022044838
:100CE00010F8260001F024FFE6E700BF8478000832
:100CF0000800002008B5FFF7CFFF08BD08B5C0B257
:100D0000FFF7F8FF08BD00000023164A1370032BFD
:100D100026D830B4144931F813206FF30D0221F8AE
:100D200013205A00D018840010482044847A1144BB
:100D3000487864F386106FF3C71048700C49D018D8
:100D4000C5004C190020A081A0604851606020615E
:100D5000012262751344DBB2032BDBD930BC704730
:100D6000704700BF2405002028050020A87800084F
:100D7000C404002010B5FFF7C7FF002401E00134D0
:100D8000E4B2032C08D804EB44029300084AD35879
:100D9000002BF4D09847F2E7064C204602F006FDFF
:100DA0002368054AA2FB03239B0C236010BD00BFF0
:100DB000A8780008C004002083DE1B430023032B17
:100DC00025D830B403E00133DBB2032B1DD8104823
:100DD00030F81320C2F30D01013161F30D0220F848
:100DE000132003EB4302D1000A4A0A44127D002A71
:100DF000E9D0084A0A44527D002AE4D0054801445B
:100E00004A6802F57A724A60DDE730BC7047704785
:100E100028050020C4040020F0B4114B1A78411AB0
:100E2000104B186891FBF0F10F4E53001344DD0096
:100E300074196368194461602369B3F1FF3F28BFE7
:100E40000133581C2061775907FB0313B3FBF0F300
:100E50007351A368994200D9A160F0BC704700BFEC
:100E600024050020C0040020C40400202DE9F04126
:100E7000DFF8588098F80010114C4B005818C20049
:100E80002244002757600F4EB568012010750B44AF
:100E90009A000D4B13445B68984798F80000430094
:100EA0001918CA0022441775B1680344DA001444C3
:100EB000637D0BB9BDE8F0812846FFF7ADFFF9E788
:100EC000C404002010E000E0A878000824050020F9
:100ED00070B50024204627E0002A48D1284A32F87D
:100EE00013106FF30D0122F813105A00D118C80027
:100EF000244901448D89224931F81310C1F30D01B1
:100F00001A449000204A02441289881A854205DA60
:100F100003EB4303DA001B4B13449881FFF7A6FF52
:100F2000012060BB042C2AD80134E4B2174A13789C
:100F3000013303F003031370114A02EB43025278AA
:100F4000D209C9D10E4901EB4301497811F0400F94
:100F5000E7D00B4931F81310C1F30D0103EB430542
:100F6000AE00094D35442D89A942DADBB4E7044AC5
:100F700002EB430251786FF3C7115170B5E770BDB2
:100F800028050020C4040020A878000824050020BB
:100F9000034B03EB400043786FF3861343707047B5
:100FA00028050020034B03EB4000437843F0400347
:100FB0004370704728050020014B1870704700BF30
:100FC00014000020F0B40023137001E00133DBB201
:100FD000C45C202CFAD0002427460DE007EBC7158F
:100FE0000D4485F8804000262E550137FFB2052FAD
:100FF0001AD00133DBB2344613F0800F14D1C55C34
:10100000202DEBD00D2D08D007EBC7160E4435551B
:101010000134E4B20133DBB2EEE707EBC713194446
:1010200081F8804000230B551770F0BC704700001A
:1010300070B506460024254600F0E0FA84420AD244
:101040000822074901EB0411304605F008FE28B1DB
:101050000134E4B2EFE700F0D1FA451C284670BD38
:1010600018000020F0B583B005460C461F4690F9E5
:101070000030222B0ED090F8803002AA02F8013DF9
:10108000002301F8043B00F0C5FD9DF80730D3B9FB
:10109000082005E0164690F88020802A02D9062014
:1010A00003B0F0BD023A411C304605F0C5FD0123F6
:1010B0002370666095F88030237295F88030023B8B
:1010C0003B700820ECE70020EAE7000070B5ADF5C2
:1010D000247D0E460DF1060202A9FFF773FF02A858
:1010E000FFF7A6FF044600F089FA844203D30420E8
:1010F0000DF5247D70BD194B03EB04131A7A9DF88E
:1011000006309A4201D00420F2E73460144D0024E6
:1011100001E00134E4B29DF806309C421AD2601C12
:1011200000EBC01002AB184404EB440399003144B7
:10113000043190F880302B440A4A93420CD80DF1C8
:1011400007032A46FFF78EFF9DF807301D44082845
:10115000DFD0CDE70320CBE70620C9E71800002049
:10116000300500203045002038B50C4B1B788B42F1
:1011700003D80B4B1B78012B00D038BD0446FFF77A
:101180002FF8084D024629460120FFF74FFB224663
:1011900005F114010120FFF749FBEEE714000020E0
:1011A00005030020DC77000808B503210148FFF79C
:1011B000DBFF08BD5C79000810B58EB0144601AAAB
:1011C00000F0DAFC214601A8FFF7CEFF0EB010BDFB
:1011D00070B582B00646002502AC04F8015D01211D
:1011E0002148FFF7C1FF01212048FFF7BDFF22463C
:1011F0001F492846FFF79AFB9DF807302BBB0121BA
:101200001C48FFF7B1FF01211B48FFF7ADFF01218B
:101210001A48FFF7A9FF012200210846FFF7CCFF7B
:1012200001211748FFF7A0FF012200211046FFF718
:10123000C3FF012E0ED001211248FFF795FF0121B7
:101240000948FFF791FF02B070BD01210E48FFF77A
:101250008BFFD8E701210D48FFF786FF012200210F
:101260000846FFF7A9FFE6E7A87B0008D878000842
:101270008C770008E87800082079000830790008A9
:10128000447900084C79000804790008487900087E
:10129000082809D008B500EB8003C0EBC300034B5E
:1012A0001844FFF761FF08BD704700BF7079000860
:1012B00010B50124084B1C700020084B1870084B17
:1012C0001C70FFF785FF21460320FFF7E1FF214651
:1012D0000448FFF749FF10BD14000020040300205C
:1012E00005030020D874000870B58EB000238DF877
:1012F0000030012501E00133DBB219461E4AD25C01
:101300000D2A0CD0262AF6D1002BF4D001390D205D
:10131000194A50549A1C8DF801200225EBE700244D
:1013200009E0164B019A03EB0213DB68D3B101A865
:1013300098470134E4B2AC4218D20EAB234413F800
:10134000383C01A90C481844FFF7C0FE06460328A4
:10135000E7D004210A48FFF707FF04213046FFF7D2
:1013600097FFE6E701A8FFF71FFFE2E70221054824
:10137000FFF7FAFE0EB070BD8402002018000020B6
:101380009C7B0008D874000800B585B000238DF858
:101390000F300B4B9B89ADF80C3001E0FFF7A4FF39
:1013A0000DF10F0301930223009303AB8022054943
:1013B000002001F033FC0028F0D105B05DF804FBFB
:1013C000D874000884020020014B1878704700BFD1
:1013D0000403002038B502211148FFF7C5FE0024A0
:1013E00018E0104D05EB041502212846FFF7BCFE5E
:1013F00002210D48FFF7B8FE02220021287AFFF7EC
:10140000DBFE02210948FFF7AFFE0A2002F000FED2
:101410000134E4B200F0F2F88442E2D338BD00BFF8
:10142000A87A000818000020C07A0008C47A0008D2
:1014300010B50489FFF72BFB80B2844207D2204607
:10144000FFF725FC02220021FFF7B6FE10BD0421A4
:101450000020FFF71DFF10BD30B583B000230193BE
:101460008568848AFFF7D8FA80B284420BD201AA39
:101470002146E8B2FFF7A0FA58B9022200210198EC
:10148000FFF79AFE03E004210020FFF701FF03B0FD
:1014900030BD04210720FFF7FBFEF8E708B54169DE
:1014A0000089FFF72BFC00B908BD04210120FFF7DC
:1014B000EFFEF9E770B58568848A066AFFF7ACFA33
:1014C00080B2844206D232462146E8B2FFF7FCF9E8
:1014D00028B970BD04210020FFF7DAFE70BD042199
:1014E0000120FFF7D5FEF4E708B58068052803D88A
:1014F000C0B2FFF761FD08BD04210520FFF7C8FE5B
:1015000008BD08B58068032804D904210520FFF729
:10151000BFFE08BD40B2FFF745FD08BD08B58068B5
:10152000032804D904210520FFF7B2FE08BD40B20C
:10153000FFF72EFD08BD704770B5A4B0044604AD9A
:1015400080220021284605F082FB94F83020023AE0
:1015500000268DF804606369ADF80630236A8DF8C3
:101560000530237A8DF80830D2B2E16A284605F0BA
:1015700063FB039501AB0ECB304600F099FD24B020
:1015800070BD000070B50D461646042808D8DFE887
:1015900000F00319141E230001211248FFF7E4FD97
:1015A000114C324621460120FFF740F92A4604F14A
:1015B00014010120FFF73AF970BD01210B48FFF734
:1015C000D3FDEDE701210A48FFF7CEFDE8E7012151
:1015D0000848FFF7C9FDE3E701210748FFF7C4FD0D
:1015E000DEE700BFC87A0008DC770008D87A000878
:1015F000E87A0008F87A00080C7B00080A20704797
:1016000008B58368827C53F8223001EB81014A00DF
:101610001344D3F80E3013B10078984708BD012069
:1016200008BD00000301164AD3581A7C8A420ED91D
:10163000DB6803EB01110B79012B04D0CBB1022B3A
:1016400003D000207047087B7047087B7047FF2954
:1016500001D0002070470A4B03EB0010C2680189DB
:10166000B2FBF1F301FB13232BB1012A05D00020BB
:10167000704701207047012070470120704700BF6C
:101680000803002008B58368827C53F8223001EB00
:1016900081014A001344D3F8123013B100789847FF
:1016A00008BD002008BD08B58368827C53F822304D
:1016B0009B680BB10078984708BD08B58368827CA9
:1016C00053F822305B680BB10078984708BD0023BF
:1016D00006E0C26802EB0312002111730133DBB292
:1016E000027C9342F5D37047C36803EB01110023DA
:1016F0000B737047F0B5002301E00133DBB2020148
:1017000011498A58117C8B421CD2D26819010A44B3
:101710001479012CF1D10C4F0601BD19D5F80CC07C
:10172000D2F808E0BCFBFEF40EFB14C4B4FA84F457
:1017300064091473BA59D26811440A7BA9790A431F
:10174000AA71DAE7F0BD00BF080300202DE9F041DF
:1017500086B00301264CE3585C7C8C4203D8002001
:1017600006B0BDE8F08116460D4604461846FFF760
:101770009AFFDFF87C80270108EB07030022DA607C
:1017800001229A7158F80700FFF7A1FF58F80730B7
:101790001A7E12F0020F18D1154F24013B599D7487
:1017A0003B59187E1A78996851F825105B680968CA
:1017B0000291019600920F4A0121084000F04FFA71
:1017C0003859FFF77AFF0120CAE78DF8104001224F
:1017D0008DF811209B7C8DF812308DF813608DF8F8
:1017E0001450052204A9002000F04AFAD4E700BFF3
:1017F00008030020407B00082DE9F047804607469B
:101800000301274AD35893F812A04FF000094C4621
:101810000EE03B01224AD058836853F82A3004EB8B
:10182000840672001344597BFFF75EFF0134E4B273
:101830003B011B4AD558AB6853F82A301A7B9442B7
:101840002BD2B9F1000F28D104EB84014A001344D4
:10185000597B4046FFF7E6FE0028E7D021462846A0
:10186000FFF7CEFE0028E1D03B0121460C4AD058BC
:10187000FFF708FF0028CCD13B01094AD3589B68E9
:1018800053F82A3004EB8406720013442246997DF3
:101890004046FFF75BFF8146C8E70020BDE8F087C0
:1018A00008030020F0B583B0104D04012F192B5907
:1018B000DA7C9A740026FE602B59187E1A78996893
:1018C00093F812E051F82E105B68096801910092BC
:1018D000074A0121084000F0C2F901237B71285911
:1018E000FFF7EBFE304603B0F0BD00BF0803002059
:1018F000707B000800220AE0064B03EB0213002174
:101900001971198199715971D9600132D2B2132AB2
:10191000F2D970470803002070B5002409E0174B86
:1019200003EB05150023AB712046FFF765FF01347B
:10193000E4B2132C21D82546104B03EB04131B797A
:10194000002BF4D00D4B03EB04135B79002BEED08E
:101950000A4E06EB0416F3680133F3602046FFF7E6
:10196000C9FEF1683289B1FBF2F302FB1313002BBD
:10197000D5D0B379002BDAD0D1E770BD08030020B1
:101980000022134608E0114A02EB03121279B2FA60
:1019900082F252090133DBB2132B01D8002AF2D0B4
:1019A000013BDBB26AB130B4084D1C012A19285141
:1019B000012010711181002202B1FF23184630BCB2
:1019C0007047012202B1FF23184670470803002028
:1019D000084B03EB00131B790BB90120704710B5BE
:1019E00004460301034AD058FFF771FE2046FFF773
:1019F00059FF10BD08030020264B03EB00131B7991
:101A0000002B43D0234B03EB00135B79002B3FD01B
:101A1000F0B585B003011F4AD358DB680A011344AF
:101A20001C79022C02D0012005B0F0BD0E460746FD
:101A300001211973174D04012B1999712B59187E27
:101A400093F800E0D3F80CC05B685CF802200192C8
:101A5000CDF800E0104A084000F001F92B591A7E39
:101A600012F0020F01D10020DEE78DF80C70002487
:101A70008DF80D409B7C8DF80E308DF80F600422A0
:101A800003A9204600F0FCF82046CDE7012070476E
:101A900001207047080300201C7B0008064B03EB65
:101AA00000131B792BB10001034B1B581976002042
:101AB00070470120704700BF080300208160C2808A
:101AC0000023438083800380704738B504460D4669
:101AD00001F03CFCA268A388D554238801332380FD
:101AE000A38801339BB2E188B3FBF1F201FB12330F
:101AF000A38001F017FC38BD38B5044601F026FC80
:101B0000A2686388D55C2288013A228001339BB2A7
:101B1000E188B3FBF1F201FB1233638001F002FCB8
:101B2000284638BD00887047C3880088181A80B2DC
:101B3000704700B5FFB001A805F0BCF87FB05DF8B4
:101B400004FB30B40446002005E0451C37330B5439
:101B5000E8B2013AD2B262B1531E9B0044FA03F3D9
:101B600003F00F03092BF0D8451C30330B54E8B2B7
:101B7000EFE730BC70470000F0B585B0B0F1000E63
:101B80000DDB704671B1012907D1144608222146A8
:101B9000FFF7D7FF40B20023235405B0F0BDCEF1CC
:101BA0000000EFE70025EFB27C1C64B2184981FB0E
:101BB0000031C317C3EBA103194603EB83035E0097
:101BC000831B303304A8054405F80C3C0846254621
:101BD0000029E8DCBEF1000F03DB631E5BB20020CE
:101BE00010E0023704AB1C442D2304F80C3C7CB2FB
:101BF000F3E704A9194411F90C1C1154013B5BB221
:101C0000013040B2002BF4DA00231354C5E700BFC3
:101C10006766666600230B601378FBB190F90030AD
:101C2000303BDBB2092B18D830B405E090F9003016
:101C3000303BDBB2092B0FD80C6804EB8404650041
:101C40000D6010F9013B2B44303B0B601378013BD6
:101C500013701378002BE9D130BC7047704708B976
:101C600001290CD00CB400B583B0084605AA019236
:101C70000499FFF75EFF03B05DF804EB02B0704714
:101C80007047000008B5054B1B780BB9002008BD54
:101C90000121034B1878FFF7AFFEF7E7810400201E
:101CA00080040020F8B52B4DAE683046FEF798FA58
:101CB00084B2294B1C802B79002B35D13378412BF2
:101CC00001D0042533E07378542B01D004252EE095
:101CD000A31CFF2B01DD042529E0204B0021196006
:101CE00059609960C3F80B1002230A4602E0A9B9B3
:101CF0000133DBB298B2844210D9F05C2B28F6D0C5
:101D00002328F4D00028F2D03D28F0D03F28EED090
:101D10000132D2B20029EBD11946E9E731440F482C
:101D200004F08AFF002502E0012B03D004251DB139
:101D30002846F8BD0025FAE7094F224631463846C5
:101D400004F07AFF074B1B88E3530234024B1C80DC
:101D5000EEE700BF48040020B40700205404002030
:101D6000B40600209C7B000870B50E460546264B45
:101D700000EB400082001A4492F90100234A1278D5
:101D800002EB4204A1000B4493F90130984201D0C8
:101D9000002414E01E4B1B7833B900211D4B18782A
:101DA000FFF72AFE002070BD174B0B445B681A4AF0
:101DB00012781A4930469847EFE70134E4B2022C12
:101DC000EBD8114B04EB44018A001A4492F901004C
:101DD00005EB45018A00134493F901309842ECD198
:101DE00004EB44029300084AD35C002BE5D004EBDB
:101DF0004406B200044B13445B68074A1278074953
:101E000004209847D9E700BFBC000020B80000209C
:101E10008104002080040020B6070020B4050020C3
:101E2000064B5A78064B1B789A4204D80022044B82
:101E30001A70012070470020704700BF480400203E
:101E400082040020064B5A78064B1B789A4204D92C
:101E50000133044A1370012070470020704700BF0F
:101E600048040020820400200120704700207047B1
:101E700070B5154C154E337803EB43039A00A31845
:101E8000134D144A12882946187AFEF7CFFC33788E
:101E900003EB43039A0014440F4A05F11401207A1E
:101EA000FEF7C4FC0D4B5A880AB9002070BD0C4CDB
:101EB00021460020FEF7BAFC0122A4F128010020EF
:101EC000FEF7B4FCF1E700BFBC000020B800002022
:101ED000DC770008B4070020B40600204804002086
:101EE0007877000870B582B0002426461CE004EB29
:101EF00044039A002C4B134493F901002B4B01939C
:101F0000092300932A4BFF222A4900F087FE50B391
:101F100001212046FFF728FF06460222264900201D
:101F2000FEF784FC0134E4B2022C39D804EB4403FC
:101F30009A001D4B134493F901001C4B0193062397
:101F400000931E4BFF221B4900F068FE0028CED0F4
:101F500000212046FFF708FF06460222164900200E
:101F6000FEF764FCDEE704EB4405AA000E4B1344C5
:101F700093F901000D4B019302230093104BFF22B4
:101F80000C4900F04BFE0028CCD002212046FFF780
:101F9000EBFE0646022208490020FEF747FCC1E797
:101FA000304602B070BD00BFBC000020B607002064
:101FB000A07B0008B405002050770008987B00083B
:101FC0009C7B00082DE9F0410025114B1D70114E3E
:101FD000DFF84C80104C114F3B7803EB43039A0021
:101FE000A0183346FF22414690F9010000F08EFE12
:101FF0003B7803EB43039A0014446368327841460C
:102000000320984703233B7035702846BDE8F081D4
:1020100081040020B6070020BC000020B80000208A
:10202000B40500200322044B1A700020034B1870E3
:10203000034B1870704700BFB800002081040020D7
:10204000B60700200020014B18707047B60700202B
:1020500038B51048104B8360104BC36003230374E2
:102060000223437400240470C4740D4B4360322176
:10207000FFF786FC0B4D28702146FFF70FFD2878EF
:10208000FFF7A6FC084A09492046FEF7CFFB204689
:1020900038BD00BF640400202C7C0008E000002054
:1020A000AC7B000880040020851C0008287700080D
:1020B00010B584B004AC04E90E00114B1B781BB1C1
:1020C0000923184604B010BD034601210C4A1170C3
:1020D0000C4C04AA12E9070084E807000A4A1370AE
:1020E00000220A4B1A70FFF7DDFD03460028E8D1F5
:1020F0000221074B1878FFF77FFC0346E1E700BF9A
:102100008104002048040020B80000208204002040
:1021100080040020884202D2091AC8437047401A3E
:1021200070470000014B1868704700BF94040020FE
:1021300000230BB100207047034A02EB0312002179
:1021400011720133DBB2F4E78404002000207047F1
:10215000002070470020704700207047024B03EBBF
:1021600000130020187270478404002010B5044644
:10217000FFF7D8FF2401024B1851002010BD00BF0B
:102180008404002010B50446084B03EB00131B7AAF
:10219000023BDBB2012B06D9044800EB04100123FB
:1021A0000372002010BDFFF7E1FFF5E78404002073
:1021B00038B50446164B03EB00131B7A012B0AD0EB
:1021C000FBB9134902018B5801338B5000200128C1
:1021D00019D0002038BD0E4A0301D518D1580D4B37
:1021E0001868FFF797FF6B68984206D303222A729C
:1021F000EB6823B120469847E9E70020E7E7002095
:10220000E5E70020E3E72046FFF7BCFFE1E700BF7A
:102210008404002094040020034B03EB00100223ED
:1022200003720020704700BF84040020024B03EBC0
:1022300000104160002070478404002010B504465F
:10224000FFF770FF2401024B1959FFF763FF10BD20
:1022500084040020094B03EB00131B7A012B01D0EF
:102260000020704770B5054E040133195D68FFF713
:1022700059FF3159FFF74EFF281A70BD8404002022
:10228000024B03EB0010007A704700BF840400206B
:1022900038B505460C4601290BD039B102290BD0BF
:1022A000074800EB05100472002038BDFFF756FF09
:1022B000F6E7FFF767FFF3E7FFF7AEFFF0E700BFD2
:1022C0008404002029B1044B03EB0010C1600020FE
:1022D00070470620704700BF8404002010B5064AEE
:1022E000136801331360002404B110BD2046FFF7CA
:1022F0005FFF0134E4B2F7E79404002008B5FFF76C
:1023000017FF08BD08B5FFF721FF08BD08B5FFF7A7
:102310001FFF08BD08B5FFF71DFF08BD08B5FFF793
:102320001BFF08BD08B51146FFF7CCFF08BD10B56F
:102330001446FFF78FFF2060002010BD10B5144633
:10234000FFF79EFF2070002010BD08B5D1B2FFF747
:102350009FFF08BD10B51446FFF770FF20600020F6
:1023600010BD08B51146FFF761FF08BD074B03EB31
:10237000C0039B78012B01D001207047034B03EB76
:10238000C000436813F81100704700BFD07C0008FC
:102390000A4B03EBC0039B78012B06D0074B03EBE2
:1023A000C000436833F811007047044B03EBC000D2
:1023B000436803EB41014878704700BFD07C0008B8
:1023C00010B588B0044600220023CDE90623CDE9EC
:1023D0000423CDE90223CDE9002306A900F048FD3E
:1023E000082204A9204600F043FD102202A920463D
:1023F00000F03EFD18226946204600F039FDDDE977
:102400000023B3F1FF3F08BFB2F1FF3F02D0042029
:1024100008B010BDDDE90223B3F1FF3F08BFB2F100
:10242000FF3F01D00320F3E7DDE90423B3F1FF3FD1
:1024300008BFB2F1FF3F01D00220E9E7DDE9062342
:10244000B3F1FF3F08BFB2F1FF3F01D00120DFE74A
:102450000020DDE700B583B00139032939D8DFE872
:1024600001F0020E1E2B002300934FF0AA324FF012
:10247000AA3300F017FD034658B1012309E00823F1
:1024800000934FF0AA324FF0AA3300F00BFD034641
:1024900018B9184603B05DF804FB0123F9E71023CF
:1024A00000934FF0AA324FF0AA3300F0FBFC034632
:1024B0000028EED00123ECE7202300934FF0AA324E
:1024C0004FF0AA3300F0EEFC03460028E1D00123D0
:1024D000DFE70023DDE700002DE9F04F83B00023A4
:1024E000019301251E462DE0204B03EBCA035B68D8
:1024F00003EB840823F8245039463046FFF748FFA1
:10250000A8F8020039463046FFF730FF15FA80F58B
:10251000ADB20134E4B2A7B24C45E5D3019A1346FB
:102520005B449D4220DC13465B449BB201931D46F5
:1025300006E00E4B03EBC6035B684FF6FF721A8092
:102540000136F6B2042E0BD8B246094B33F836B03A
:10255000BBF1000FEDD0054B13F836900024DAE7FD
:10256000002003B0BDE8F08F0220FAE7A47C000849
:10257000D07C000800207047002070470020704782
:1025800070B50646164B13F8104004212046FFF79D
:1025900061FFFF21204600F0E7FC054610B15DB168
:1025A000284670BD02212046FFF754FF05460D4B1B
:1025B00020221A601C72F2E7094B03EB460674787E
:1025C0002046FFF7FDFE0028EAD004212046FFF751
:1025D00041FFFF21204600F0C7FC0546E0E700BFB1
:1025E000CC7C0008B8070020F8B506460A4C14F861
:1025F00010502846FFF7E4FE074604EB46046478D3
:102600002046FFF7DDFE022F02D0022802D0AB25C4
:102610002846F8BD2546FBE7CC7C000810B50F4BDB
:102620001A7A0F4B03EB40035C78A24205D0204698
:10263000FFF7C6FE40B9002010BD094B13F810404B
:102640002046FFF7BDFEF5E704212046FFF702FF15
:10265000FF21204600F088FC10BD00BFB807002015
:10266000CC7C00080D4B1B78ABB110B41C460C4A57
:1026700032F83320824205D0013BDBB2002BF5D18A
:10268000012005E0064B03EBC40463680B600020E7
:102690005DF8044B70470120704700BF980400208C
:1026A000DC070020084B1B784F2B0AD8074A22F87A
:1026B000330002EBC30251600133034A1370002060
:1026C00070470120704700BF98040020DC070020FD
:1026D00010B504460C4B1B7873B118460B4A32F800
:1026E0003320A24202D0013BDBB2F5E7074B03EBFC
:1026F000C0004160002000E0012000B910BD20466C
:10270000FFF7D0FFFAE700BF98040020DC070020A5
:10271000044B9A6842F001029A60186019801868A8
:1027200080B2704700300240F0B583B006460D46D7
:1027300017461C4600220023CDE9002339462846CF
:10274000FFF790FFF8B1083C1F2C1AD922466946C2
:10275000304600F08DFB0198BDF800108D4201D08D
:10276000083CF1E7FFF7D4FF0199BDF80230984229
:1027700001D0012008E039602846FFF793FF0020D0
:1027800002E0012000E0002003B0F0BD10B582B0EF
:10279000002401940D4C04EBC000406800EB810460
:1027A0006488944204D8002000B1012002B010BD1A
:1027B0001C4630F8211011440548036801AA89B26B
:1027C000007AFFF7B1FF019B2360EDE7A47C0008CE
:1027D000B8070020AB282DD02DE9704382B01446F5
:1027E0000D46064602B9C9B129462046FFF790FFBB
:1027F0004FF00008000448EA0008AAB200230E497E
:102800000968009142EA08022343304600F04AFB7F
:10281000034628B1802002B0BDE870831046E7E788
:1028200005490A68083249688A4201D802490A60A3
:1028300098B2F0E7AB207047B80700202DE9F047C9
:1028400082B000230093454B1A7A454B03EB4003BB
:1028500093F801A0524509D0414B13F810309A4229
:1028600025D0AB24204602B0BDE8F0873C4B13F8DE
:10287000109003215046FFF7EDFD4846FFF7A0FDFD
:1028800048B104214846FFF7E5FDFF21484600F026
:102890006BFB002860D101214846FFF7DBFD2022B9
:1028A0002E4B1A600027042F3CD800262FE0D1467B
:1028B0009A46DEE7294B5B686A4621465046FFF799
:1028C00033FF17E00135ADB23146F8B2FFF74EFDE8
:1028D00080B2854219D2234B03EBC8035B6833F8FF
:1028E00026402C44A4B269462046FFF7BBFE0028D0
:1028F000E0D100200128E5D0009A21464846FFF7A4
:1029000069FF0028DED0C4B2ACE70136B6B2B846E3
:10291000144B13F837309E4201D20025D4E701371B
:10292000BFB2C0E702214846FFF794FD042150469C
:10293000FFF790FDFF21504600F016FB044608B15A
:1029400001248FE7054D85F8089001A9484600F05D
:10295000D5FA019B6B6085E7012483E7B807002067
:10296000CC7C0008A47C0008F8B505463D4C14F862
:1029700010703846FFF724FD064604EB45046478E2
:102980002046FFF71DFD042E67D8DFE806F003356B
:10299000234C0300344B1C72022860D0012806D05F
:1029A000032812D02846FFF7EBFD034618E0042E5B
:1029B00005D002212046FFF74DFD034610E02846D2
:1029C000FFF72CFE034658B9F3E72846FFF736FF1A
:1029D000034605E0244B1F72022803D038B90023B8
:1029E0001846F8BD2846FFF7CBFD0346F8E7284612
:1029F000FFF714FE0346F3E703280DD01A4B1F72AE
:102A00002846FFF70BFE03460028E9D1022138468D
:102A1000FFF720FD0346E3E7134B1C722846FFF740
:102A20000DFF0346DCE7104B1F72012804D002287B
:102A300007D068B10023D3E72846FFF7FFFE03461F
:102A4000CEE7094B1C722846FFF7E8FD0346C7E7AF
:102A50002846FFF7F3FE0346C2E70023C0E7002342
:102A6000BEE700BFCC7C0008B807002070B584B07A
:102A700006460021FFF7B8FDAB282DD00446174DC0
:102A8000287201A900F03AFA019B6B602B600025C7
:102A9000124B1A68202A12D9083A02A9204600F0DF
:102AA000E7F90546DDE90223B3F1FF3F08BFB2F1C4
:102AB000FF3F04D1094A1368083B1360E8E7074A5F
:102AC000536812689B1A1F2B02D9284604B070BDA8
:102AD0003046FFF7B3FEF8E70125F6E7B807002018
:102AE00008B50020FFF740FF0020FFF7BFFF0020E0
:102AF00008BD00002DE9F04107460E4690460B4CFC
:102B0000207AFFF767FE054641463046FFF7E0FDB5
:102B1000A38822889B1A9BB21F2B02D92846BDE8A6
:102B2000F0813846FFF78AFEF8E700BFB8070020BB
:102B300010B50A4C04EBC000446804EB81004088E7
:102B4000904201D8012010BD34F8211011441A46DA
:102B500089B20020FFF7CEFFC0B210BDA47C0008F0
:102B600008B5FFF7B9FC002008BD08B5FFF7B8FFAE
:102B7000002008BD08B5FFF7FDFC002008BD08B522
:102B8000FFF7FAFC002008BD08B5FFF7F7FC0020AE
:102B900008BD00231360012070470120704700002A
:102BA0000023012B17D830B40C4C04EBC3000022D7
:102BB00042710271590019448D00094A2A44117A60
:102BC0008171526844F833200133DBB2012BEBD919
:102BD000002030BC70470020704700BF8C0A0020E6
:102BE000247D0008002070470B4B53F8302003EB86
:102BF000C0004379D15443795A1C817992FBF1F397
:102C000001FB1323DBB243710279934201D0002010
:102C100070470820704700BF8C0A00202DE9F0475C
:102C200080469DF82090DDF824E08446364800EB8D
:102C3000C8004579047900268EF800608679301B3B
:102C4000284490FBF6F506FB1505B9F1000F57D0A7
:102C5000EDB24D4502D3002630462AE00020BDE803
:102C6000F087294F57F83C7017F804A09F57BA45D2
:102C700033D0254F07EBCC07BF793C44A41B94FB12
:102C8000F7FA07FB1A44E4B23544EDB29EF800703F
:102C9000BE1B8EF80060064604F1010A1A4F07EBCE
:102CA000CC07BF799AFBF7F407FB14A4E4B2013D0B
:102CB000EDB2CDB1C0B99EF800709742D1D2DFF825
:102CC00048A05AF83CA01AF804A001F807A09EF802
:102CD000007001378EF80070C3E70136F6B2B145D7
:102CE0008CBF00200120D7E7012802D00020BDE8DA
:102CF000F087054B03EBC80888F80440BDE8F0876F
:102D00004846BDE8F08700BF8C0A0020F0B5864633
:102D1000164D05EBC0056F792C7900261E70AE7933
:102D2000351B3D4495FBF6F706FB1757FFB20BE04A
:102D3000661C0E4D05EBCE05AD7996FBF5F405FB53
:102D40001464E4B2013FFFB25FB11D789542EFD247
:102D5000064E56F83E60365D4E551D7801351D70A5
:102D6000E6E7024B03EBC0000471F0BD8C0A0020C3
:102D700008B501460020FFF737FF08BD08B501463A
:102D80000120FFF731FF08BD081AC000704700009E
:102D90002DE9F843264C4FF000636360002626605F
:102DA000244B1F6839463046FFF7EEFFA060012430
:102DB00005E04FF480330FE001260134E4B2032C28
:102DC00033D81D4B1A684FF6FF739A42F1D01B4B54
:102DD00003EA8223DB0A1B029F42EDD2144D4FEA25
:102DE000440808EB04029300E818EF5004F1FF3E9A
:102DF0004FEA4E0303EB0E018A002A4451687344E4
:102E00009A002A4493680B4443600A4B53F82430D9
:102E100007EB030949463846FFF7B6FFA0444FEADF
:102E200088031D44A8604F46C7E73046BDE8F883D5
:102E3000CC0B00203C7D0008E075FF1F00FC3F002C
:102E40000020704700207047002070470020704726
:102E500008B501F0D5F908B9002008BD012008BD6A
:102E600008B501F0B5F908B9002008BD012008BD7A
:102E700010B400EB40039C00094B23449B68934231
:102E80000BD3074B23445B681A44D2E90023C1E902
:102E9000002300205DF8044B70470120FAE700BFD3
:102EA000CC0B0020F8B51F46069D00EB40039900AF
:102EB000114B0B449B68AB4202D201231846F8BD6C
:102EC00016460446FFF7CCFF03460028F6D104EB74
:102ED00044008200084B1344596832463B4629445B
:102EE000002001F0DFF918B9FFF7B2FF0346E5E76C
:102EF000FFF7AEFF0123E1E7CC0B002000EB400021
:102F00008200024B13449B680B607047CC0B00207F
:102F1000024B53F82000C0F3072070473C7D0008A7
:102F200000EB400082000C4B134458680B4B1A68AE
:102F30004FF6FF739A420AD0094B03EA822303F14A
:102F40000063834205D8C01AC0F3C7207047054B01
:102F5000F7E7C0F3C7207047CC0B0020E075FF1FD8
:102F600000FC3F0000000808F0B587B007460D469A
:102F700000260596FFF7D4FF04463846FFF7C8FF42
:102F8000019601230293FF2D0AD00444A5420ED2DC
:102F900001230493039500235BB1184607B0F0BDED
:102FA00004903846FFF7BCFF03903346F4E7012353
:102FB000F2E7FFF755FF03460028EED105A901A867
:102FC00001F01CFA18B9FFF743FF0346E5E7FFF7E6
:102FD0003FFF0123E1E708B5FFF7DAFE08BD08B5BA
:102FE000FFF730FF08BD08B5FFF72AFF08BD08B599
:102FF000FFF72AFF08BD08B5FFF728FF08BD08B591
:103000001146FFF77BFF002008BD000030B583B0FC
:103010000446154601AA0549FDF788FC019A294690
:103020002046FFF725FF03B030BD00BFB076000893
:1030300030B585B00446154603AA0649FDF776FC6F
:10304000039B00932A4600232046FFF72BFF05B081
:1030500030BD00BFB07600080020704700207047E8
:103060000020704700207047032915D008B50A4694
:10307000022908D0094B000119188988185801F055
:1030800010FB002008BD054B00011A189188185844
:1030900001F00CFB002008BD052070474C7D0008A6
:1030A00010B50C46044B00011A189188185801F00D
:1030B000F1FA2070002010BD4C7D000886B003019D
:1030C0003C4AD358B3F1904F1FD00301394AD2582C
:1030D000394B9A4227D00301364AD258374B9A428D
:1030E0002FD00301334AD258354B9A4237D00301CF
:1030F000304AD258334B9A423FD000012D4B1A58D8
:10310000314B9A4247D006B0704703F1784303F53C
:103110000433DA6C42F00102DA64DB6C03F0010381
:103120000093009BD1E703F1784303F50333DA6C96
:1031300042F00202DA64DB6C03F002030193019BAC
:10314000C9E703F1784303F50233DA6C42F0040275
:10315000DA64DB6C03F004030293029BC1E703F122
:10316000784303F50133DA6C42F00802DA64DB6C71
:1031700003F008030393039BB9E703F1784303F5D6
:103180000033DA6C42F01002DA64DB6C03F01003F7
:103190000493049BB1E703F1784303F5FA33DA6C47
:1031A00042F08002DA64DB6C03F080030593059B38
:1031B000A9E700BF4C7D0008000400480008004853
:1031C000000C004800100048001C004870B586B094
:1031D0000024264601E00134E4B2052C1BD8204629
:1031E000FFF76CFF0D4A2301D518A9880191A96842
:1031F0000291297B0491697B0391A97B059101A927
:10320000D05801F077F9E97B0329E4D02046FFF795
:103210002BFF0646DFE7304606B070BD4C7D000848
:1032200008B5FFF7D3FF08BD08B5FFF717FF08BDC6
:1032300008B5FFF711FF08BD08B5FFF711FF08BD7E
:1032400008B5FFF70FFF08BD08B51146FFF728FFC7
:1032500008BD08B5D1B2FFF707FF08BD10B50024BF
:1032600001E00134E4B2102C0CD8074B13F9240010
:1032700010F1050FF5DB03EB84039A78597800F021
:10328000E7FEEEE7002010BD1001002010B500247D
:1032900001E00134E4B2102C0DD8084B03EB840399
:1032A000DB78012BF5D1054B13F924000028F0DB66
:1032B00000F000FFEDE7002010BD00BF100100206E
:1032C00010B5002401E00134E4B2102C07D8054BFE
:1032D00013F924000028F6DB00F0F8FEF3E70020E5
:1032E00010BD00BF1001002008B5FFF7E9FF002066
:1032F00008BD08B5FFF7CAFF002008BDEFF3108333
:1033000053B9102803D9112808D000207047044B66
:1033100003EB8000C07870470020704701207047A1
:1033200010010020084B1B889BB2012B06D9064ACE
:1033300013889BB2013B9BB2138070470022024B63
:103340001A8062B6704700BF9A04002072B6034A22
:1033500013889BB201339BB2138070479A040020FC
:10336000112801D90520704738B50D4604460ED006
:10337000164B13F92000002816DB012911D000F0AC
:10338000A5FE124800EB8400C570002038BD01295D
:1033900003D0FFF7DBFF002038BDFFF7C3FF00209D
:1033A00038BD00F087FEECE7B0F1FF3F01D005200B
:1033B00038BD012907D000F03BFE044800EB840033
:1033C000C570002038BD00F03BFEF6E7100100207C
:1033D00008B5FFF743FF002008BD08B5FFF756FF0B
:1033E000002008BD08B5FFF76BFF002008BD08B539
:1033F000FFF77AFF002008BD08B5FFF77AFF00202D
:1034000008BD10B51446FFF779FF2070002010BDED
:1034100008B5D1B2FFF7A4FF08BD7047FEE7FEE78D
:10342000FEE7FEE77047704708B500F083FE08BD71
:1034300070477047704708B5202001F03BF908BD80
:1034400008B500F024F808BD08B500F025F808BD5F
:1034500008B500F026F808BD08B500F023F808BD4F
:1034600008B500F020F808BD08B500F01DF808BD4B
:1034700008B500F01AF808BD7047704708B500F0AD
:10348000B9FDFDF79BFCFEF729FF08BD704708B5A5
:10349000002000F0FBFB08BD08B5012000F0F6FBA2
:1034A00008BD70477047704770477047BFF34F8F34
:1034B0000549CA6802F4E062044B1343CB60BFF3D2
:1034C0004F8F00BFFDE700BF00ED00E00400FA05EC
:1034D000294B1B6913F4807F26D1284BD3F89430F5
:1034E00013F0804F2FD1254BD3F8943013F0005FA9
:1034F0002DD1224BD3F8943013F0805F2BD11F4B8A
:10350000D3F8943013F0806F29D11C4BD3F894304A
:1035100013F0006F27D1194BD3F89430002B26DB22
:103520000022174B1A7006E04FF48072124B9A611A
:103530000122134B1A70114AD2F8943043F400035D
:10354000C2F89430704707220D4B1A70F3E702223D
:103550000B4B1A70EFE70322094B1A70EBE70122BD
:10356000074B1A70E7E70422054B1A70E3E70622BF
:10357000034B1A70DFE700BF0070004000100240EC
:103580009C0400200020704700B5B3B0304B1A688F
:1035900021925A6822921A692592DA6824929A68CE
:1035A00023925A6926929A692792DA6928921A6AAE
:1035B00029925A6A2B929A6A2C92DA6A2D921A6B85
:1035C0002E925A6B2F929A6B3092DB6B319321A81B
:1035D00001F0B8F918B1012033B05DF804FB0F23F6
:1035E0001C931B4B1A6C1D925A6C1E929A6C1F9264
:1035F000DB6C209304211CA801F090FC08B1012091
:10360000EAE74FF4007001F08DF808B10120E3E71C
:103610004FF4003302930E4B1B6D1B9302A801F075
:1036200009FE01F023FD0B4BA3FB0030800900F0E5
:103630005BFD042000F06EFD074B1A6E42F00102A4
:103640001A661B6E03F001030193019B0020C3E780
:10365000AC7D0008D34D62100010024010B586B05A
:1036600000238DF804308DF805308DF806304022A7
:103670008DF8072004930593114B1B68F3B10122C9
:1036800001A90F4802F04FF820B9002424B12046C8
:1036900006B010BD0124F9E701228DF800208DF855
:1036A00001208DF8022000238DF80330694604487C
:1036B00002F0C1F80028EAD00124E8E70024E6E798
:1036C000FC0B002000B583B0124B9A6D42F0805283
:1036D0009A659A6D02F080520192019AD3F8902077
:1036E00042F40042C3F890200B48002380F82130B8
:1036F0000A4A026043607F228260F922C26003614D
:103700008361C36101F09AFFFFF7A8FF03B05DF882
:1037100004FB00BF00100240FC0B0020002800400A
:1037200008B5FFF7D5FEFFF72FFF034608B118468F
:1037300008BDFFF7C7FFFFF725FF0346F7E70020A7
:10374000704700207047000003281ED800B583B0E2
:10375000012805D0032816D0002003B05DF804FB33
:103760000B4B9A6D42F080529A659B6D03F080532B
:103770000193019B1F22074B9A61012000F0A8FFD3
:1037800000F0B6FFFEE7FFF791FE0020704700BF94
:10379000001002400070004008B50120FFF7D4FF80
:1037A00008BD08B50220FFF7CFFF08BD10B50446DD
:1037B00001F05CFC2060002010BD704708B5FFF7E9
:1037C000AFFF08BD08B5FFF7BAFF08BD08B5FFF7A2
:1037D000E3FF08BD08B5FFF7E4FF08BD08B5FFF734
:1037E000B0FF08BD08B5D0B2FFF7AEFF08BD00209E
:1037F000704700207047002070470020704700008D
:1038000008B5436803B108BD034BB3F84020034932
:1038100002F06AFAF7E700BF007E0008200C0020E3
:1038200010B5064B185692B2054B642404FB0030C9
:1038300002F05AFA00B1012010BD00BF007E00085E
:10384000200C002070B50D4B1C560D48642303FB63
:10385000040043685BB90A4D642303FB04F30126AB
:1038600080F85D60EC58636823F06003636092B297
:1038700002F06AF900B1092070BD00BF007E0008A7
:10388000200C0020F8B50F4616460C4B1B5603EBD8
:103890004303DD000A4B1D442846FEF743F9B042BE
:1038A0000AD3002404E02846FEF726F938550134EF
:1038B000B442F8D30020F8BD0120F8BD007E000816
:1038C000200C002008B5FFF79BFF08BD08B5FFF7E7
:1038D00097FF08BD00207047002070470020704708
:1038E000002070470020704708B50D4B1A560D4B4D
:1038F000642000FB023002F0DBFB07280BD8DFE876
:1039000000F0040C060606060808022008BD09207F
:1039100008BD012008BD012008BD002008BD00BF72
:10392000007E0008200C002038B51C4B1C561C4B98
:1039300053F824500DB9052038BD04EB84031A0157
:10394000184B13441B8F9D4201D9052038BD154BE0
:1039500013449B69B3F5E06F04D0B3F5706F08D0E2
:10396000012038BD0F4B13442A46D86B03F064F98D
:1039700008E004EB84031A010A4B13446A00D86B75
:1039800003F05AF904EB84031A01064B13442A4648
:10399000D96BE0B2FFF756FF38BD00BF007E0008CC
:1039A000200C0020007E00080C4B18560C4B53F8DE
:1039B00020200AB90520704710B500EB80031C01D8
:1039C000084B23445B68B3F5827F03D0C0B2FFF796
:1039D00059FF10BDC0B2FFF723FF10BD007E0008E5
:1039E000200C0020007E0008034B1A56034B43F8BE
:1039F00022100020704700BF007E0008200C00202D
:103A000008B5054B1B5603EB4303DA00034810448B
:103A1000FEF788F808BD00BF007E0008200C0020DB
:103A200008B5FFF757FF002008BD08B5FFF756FFA0
:103A3000002008BD08B5FFF74FFF002008BD08B5FE
:103A4000FFF74EFF002008BD08B5FFF74BFF002031
:103A500008BD10B51446FFF7D3FF2060002010BD4D
:103A600008B51146FFF7C0FF08BD08B51146FFF7BE
:103A70009BFF08BD08B51146FFF756FF08BD10B5FE
:103A80001446FFF731FF2070002010BDF8B50F4637
:103A9000164600EB4000C500094B1D442846FEF7C2
:103AA00041F8B0420AD3002404E02846FEF724F887
:103AB00038550134B442F8D30020F8BD0120F8BDD8
:103AC000200C002038B50B4B53F82020C0EB00131E
:103AD000DC002C25084B05FB0030436803FB02F398
:103AE000DB0092B20548204402F0ADFF00B1012096
:103AF00038BD00BF540C0020047E00085C0C002080
:103B000082B00368114A934204D0114A93420CD008
:103B100002B070470F4B1A6E42F480421A661B6E59
:103B200003F480430093009B09E00A4B9A6D42F432
:103B300000329A659B6D03F400330193019B026888
:103B4000136843F020031360E2E700BF0038014030
:103B5000004400400010024003680D4A934203D025
:103B60000C4A93420AD070470B4B1A6C42F48042C5
:103B70001A641A6C22F480421A647047064B9A6BDE
:103B800042F400329A639A6B22F400329A63EAE7B5
:103B900000380140004400400010024010B582B0DF
:103BA0001A4B93F9003003EB4303D8000830184B4D
:103BB00018440430FDF7B6FF68B9144B93F9003090
:103BC000C3EB0313DA00134B9A58136823F08003F6
:103BD000136002B010BD0D4C94F9003003EB4303A9
:103BE000D80008300A4B18440430FDF785FF02A9BD
:103BF00001F8010D94F90030C3EB0313D800012242
:103C0000044B184402F0D0FAE3E700BF9D04002003
:103C1000200C00205C0C002010B50446164B93F9D4
:103C200000202C23154903FB02135B6A43B1144A9D
:103C30001078984701221249204602F0F1FA10BD8F
:103C400002EB4202D3000F481844FDF76DFF30B974
:103C5000094B93F9003008210B4AD154EAE7064B8F
:103C600093F9003003EB4303DA00054B197805485C
:103C70001044FDF72AFFDDE79D040020047E0008C4
:103C80004C0D0020200C0020500C002008B5C0EB8B
:103C90000012D300034A10700348184402F09CFB42
:103CA00008BD00BF9D0400205C0C00207047000090
:103CB000F8B500242CE0184A2C2303FB04F3D51894
:103CC000D058164923011B1BDA008B1888506A68EC
:103CD0005A602A7A9A60AA7ADA606A7A1A610022AD
:103CE0009A610C215961DA6166003319D8000C4FD2
:103CF000AA8AA9693844FDF7E1FE2644F00008309D
:103D00003844AA8929690430FDF7D8FE0134E4B2A9
:103D1000012CD0D90020F8BD047E00085C0C0020E6
:103D2000200C002010B50024012C0AD8C4EB04128A
:103D3000D3000648184402F017FA20B90134E4B25F
:103D4000F2E7002010BD012010BD00BF5C0C002078
:103D500038B50024012C14D8C4EB0413DD000C4B3F
:103D60001D44284602F000FA68B9284602F00BFF0D
:103D700058B901220749284602F052FA0134E4B248
:103D8000E8E7002038BD012038BD012038BD00BF64
:103D90005C0C00204C0D002000207047024B43F8C3
:103DA00020100020704700BF540C002008B500EB25
:103DB0004000C30002481844FDF7B4FE08BD00BF30
:103DC000200C002008B5044B53F820200AB9052028
:103DD00008BDFFF777FE08BD540C002008B5034B63
:103DE00053F82020FFF752FE08BD00BF540C0020FE
:103DF000014B185C704700BF500C002008B5FFF75E
:103E000057FF002008BD08B5FFF7A2FF002008BD3E
:103E100008B5FFF787FF002008BD08B5FFF7BCFF16
:103E2000002008BD0020704710B5144640B2FFF7CF
:103E3000BDFF2060002010BD08B5114640B2FFF75D
:103E4000ADFF08BD08B5114640B2FFF7C7FF08BD7A
:103E500008B5114640B2FFF7B5FF08BD10B51446CE
:103E600040B2FFF7C5FF2070002010BD08B5FCF779
:103E7000F3FBFEF795FEFCF723FCFEF7B3FE08BD4F
:103E800008B50520FCF7FFFEC0B20138092841D86B
:103E9000DFE800F01E103340404040404005012163
:103EA0001D48FDF761F9FCF7F1FB00210520FCF747
:103EB00021FF08BD01211948FDF756F902221849D2
:103EC0000020FCF7B3FC00210520FCF713FF08BD20
:103ED00001211448FDF748F9FCF77CFC002105207E
:103EE000FCF708FF01220E490020FCF79FFCFCF7BD
:103EF00087FC0220FCF7A8FB08BD01210A48FDF75A
:103F000033F9032206490020FCF790FC002105202C
:103F1000FCF7F0FE08BD00BF5C7E00086C7E000868
:103F2000A07700087C7E0008907E0008DFF834D07F
:103F3000002103E00C4B5B58435004310B480C4B01
:103F400042189A42F6D30B4A02E0002342F8043B9F
:103F5000094B9A42F9D300F013F802F049FEFCF73E
:103F60001FFBFEE700000220307F00080000002059
:103F7000DC010020DC01002020100020FEE7000012
:103F80000F49D1F8883043F47003C1F888300D4BE5
:103F90001A6842F001021A60002098601A6822F044
:103FA000A85222F410221A604FF48052DA601A6884
:103FB00022F480221A6098614FF000638B60704792
:103FC00000ED00E00010024010B50446074B1868F1
:103FD000074BA3FB0030800900F086F80022214641
:103FE0004FF0FF3000F034F8002010BD54010020E5
:103FF000D34D6210024A136801331360704700BF4B
:1040000018100020014B1868704700BF18100020DE
:1040100038B50446FFF7F6FF0546B4F1FF3F00D080
:104020000134FFF7EFFF401B8442FAD838BD00008F
:10403000024A136823F002031360704710E000E0A7
:10404000024A136843F002031360704710E000E077
:1040500030B4164BDB68C3F30223C3F10704042C0E
:1040600028BF04241D1D062D17D9033B012505FA81
:1040700004F4013C2140994005FA03F3013B13404D
:10408000194300280BDB0901C9B200F1604000F5BB
:10409000614080F8001330BC70470023E6E700F071
:1040A0000F000901C9B2024B1954F4E700ED00E01A
:1040B00014ED00E0420900F01F00012303FA00F0B4
:1040C000014B43F82200704700E100E0430900F093
:1040D0001F00012202FA00F02033024A42F82300B6
:1040E000704700BF00E100E00138B0F1807F0AD2E4
:1040F000064B5860F021064A82F823100020986091
:1041000007221A6070470120704700BF10E000E0EE
:1041100000ED00E0042805D0054A136823F00403ED
:1041200013607047024A136843F00403136070473A
:1041300010E000E008B5FFF7A1F908BD08B590F858
:104140002530DBB2022B03D00423C363012008BD5A
:104150000268136823F00E0313600268136823F0EB
:1041600001031360016C436C03F01C03012202FA8B
:1041700003F34B6080F82520002380F82430836B04
:1041800013B19847002008BD002008BD10B4054CAD
:10419000616941F001016161026043605DF8044BB7
:1041A000704700BF00200240084A536943F480234F
:1041B000536172B6402351F8042B40F8042B013BA5
:1041C00013F0FF03F7D162B6704700BF0020024032
:1041D000094B5B69002B01DB00207047064B074A47
:1041E0009A6002F188329A605B69002B01DB002043
:1041F00070470120704700BF00200240230167453F
:10420000034A536943F0004353610020704700BFE5
:104210000020024038B50446FFF7F4FE05461F4B68
:104220001B6913F4803F09D0B4F1FF3FF7D0FFF7CB
:10423000E9FE401B8442F2D8032038BD174A1369B7
:1042400023F07F4323F47D0323F4705323F005030D
:10425000926902F00042134311D011494A681A438F
:104260004A6013F0404203D00C49886902438A61D6
:1042700033F040430DD0094A1361012038BD074B8C
:104280001B6913F0010F06D00122044B1A610020B4
:1042900038BD012038BD002038BD00BF00200240DD
:1042A000580100202DE9F041284C2478012C03D13D
:1042B00002242046BDE8F081984617460E46054682
:1042C0000122224B1A704CF25030FFF7A3FF044634
:1042D00008BB00221D4B5A601D4B1B6813F4806FF6
:1042E0001DD01B4A136823F4806313600222174B0E
:1042F0001A77C5B16B1E012B1CD900254CF250302A
:10430000FFF788FF044625B1114A536923EA0505E2
:10431000556100F043F800220C4B1A70C9E70022E7
:104320000A4B1A77E5E73A4643463046FFF72EFF39
:104330000125E3E739463046FFF736FF022D01D06D
:104340000025DBE74FF48025D8E700BF58010020A7
:104350000020024010F0010F04D0054A536943F0D9
:1043600004035361024A536943F480335361704735
:1043700000200240084B5A6922F4FF62C00000F49A
:10438000FF6002435A615A6942F002025A615A6957
:1043900042F480325A61704700200240154B1B7F67
:1043A000DBB2012B09D0032B07D0023BDBB2012B80
:1043B00011D900220F4B1A7770470F4A116841F448
:1043C00000611160116821F400611160116841F40D
:1043D00000711160E9E7084B1A6842F480521A60D4
:1043E0001A6822F480521A601A6842F480621A60D5
:1043F000DFE700BF5801002000200240F8B53B4B2A
:104400001B78012B02D102273846F8BD0E46044620
:104410000122364B1A704CF25030FFF7FBFE074674
:1044200000285ED10022314B5A60314B1B6813F4D7
:10443000007F33D02E4B1A6822F400721A601B687A
:1044400013F4806F26D02A4A136823F48063136024
:104450000322264B1A772368012B31D04FF0FF330C
:104460003360A568A368E26813449D4237D261684F
:104470002846FFF77FFF4CF25030FFF7CBFE1C4A77
:10448000536923F4FF6323F002035361074628BBFB
:104490000135E7E70122154B1A77DCE7144B1B685F
:1044A00013F4806F08D0124A136823F480631360FA
:1044B00002220E4B1A77CEE700220C4B1A77CAE77E
:1044C0006068FFF747FF4CF25030FFF7A3FE074646
:1044D000074A536923F00403536100E03560FFF796
:1044E0005DFF0022014B1A708EE700BF58010020CB
:1044F00000200240F0B583B000238CE0DE080836CF
:1045000050F8264003F0070E4FEA8E0E0F2707FAE9
:104510000EF724EA07040F6907FA0EF73C4340F848
:10452000264087E086682640CF6807FA0EF73E43AC
:104530008660466826EA05054E68C6F300169E406A
:1045400035434560C5682C408D6805FA0EF52C434F
:10455000C4604C6814F0805F5CD04A4C256E45F016
:1045600001052566246E04F001040194019C9D0858
:10457000AE1C454C54F8264003F00306B6000F2746
:10458000B74024EA0704B0F1904F70D03F4FB842D3
:104590006FD007F58067B8426DD007F58067B842E5
:1045A0006BD007F58067B8425FD0072707FA06F699
:1045B00034430235344E46F82540354C2568D44303
:1045C00005EA04064F6817F4803F01D042EA050669
:1045D0002F4D2E606D6804EA05064F6817F4003F02
:1045E00001D042EA05062A4D6E60AD6804EA050670
:1045F0004F6817F4801F01D042EA0506244DAE60D3
:10460000ED682C404E6816F4001F01D042EA050404
:104610001F4AD46001330A6832FA03F42FD001250F
:104620009D402A40F6D04C68022C3FF467AF122C14
:104630003FF464AF06684FEA430E032404FA0EF415
:10464000E44326404F6807F0030707FA0EF73E439E
:1046500006604E68771E012F7FF664AF112E3FF47F
:1046600061AF122E7FF46EAF5CE704279EE7002750
:104670009CE701279AE7022798E7032796E703B00C
:10468000F0BD00BF001002400000014000040048DF
:10469000000401400369194201D100207047012044
:1046A00070470AB981627047816170474369594018
:1046B0004161704708B5054B5B69034200D108BDF5
:1046C000024B5861FEF7E2FEF9E700BF000401402B
:1046D000064AD36800F01F0123EA010343EA5010A1
:1046E000D060936819439160704700BF007000402C
:1046F000064A136823F0070343F003031360044AD8
:10470000136943F00403136130BF70470070004029
:1047100000ED00E0024B186800F4C060704700BF75
:1047200000700040B0F5007F0FD0204B1B6803F4F1
:10473000C063B3F5806F37D01C4A136823F4C0639D
:1047400043F48063136000207047184B1B6803F428
:10475000C063B3F5007F23D0144A136823F4C06309
:1047600043F400731360124B1B6802F1467202F5AA
:104770005B3202F28322A2FB03239A0C322303FB57
:1047800002F300E0013B23B1084A526912F4806F42
:10479000F8D1064B5B6913F4806F03D00320704798
:1047A00000207047002070470020704700700040D4
:1047B0005401002030B583B00546204B9B6D13F0AB
:1047C000805F0BD0FFF7A6FFB0F5007F17D0802DDC
:1047D0001FD82DD0702D2DD000211BE0174CA36DBC
:1047E00043F08053A365A36D03F080530193019BB5
:1047F000FFF790FFA36D23F08053A365E4E7802DBE
:1048000003D9A02D03D9022104E0002102E00121F7
:1048100000E003210A4A136823F007030B431360E7
:10482000136803F00703994206D0012003B030BD9E
:104830000221EFE70121EDE70020F7E70010024039
:10484000002002403B4B9B6813F00C0F1AD0394BF1
:104850009B6803F00C030C2B0ED0364B9B6803F0C7
:104860000C03042B2FD0334B9B6803F00C03082B55
:104870002CD00020014618E02E4BDB6803F0030328
:10488000012BEAD12B4B1B6813F0080F14D1294BD5
:10489000D3F89430C3F30323274A52F82310254B4F
:1048A0009B6813F00C0F0CD00020224A936803F091
:1048B0000C030C2B0DD070471E4B1B68C3F3031366
:1048C000EAE70846F1E71D480021EEE71C48002111
:1048D000EBE71346D26802F00302DB68C3F302136E
:1048E0000133022A0AD0032A1AD0B1FBF3F3114A8A
:1048F000D068C0F3062000FB03F008E00F48B0FBCF
:10490000F3F30C4AD068C0F3062000FB03F0094B18
:10491000DB68C3F3416301335B00B0FBF3F0CAE72C
:104920000748B0FBF3F3034AD068C0F3062000FB4E
:1049300003F0ECE700100240BC7E00080024F40005
:1049400000127A00002800F0D78270B582B00446C9
:10495000036813F0100F3FD0974B9B6813F00C0FB8
:1049600040F09280944B1B6813F0020F03D08369D0
:10497000002B00F0C382206A8F4B1B6813F0080FD6
:1049800062D08D4B1B6803F0F003834263D2FFF7C4
:1049900011FF002840F0B482874B1A6842F00802E9
:1049A0001A601A6822F0F002216A0A431A605A68F3
:1049B00022F47F42E16942EA01225A60FFF742FF96
:1049C0007D4B9B68C3F303137C4AD35CD8407C4B7C
:1049D00018600020FFF7F8FA236813F0010F00F0C9
:1049E000A180754B9B6803F00C03082B00F09180AD
:1049F000714B9B6803F00C030C2B00F08380636801
:104A0000B3F5803F00F0B580B3F5A02F00F0B7807C
:104A1000694B1A6822F480321A601A6822F48022E4
:104A20001A606368002B00F0B780FFF7EBFA0546C9
:104A3000614B1B6813F4003F74D1FFF7E3FA401B8E
:104A40006428F5D9032062E25B4BD3F894301B094C
:104A500003F0F00399E7584B1A6842F008021A6015
:104A60001A6822F0F002216A0A431A605A6822F496
:104A70007F42E16942EA01225A60206AFFF79AFE0A
:104A800000289BD0012042E2836933B34A4A13686D
:104A900043F001031360FFF7B5FA0546464B1B6868
:104AA00013F0020F06D1FFF7ADFA401B0228F5D92B
:104AB00003202CE2404B1A6842F008021A601A6880
:104AC00022F0F002216A0A431A605A6822F47F42F7
:104AD000E16942EA01225A607EE7374A136823F00F
:104AE00001031360FFF78EFA0546334B1B6813F082
:104AF000020F3FF471AFFFF785FA401B0228F4D98B
:104B0000032004E22C4BDB6803F00303032B7FF448
:104B100076AF294B1B6813F4003F03D06368002B6A
:104B200000F0F081236813F0020F62D0224B9B68E3
:104B300003F00C03042B4BD01F4B9B6803F00C03BA
:104B40000C2B3FD0E368002B79D01B4A136843F449
:104B500080731360FFF756FA0546174B1B6813F472
:104B6000806F63D1FFF74EFA401B0228F5D903206E
:104B7000CDE1114A136843F48033136051E703F128
:104B80008043A3F53C331A6842F480221A601A6805
:104B900042F480321A6044E7FFF734FA0546064BC8
:104BA0001B6813F4003FBDD0FFF72CFA401B6428AC
:104BB000F5D90320ABE100BF00100240A47E00083D
:104BC00054010020B14BDB6803F00303022BB9D181
:104BD000AE4B1B6813F4806F03D0E368002B00F02A
:104BE0009381AA4A536823F0FE43216943EA016393
:104BF0005360236813F0080F4CD063699BB3A34A3A
:104C0000D2F8943043F00103C2F89430FFF7FAF978
:104C100005469E4BD3F8943013F0020F3AD1FFF7BC
:104C2000F1F9401B0228F4D9032070E1974A536838
:104C300023F0FE43216943EA01635360D9E7934AB5
:104C4000136823F480731360FFF7DCF905468F4B7C
:104C50001B6813F4806FCCD0FFF7D4F9401B0228F7
:104C6000F5D9032053E1894AD2F8943023F00103A7
:104C7000C2F89430FFF7C6F90546844BD3F8943058
:104C800013F0020F06D0FFF7BDF9401B0228F4D93C
:104C900003203CE1236813F0040F7AD07B4B9B6D1B
:104CA00013F0805F36D1794B9A6D42F080529A654D
:104CB0009B6D03F080530193019B0125744B1B688E
:104CC00013F4807F28D0A368012B39D0052B3FD067
:104CD0006E4BD3F8902022F00102C3F89020D3F855
:104CE000902022F00402C3F89020A368002B3DD04E
:104CF000FFF788F90646654BD3F8903013F0020FA2
:104D000046D1FFF77FF9801B41F288339842F2D9F0
:104D10000320FCE00025D1E75D4A136843F480736B
:104D20001360FFF76FF90646594B1B6813F4807F39
:104D3000C9D1FFF767F9801B0228F5D90320E6E007
:104D4000524AD2F8903043F00103C2F89030CCE7D9
:104D50004E4BD3F8902042F00402C3F89020D3F8D1
:104D6000902042F00102C3F89020BEE7FFF74AF915
:104D70000646464BD3F8903013F0020F08D0FFF7E9
:104D800041F9801B41F288339842F2D90320BEE0FA
:104D9000E5B9236813F0200F35D0636AE3B13B4ACD
:104DA000D2F8983043F00103C2F89830FFF72AF99F
:104DB0000546364BD3F8983013F0020F23D1FFF796
:104DC00021F9401B0228F4D90320A0E02F4A936D5B
:104DD00023F080539365DCE72C4AD2F8983023F017
:104DE0000103C2F89830FFF70DF90546274BD3F8B9
:104DF000983013F0020F06D0FFF704F9401B022889
:104E0000F4D9032083E0A36A002B7FD01F4A926865
:104E100002F00C020C2A7CD0022B23D01B4B1A6808
:104E200022F080721A601B6813F0006F04D1174AD9
:104E3000D36823F00303D360144AD36823F0887344
:104E400023F48033D360FFF7DDF804460F4B1B6873
:104E500013F0007F4ED0FFF7D5F8001B0228F5D9DC
:104E6000032054E0094A136823F080731360FFF7AE
:104E7000C9F80546054B1B6813F0007F0AD0FFF701
:104E8000C1F8401B0228F5D9032040E00010024081
:104E900000700040236B5A1E636B1B0243EA02132F
:104EA000E26A1343E26B5208013A43EA4253226C2E
:104EB0005208013A43EA4263A26B43EAC263164ACC
:104EC000D360136843F080731360D36843F080733A
:104ED000D360FFF797F804460F4B1B6813F0007F71
:104EE00006D1FFF78FF8001B0228F5D903200EE04A
:104EF00000200CE000200AE001207047012006E0BD
:104F0000012004E0012002E0012000E0002002B0C6
:104F100070BD0120FBE700BF00100240002800F038
:104F2000998070B504464D4B1B6803F007038B4214
:104F30000CD24A4A136823F007030B43136013682B
:104F400003F00703994201D0012070BD0D4623688C
:104F500013F0010F39D06368032B09D0022B26D040
:104F600063BB3F4A126812F0020F06D1012070BDE8
:104F70003B4A126812F0007F6ED039498A6822F0ED
:104F8000030213438B60FFF73DF80646344B9B68E2
:104F900003F00C036268B3EB820F16D0FFF732F810
:104FA000801B41F288339842F0D9032070BD2C4A0F
:104FB000126812F4003FE0D1012070BD284A126847
:104FC00012F4806FD9D1012070BD236813F0020F55
:104FD00006D0234A936823F0F003A1680B43936043
:104FE0001E4B1B6803F007039D420CD21B4A13683B
:104FF00023F007032B431360136803F007039D425C
:1050000001D0012070BD236813F0040F06D0144AAC
:10501000936823F4E063E1680B439360236813F023
:10502000080F07D00E4A936823F46053216943EABE
:10503000C1039360FFF706FC094B9B68C3F303139E
:10504000084AD35CD840084B18600020FEF7BCFF2C
:10505000002070BD01207047012070BD002002407B
:1050600000100240A47E000854010020014B186883
:10507000704700BF5401002008B5FFF7F7FF044B4D
:105080009B68C3F30223034AD35CD84008BD00BF2A
:1050900000100240B47E000808B5FFF7E7FF044B9C
:1050A0009B68C3F3C223034AD35CD84008BD00BF4A
:1050B00000100240B47E0008F8B55D4BDB6813F0C9
:1050C000030F19D05A4BDB6803F0030302689342C5
:1050D00004D00124002C48D02046F8BD002A42D03C
:1050E000534BDB68C3F3021301334268934201D090
:1050F0000124EFE70024EDE70368022B18D0032B0F
:105100001DD0012B0DD00124002CE3D1484EF268B4
:1051100022F073024568013D43EA05131343F3602F
:10512000D8E7434A126812F0020F14D00024EBE7CC
:105130003F4A126812F4806F0FD00024E4E73C4A23
:10514000126812F4003F0AD1394A126812F4802F13
:1051500007D00024D8E70124D6E70124D4E70024AF
:10516000D2E70124D0E70124B4E70F460546304AD0
:10517000136823F080631360FEF744FF06462C4B50
:105180001B6813F0006F05D0FEF73CFF801B022860
:10519000F5D90324002C9FD147BB25490B6923F087
:1051A000784323F4FE43A868EA68D20642EA002264
:1051B00013430B611E4A136843F080631360FEF7CC
:1051C00021FF06461A4B1B6813F0006F05D1FEF74E
:1051D00019FF801B0228F5D90324002C7FF47CAF33
:1051E000134A1369A9690B43136175E7012F0FD0A7
:1051F0000F48026922F0C06222F4FE42A9686B697E
:105200005B08013B5B0643EA012313430361D1E7DB
:105210000748026922F4C00222F4FE42A9682B6901
:105220005B08013B5B0543EA012313430361C1E7CC
:10523000001002402DE9F04182B00446036813F4E7
:10524000006F24D0C36CB3F5000F13D0B3F5400F3B
:1052500002D0B3B1012700E00027002F6FD1BD4A73
:10526000D2F8883023F44003E16C0B43C2F8883055
:105270003E460EE0B74AD36843F48033D36000273C
:10528000EBE700210430FFF717FF0746E5E70026AC
:105290003746236813F4003F6DD0AE4B9B6D13F07F
:1052A000805F4ED1AB4B9A6D42F080529A659B6DF8
:1052B00003F080530193019B4FF00108A64A136845
:1052C00043F480731360FEF79DFE0546A24B1B68F6
:1052D00013F4807F05D1FEF795FE401B0228F5D917
:1052E0000327002F42D19B4BD3F8903013F4407327
:1052F00015D0626E934212D0964AD2F8903023F4C1
:105300004073D2F8901041F48031C2F89010D2F876
:10531000901021F48031C2F89010C2F8903013F050
:10532000010F11D1002F40F013818A4AD2F890303A
:1053300023F44073616E0B43C2F8903017E03E4691
:10534000A7E74FF00008B9E7FEF75CFE0546814B82
:10535000D3F8903013F0020FE4D1FEF753FE401B58
:1053600041F288339842F2D90327DBE73E46B8F191
:10537000000F40F0F380236813F0010F08D0754A46
:10538000D2F8883023F00303216A0B43C2F8883037
:10539000236813F0020F08D06E4AD2F8883023F049
:1053A0000C03616A0B43C2F88830236813F0040FC2
:1053B00008D0684AD2F8883023F03003A16A0B4342
:1053C000C2F88830236813F0080F08D0614AD2F879
:1053D000883023F0C003E16A0B43C2F888302368A9
:1053E00013F0200F08D05B4AD2F8883023F44063D2
:1053F000216B0B43C2F88830236813F4007F08D078
:10540000544AD2F8883023F44023616C0B43C2F82D
:105410008830236813F4806F08D04E4AD2F8883061
:1054200023F44013A16C0B43C2F88830236813F0B7
:10543000400F08D0474AD2F8883023F44053616BBC
:105440000B43C2F88830236813F0800F08D0414A1C
:10545000D2F8883023F44043A16B0B43C2F8883064
:10546000236813F4807F08D03A4AD2F8883023F4B6
:105470004033E16B0B43C2F88830236813F4801F7C
:1054800008D0344AD2F89C3023F00303216C0B433C
:10549000C2F89C30236813F4005F0FD02D4AD2F875
:1054A000883023F04063216D0B43C2F88830236DB0
:1054B000B3F1006F58D0B3F1806F5AD0236813F462
:1054C000002F0FD0234AD2F8883023F04063616D5B
:1054D0000B43C2F88830636DB3F1006F51D0B3F164
:1054E000806F53D0236813F4802F0FD0194AD2F85D
:1054F000883023F04063A16D0B43C2F88830A36D60
:10550000B3F1006F4AD0B3F1806F4CD0236813F42D
:10551000804F0CD00F4AD2F8883023F04053E16D11
:105520000B43C2F88830E36DB3F1805F43D023684A
:1055300013F4803F08D0074AD2F8883023F00043A4
:10554000216E0B43C2F88830304602B0BDE8F081CE
:105550003E460CE700100240007000401A4A936D6E
:1055600023F08053936506E7D36843F48013D36038
:10557000A4E70121201DFFF79FFD00289ED00646CD
:105580009CE7D36843F48013D360ABE70121201D6F
:10559000FFF792FD0028A5D00646A3E7D36843F4A1
:1055A0008013D360B2E70121201DFFF785FD00289D
:1055B000ACD00646AAE70221201DFFF77DFD00289A
:1055C000B5D00646B3E700BF00100240704738B5BB
:1055D00004460268D36823F0A003D360FEF712FDEF
:1055E00005462368DB6813F0200F07D1FEF70AFD9C
:1055F000401BB0F57A7FF4D9032038BD002038BDB8
:1056000038B50368DA6812F0400F01D0002038BDC9
:1056100004464FF0FF32DA60FEF7F4FC05462368DB
:10562000DB6813F0400F07D1FEF7ECFC401BB0F530
:105630007A7FF4D9032038BD002038BD38B5002862
:1056400064D0044690F82130002B45D0022384F822
:1056500021302368CA225A62236853225A622046A4
:10566000FFF7CEFF054600283BD12268936823F45C
:10567000E00323F04003936021688A68636820692F
:105680000343A069034313438B602368E2681A61F4
:1056900022681369A16843EA014313612268D36851
:1056A00023F08003D36023689B6813F0200F20D081
:1056B0002268D36C23F00303D3642168CB6CE269C6
:1056C000606902431343CB642368FF225A620123BB
:1056D00084F82130284638BD80F82030FFF776FF67
:1056E000B4E72368FF225A62042384F8213001259D
:1056F000F0E72046FFF76BFF0028D9D02368FF2290
:105700005A62042384F821300125E3E70125E1E70B
:10571000002302E001330A38C0B20928FAD81B017D
:10572000DBB218437047F8B590F82030012B7FD0DA
:105730000E460446012380F82030022380F82130F1
:10574000002A48D103689B6813F0400F01D1002361
:10575000CB703078FFF7DCFF05047078FFF7D8FFD7
:1057600045EA0025B078FFF7D3FF2843F57840EAF3
:1057700005452368CA225A62236853225A6220468A
:10578000FFF73EFF0746002837D1236805F07F3535
:1057900025F0FE451D602268936823F48023936002
:1057A00021688B68F2683069024313438B6022687A
:1057B000D36823F08003D36023689B6813F0200F25
:1057C00026D02368FF225A62012384F82130002367
:1057D00084F820302DE003689B6813F0400F01D15E
:1057E0000023CB7035787078000240EA0540B57828
:1057F0002843F57840EA0545BBE72368FF225A6253
:10580000042384F82130002384F82030012710E09D
:105810002046FFF7DCFE0028D3D02368FF225A621F
:10582000042384F82130002384F82030012700E08D
:1058300002273846F8BD70B590F82030012B6DD0A6
:10584000012380F82030022380F821303AB94B78C8
:1058500013F0100F03D003F0EF030A334B700E4622
:105860000446002A34D1C878FFF752FF0504707847
:10587000FFF74EFF45EA0025B078FFF749FF2843C0
:10588000357840EA45352368CA225A622368532294
:105890005A622046FFF7B4FE064620BB236825F077
:1058A0007F4525F0C0055D602268D36823F0800342
:1058B000D36023689B6813F0200F1FD02368FF225A
:1058C0005A62012384F82130002384F8203026E036
:1058D00048788D78CB78000240EA034028430D7861
:1058E00040EA4535CFE72368FF225A62042384F853
:1058F0002130002384F82030012610E02046FFF7F5
:1059000066FE0028DAD02368FF225A62042384F856
:105910002130002384F82030012600E002263046A2
:1059200070BDF8B505460F4616461C4639E02CB149
:10593000FEF768FB069BC01A844232D82A68536877
:1059400023F0E00353606B68B3F5827F0BD0AB6A42
:10595000B3F5005F14D0012385F85D30002385F88E
:105960005C300320F8BDAB68B3F5004F02D0B3F54F
:10597000806FECD12A68136823F040031360E6E7D8
:105980002A68136823F4005313602A68136843F4E9
:1059900000531360DFE70123B34209D0B4F1FF3FA6
:1059A000C5D12B689B6837EA0303F4D00023F3E7E3
:1059B0000020F8BDF0B583B007460C4615461E46DC
:1059C00002E0B6F1FF3F10D13A6893682340AB4242
:1059D0003FD0B4F5C06FF4D1002DF2D1137BDBB210
:1059E0008DF807309DF80730EBE72EB1FEF70AFB84
:1059F000089BC01A8642E7D83A68536823F0E00350
:105A000053607B68B3F5827F0BD0BB6AB3F5005F50
:105A100014D0012387F85D30002387F85C30032021
:105A200018E0BB68B3F5004F02D0B3F5806FECD13E
:105A30003A68136823F040031360E6E73A68136896
:105A400023F4005313603A68136843F4005313605F
:105A5000DFE7002003B0F0BD70B582B004460D460C
:105A6000164600920B4600224FF4C051FFF7A2FFEA
:105A700038B1236E43F0200323660323184602B097
:105A800070BD00962B46002280212046FFF749FF7B
:105A900028B1236E43F0200323660323EEE700962C
:105AA0002B4600224FF4C0612046FFF783FF0346D8
:105AB0000028E3D0236E43F0200323660323DDE7B1
:105AC00070B582B004460D4616464368B3F5827F32
:105AD00010D000962B46002280212046FFF721FFA0
