:020000040800F2
:1000000000000220191200088D0D00088F0D000855
:10001000910D0008930D0008950D000800000000E8
:10002000000000000000000000000000970D000824
:100030006912000800000000990D00089B0D0008DF
:10004000691200086912000869120008A30D00086F
:100050006912000869120008A50D0008A70D000824
:100060006912000869120008691200086912000884
:100070006912000869120008691200086912000874
:100080006912000869120008691200086912000864
:10009000691200086912000869120008A90D000819
:1000A0006912000869120008691200086912000844
:1000B000E30D0008E50D000800000000C30D000876
:1000C00069120008CB0D000869120008D30D000862
:1000D000DB0D0008B30D0008BB0D00086912000815
:1000E000691200086912000800000000000000000A
:1000F0000000000000000000000000000000000000
:1001000000000000691200080000000069120008E9
:1001100069120008000000006912000800000000D9
:1001200069120008691200086912000869120008C3
:100130006912000869120008691200080000000036
:1001400069120008691200086912000869120008A3
:100150006912000869120008691200086912000893
:100160006912000869120008691200080000000006
:1001700000000000691200080000000000000000FC
:100180006912000869120008691200086912000863
:0401900069120008E8
:1001940010B5054C237833B9044B13B10448AFF3BD
:1001A40000800123237010BD3C00002000000000EB
:1001B400982A000808B5034B1BB103490348AFF361
:1001C400008008BD0000000040000020982A0008BC
:1001D40053B94AB9002908BF00281CBF4FF0FF31AA
:1001E4004FF0FF3000F07AB9ADF1080C6DE904CEA0
:1001F40000F006F8DDF804E0DDE9022304B07047FE
:100204002DE9F0478C460D460446089E002B51D13B
:100214008A4217466DD9B2FA82FEBEF1000F0BD0A6
:10022400CEF1200C01FA0EF520FA0CFC02FA0EF7BE
:100234004CEA050C00FA0EF44FEA174A250CBCFBF5
:10024400FAF81FFA87F90AFB18CC45EA0C4508FBB3
:1002540009F3AB420AD9ED1908F1FF3280F023818A
:10026400AB4240F22081A8F102083D44ED1AA4B249
:10027400B5FBFAF00AFB105544EA054400FB09F902
:10028400A14509D9E41900F1FF3380F00A81A145A1
:1002940040F2078102383C44A4EB090440EA0840D8
:1002A4000021002E61D024FA0EF400233460736020
:1002B400BDE8F0878B4207D9002E54D0002186E890
:1002C40021000846BDE8F087B3FA83F1002940F025
:1002D4008E80AB4202D3824200F2FA80841A65EB2C
:1002E40003050120AC46002E3FD086E81010BDE87F
:1002F400F08712B90127B7FBF2F7B7FA87FEBEF110
:10030400000F34D1EB1B3A0C1FFA87FC0121B3FB1D
:10031400F2F8250C02FB183345EA03450CFB08F3FD
:10032400AB4207D9ED1908F1FF3002D2AB4200F21B
:10033400D1808046ED1AA3B2B5FBF2F002FB105552
:1003440043EA05440CFB00FCA44507D9E41900F179
:10035400FF3302D2A44500F2B8801846A4EB0C0483
:1003640040EA08409DE731463046BDE8F087CEF1CB
:10037400200405FA0EF307FA0EF720FA04F83A0CF3
:1003840025FA04F448EA0308B4FBF2F14FEA1845ED
:1003940002FB11441FFA87FC45EA044501FB0CF3F8
:1003A400AB4200FA0EF409D9ED1901F1FF3080F0E7
:1003B4008A80AB4240F2878002393D44EB1A1FFA2F
:1003C40088F5B3FBF2F002FB103345EA034500FB6A
:1003D4000CF3AB4207D9ED1900F1FF386FD2AB42F1
:1003E4006DD902383D44EB1A40EA01418FE7C1F16F
:1003F400200722FA07F88B4005FA01F448EA0303C0
:1004040020FA07FE4FEA134CFD404EEA040EB5FBFA
:10041400FCF94FEA1E440CFB19551FFA83F844EA11
:10042400054509FB08F4AC4202FA01F200FA01FAAC
:1004340008D9ED1809F1FF3043D2AC4241D9A9F1F2
:1004440002091D442D1B1FFA8EFEB5FBFCF00CFBAC
:1004540010554EEA054400FB08F8A04507D9E418F6
:1004640000F1FF3529D2A04527D902381C4440EABF
:100474000940A4EB0804A0FB02894C45C6464D463E
:1004840015D312D056B1BAEB0E0364EB050404FA8B
:1004940007F7CB401F43CC40376074600021BDE8B0
:1004A400F0871846F8E69046E0E6C245EAD2B8EB93
:1004B400020E69EB03050138E4E72846D7E7404616
:1004C40091E78146BEE7014678E702383C4445E7B8
:1004D400084608E7A8F102083D442BE7704700BF2F
:1004E40008B500F062FD00F047F900F0D3FB00F01E
:1004F40049FD00F0F9FB00F00FFC00F02FFE00F0C6
:1005040067FE00F08FFA00F0E5F9FCE708B5002279
:10051400024B1A7000F0BCF808BD00BF7000002048
:1005240008B50221062000F011FB042000F0CFF8EA
:10053400C1B204292ED8DFE801F02C030E2D0500EA
:10054400022127E0154B1B78022B23D10021134AEB
:10055400117019461EE0114B1B78012B07D0032B99
:100564000BD0042B0FD000220C4B1A7012E00A217E
:10057400052000F0C7F80321F5E70121052000F06C
:10058400C1F80421EFE70321052000F0BBF80521A1
:10059400E9E70121042000F0B5F808BD700000204F
:1005A4000D4B03EB8002527813F82030012B08D056
:1005B4001BB1022B0AD005207047084B9954002028
:1005C4007047074B23F8121000207047054B43F87F
:1005D40022100020704700BFE02A000874000020A9
:1005E400840000207C00002030B4224A02EB800307
:1005F4005B7812F82020012A14D01AB1022A25D0DF
:1006040005200DE01C4AD25C0A601C4803EB43033E
:10061400C2189478CC60C35C4B6053788B60002024
:1006240030BC7047164A32F813200A60154A580045
:10063400C5186C001519AD88CD60145B4C6003447B
:100644005800024453888B600020E9E70E4A52F8B0
:1006540023200A600D4A5800C518AC001519AD686E
:10066400CD6014594C6003449800024453688B6075
:100674000020D5E7E02A000874000020C82A0008FA
:1006840084000020B02A00087C000020B02A000862
:1006940010B584B0002409E069462046FFF7A4FFA2
:1006A40003992046FFF77CFF0134E4B2082CF3D908
:1006B40004B010BD00B585B06946FFF795FF20B1C1
:1006C4004FF0FF3005B05DF804FB0098FAE708B579
:1006D400FFF7F0FF08BD70B584B006460D466946C5
:1006E400FFF782FF04460199A94203D302998D4280
:1006F40000D3294614B1204604B070BD3046FFF73C
:100704004FFFF8E708B5FFF7E6FF08BD0023164AD8
:100714001370012B26D830B4144931F813206FF329
:100724000D0221F813205A00D018840010482044E8
:10073400847A1144487864F386106FF3C7104870C4
:100744000C49D018C5004C190020A081A060485164
:1007540060602061012262751344DBB2012BDBD996
:1007640030BC7047704700BFB8000020BC000020B8
:10077400042B00088800002010B5FFF7C7FF0024F1
:1007840001E00134E4B2012C08D804EB44029300E4
:10079400084AD358002BF4D09847F2E7064C204679
:1007A40000F0FCFB2368054AA2FB03239B0C236097
:1007B40010BD00BF042B00088400002083DE1B430F
:1007C4000023012B25D830B403E00133DBB2012B25
:1007D4001DD8104830F81320C2F30D01013161F324
:1007E4000D0220F8132003EB4302D1000A4A0A4405
:1007F400127D002AE9D0084A0A44527D002AE4D036
:10080400054801444A6802F57A724A60DDE730BC63
:1008140070477047BC00002088000020F0B4114BE2
:100824001A78411A104B186891FBF0F10F4E5300DF
:100834001344DD0074196368194461602369B3F1DA
:10084400FF3F28BF0133581C2061775907FB03136E
:10085400B3FBF0F37351A368994200D9A160F0BCD3
:10086400704700BFB80000208400002088000020EA
:100874002DE9F041DFF8588098F80010114C4B0036
:100884005818C2002244002757600F4EB568012053
:1008940010750B449A000D4B13445B68984798F805
:1008A400000043001918CA0022441775B1680344B4
:1008B400DA001444637D0BB9BDE8F0812846FFF7E4
:1008C400ADFFF9E78800002010E000E0042B0008E9
:1008D400B800002070B50024204627E0002A48D143
:1008E400284A32F813106FF30D0122F813105A003E
:1008F400D118C800244901448D89224931F81310C4
:10090400C1F30D011A449000204A02441289881A46
:10091400854205DA5A001344DA001B4B13449881CC
:10092400FFF7A6FF012060BB022C2AD80134E4B2F1
:10093400174A1378013303F001031370114A02EBD1
:1009440043025278D209C9D10E4901EB43014978D7
:1009540011F0400FE7D00B4931F81350C5F30D05E2
:10096400590019448E000949314409898D42DADB62
:10097400B4E7044A02EB430251786FF3C711517094
:10098400B5E770BDBC00002088000020042B0008DF
:10099400B80000208160C2800023438083800380EC
:1009A400704738B504460D4600F0E4F9A268A38800
:1009B400D554238801332380A38801339BB2E18873
:1009C400B3FBF1F201FB1233A38000F0BFF938BD91
:1009D40038B5044600F0CEF9A2686388D55C228855
:1009E400013A228001339BB2E188B3FBF1F201FBAF
:1009F4001233638000F0AAF9284638BD0088704796
:100A0400C3880088181A80B27047884202D2091A33
:100A1400C8437047401A7047014B1868704700BFBD
:100A24006800002000230BB100207047034A02EB4A
:100A34000312002111720133DBB2F4E758000020E5
:100A440010B50446FFF7E8FF2401024B18510020BB
:100A540010BD00BF5800002010B50446084B03EB3E
:100A640000131B7A023BDBB2012B06D9044800EBCE
:100A7400041001230372002010BDFFF7E1FFF5E726
:100A84005800002038B50446164B03EB00131B7ABC
:100A9400012B0AD0FBB9134902018B5801338B5047
:100AA4000020012819D0002038BD0E4A0301D518B2
:100AB400D1580D4B1868FFF7A8FF6B68984206D30E
:100AC40003222A72EB6823B120469847E9E7002005
:100AD400E7E70020E5E70020E3E72046FFF7BCFF57
:100AE400E1E700BF580000206800002010B5064A66
:100AF400136801331360002404B110BD2046FFF7CE
:100B0400C1FF0134E4B2F7E7680000200B4B53F84F
:100B1400302003EBC0004379D15443795A1C8179C6
:100B240092FBF1F301FB1323DBB24371027993428D
:100B340001D0002070470820704700BFC00000208B
:100B440008B501460020FFF7E1FF08BD032915D0D1
:100B540008B50A46022908D0094B000119188988EA
:100B6400185800F027FD002008BD054B00011A1895
:100B74009188185800F023FD002008BD0520704717
:100B84001C2B000886B003013C4AD358B3F1904FA4
:100B94001FD00301394AD258394B9A4227D0030156
:100BA400364AD258374B9A422FD00301334AD2588F
:100BB400354B9A4237D00301304AD258334B9A42CC
:100BC4003FD000012D4B1A58314B9A4247D006B002
:100BD400704703F1784303F50433DA6C42F0010201
:100BE400DA64DB6C03F001030093009BD1E703F1AB
:100BF400784303F50333DA6C42F00202DA64DB6C07
:100C040003F002030193019BC9E703F1784303F561
:100C14000233DA6C42F00402DA64DB6C03F004039E
:100C24000293029BC1E703F1784303F50133DA6CC5
:100C340042F00802DA64DB6C03F008030393039BBD
:100C4400B9E703F1784303F50033DA6C42F010029C
:100C5400DA64DB6C03F010030493049BB1E703F143
:100C6400784303F5FA33DA6C42F08002DA64DB6C21
:100C740003F080030593059BA9E700BF1C2B000824
:100C84000004004800080048000C00480010004818
:100C9400001C004870B586B00024264601E00134EB
:100CA400E4B2082C1BD82046FFF76CFF0D4A230141
:100CB400D518A9880191A9680291297B0491697BBF
:100CC4000391A97B059101A9D05800F0A3FBE97B0E
:100CD4000329E4D02046FFF739FF0646DFE7304614
:100CE40006B070BD1C2B000810B5002401E00134CF
:100CF400E4B20D2C0CD8074B13F9240010F1050FA6
:100D0400F5DB03EB84039A78597800F0F5FAEEE703
:100D1400002010BD0000002010B5002401E00134C3
:100D2400E4B20D2C0DD8084B03EB8403DB78012BC4
:100D3400F5D1054B13F924000028F0DB00F00EFB7D
:100D4400EDE7002010BD00BF00000020084B1B8809
:100D54009BB2012B06D9064A13889BB2013B9BB276
:100D6400138070470022024B1A8062B6704700BF9E
:100D74006C00002072B6034A13889BB201339BB205
:100D8400138070476C0000207047FEE7FEE7FEE723
:100D9400FEE77047704708B500F012FB08BD7047C6
:100DA4007047704708B5202000F00EFC08BD08B558
:100DB40000F020F808BD08B500F01DF808BD08B51E
:100DC40000F01EF808BD08B500F01BF808BD08B512
:100DD40000F018F808BD08B500F015F808BD704714
:100DE400704708B500F07AFAFFF7EAFCFFF77EFED9
:100DF40008BD7047704708B5002000F09DF908BD94
:100E04007047704770477047294B1B6913F4807F04
:100E140026D1284BD3F8943013F0804F2FD1254B93
:100E2400D3F8943013F0005F2DD1224BD3F89430D3
:100E340013F0805F2BD11F4BD3F8943013F0806FE5
:100E440029D11C4BD3F8943013F0006F27D1194BE0
:100E5400D3F89430002B26DB0022174B1A7006E0DF
:100E64004FF48072124B9A610122134B1A70114A8B
:100E7400D2F8943043F40003C2F894307047072248
:100E84000D4B1A70F3E702220B4B1A70EFE70322A3
:100E9400094B1A70EBE70122074B1A70E7E70422AB
:100EA400054B1A70E3E70622034B1A70DFE700BF15
:100EB40000700040001002406E00002000207047C7
:100EC40000B599B02C4B1A6807925A6808921A69AF
:100ED4000B92DA680A929A6809925A690C929A6992
:100EE4000D92DA690E921A6A0F925A6A11929A6AEC
:100EF4001292DA6A13921A6B14925A6B15929A6BC5
:100F04001692DB6B179307A800F084FC18B101203C
:100F140019B05DF804FB0F230293174B1A6C03926C
:100F24005A6C04929A6C0592DB6C0693042102A815
:100F340000F056FF08B10120EAE74FF4007000F01A
:100F440059FB08B10120E3E701F020F80B4BA3FBA8
:100F54000030800900F00EFA042000F021FA084B5A
:100F64001A6E42F001021A661B6E03F0010301932C
:100F7400019B0020CCE700BFAC2B0008D34D6210CE
:100F84000010024008B5FFF73FFFFFF799FF034643
:100F940010B9FFF793FF0346184608BD10B5044681
:100FA40000F0F4FF2060002010BD704782B0036899
:100FB400114A934204D0114A93420CD002B07047B4
:100FC4000F4B1A6E42F480421A661B6E03F4804380
:100FD4000093009B09E00A4B9A6D42F400329A6533
:100FE4009B6D03F400330193019B0268136843F083
:100FF40020031360E2E700BF0038014000440040D2
:101004000010024003680D4A934203D00C4A9342F5
:101014000AD070470B4B1A6C42F480421A641A6C63
:1010240022F480421A647047064B9A6B42F40032F1
:101034009A639A6B22F400329A63EAE7003801401B
:10104400004400400010024010B582B01A4B93F9DE
:10105400003003EB4303D8000830184B1844043025
:10106400FFF7CCFC68B9144B93F90030C3EB0313BE
:10107400DA00134B9A58136823F08003136002B00C
:1010840010BD0D4C94F9003003EB4303D800083035
:101094000A4B18440430FFF79BFC02A901F8010D28
:1010A40094F90030C3EB0313D8000122044B184415
:1010B40001F00AF8E3E700BF6F000020C800002039
:1010C400E800002010B50446164B93F900202C23A9
:1010D400154903FB02135B6A43B1144A107898471D
:1010E40001221249204601F02BF810BD02EB420206
:1010F400D3000F481844FFF783FC30B9094B93F928
:10110400003008210B4AD154EAE7064B93F900302A
:1011140003EB4303DA00054B197805481044FFF745
:1011240040FCDDE76F000020002C00086001002077
:10113400C8000020E000002008B5C0EB0012D30076
:10114400034A10700348184401F0D6F808BD00BFE4
:101154006F000020E800002070470000F8B500246C
:101164000CB10020F8BD174A2C2303FB04F3D51857
:10117400D058154923011B1BDA008B1888506A6864
:101184005A602A7A9A60AA7ADA606A7A1A61002224
:101194009A610C215961DA6166003319D8000B4F4A
:1011A400AA8AA9693844FFF7F5FB2644F000083001
:1011B4003844AA8929690430FFF7ECFB0134E4B20E
:1011C400CEE700BF002C0008E8000020C800002083
:1011D40038B500240CB1002038BDC4EB0413DD0085
:1011E4000A4B1D44284600F050FF58B9284601F028
:1011F400F8FB48B901220649284600F0A1FF013452
:10120400E4B2E7E7012038BD012038BDE800002042
:1012140060010020DFF834D0002103E00C4B5B5860
:10122400435004310B480C4B42189A42F6D30B4AF4
:1012340002E0002342F8043B094B9A42F9D300F040
:1012440013F801F003FCFFF74BF9FEE7000002205E
:10125400842C0008000000203C0000203C000020FA
:10126400CC020020FEE700000F49D1F8883043F497
:101274007003C1F888300D4B1A6842F001021A60FD
:10128400002098601A6822F0A85222F410221A60F2
:101294004FF48052DA601A6822F480221A6098614E
:1012A4004FF000638B60704700ED00E000100240D7
:1012B40010B50446074B1868074BA3FB00308009A0
:1012C40000F058F8002221464FF0FF3000F014F8E7
:1012D400002010BD38000020D34D6210024A13686C
:1012E40001331360704700BFC8020020014B186827
:1012F400704700BFC802002030B4164BDB68C3F34C
:101304000223C3F10704042C28BF04241D1D062D49
:1013140017D9033B012505FA04F4013C2140994007
:1013240005FA03F3013B1340194300280BDB0901C1
:10133400C9B200F1604000F5614080F8001330BC90
:1013440070470023E6E700F00F000901C9B2024B21
:101354001954F4E700ED00E014ED00E0420900F058
:101364001F00012303FA00F0014B43F822007047E9
:1013740000E100E00138B0F1807F0AD2064B5860EA
:10138400F021064A82F823100020986007221A6090
:1013940070470120704700BF10E000E000ED00E05E
:1013A400042805D0054A136823F00403136070472A
:1013B400024A136843F004031360704710E000E02E
:1013C40008B5FFF70EFD08BD08B590F82530DBB26F
:1013D400022B03D00423C363012008BD02681368F1
:1013E40023F00E0313600268136823F001031360F3
:1013F400016C436C012202FA03F34B6080F8252050
:10140400002380F82430836B13B19847002008BD73
:10141400002008BDF0B583B000238CE0DE08083658
:1014240050F8264003F0070E4FEA8E0E0F2707FAF6
:101434000EF724EA07040F6907FA0EF73C4340F855
:10144400264087E086682640CF6807FA0EF73E43B9
:101454008660466826EA05054E68C6F300169E4077
:1014640035434560C5682C408D6805FA0EF52C435C
:10147400C4604C6814F0805F5CD04A4C256E45F023
:1014840001052566246E04F001040194019C9D0865
:10149400AE1C454C54F8264003F00306B6000F2753
:1014A400B74024EA0704B0F1904F70D03F4FB842E0
:1014B4006FD007F58067B8426DD007F58067B842F2
:1014C4006BD007F58067B8425FD0072707FA06F6A6
:1014D40034430235344E46F82540354C2568D44310
:1014E40005EA04064F6817F4803F01D042EA050676
:1014F4002F4D2E606D6804EA05064F6817F4003F0F
:1015040001D042EA05062A4D6E60AD6804EA05067C
:101514004F6817F4801F01D042EA0506244DAE60DF
:10152400ED682C404E6816F4001F01D042EA050411
:101534001F4AD46001330A6832FA03F42FD001251C
:101544009D402A40F6D04C68022C3FF467AF122C21
:101554003FF464AF06684FEA430E032404FA0EF422
:10156400E44326404F6807F0030707FA0EF73E43AB
:1015740006604E68771E012F7FF664AF112E3FF48C
:1015840061AF122E7FF46EAF5CE704279EE700275D
:101594009CE701279AE7022798E7032796E703B019
:1015A400F0BD00BF001002400000014000040048EC
:1015B400000401400AB98162704781617047436940
:1015C400594041617047000008B5054B5B6903420F
:1015D40000D108BD024B5861FFF70BFCF9E700BFCF
:1015E40000040140024B186800F4C060704700BF5B
:1015F40000700040B0F5007F0FD0204B1B6803F44F
:10160400C063B3F5806F37D01C4A136823F4C063FA
:1016140043F48063136000207047184B1B6803F485
:10162400C063B3F5007F23D0144A136823F4C06366
:1016340043F400731360124B1B6802F1467202F507
:101644005B3202F28322A2FB03239A0C322303FBB4
:1016540002F300E0013B23B1084A526912F4806F9F
:10166400F8D1064B5B6913F4806F03D003207047F5
:101674000020704700207047002070470070004031
:101684003800002030B583B00546204B9B6D13F025
:10169400805F0BD0FFF7A6FFB0F5007F17D0802D39
:1016A4001FD82DD0702D2DD000211BE0174CA36D19
:1016B40043F08053A365A36D03F080530193019B12
:1016C400FFF790FFA36D23F08053A365E4E7802D1B
:1016D40003D9A02D03D9022104E0002102E0012155
:1016E40000E003210A4A136823F007030B43136045
:1016F400136803F00703994206D0012003B030BDFC
:101704000221EFE70121EDE70020F7E70010024096
:10171400002002403B4B9B6813F00C0F1AD0394B4E
:101724009B6803F00C030C2B0ED0364B9B6803F024
:101734000C03042B2FD0334B9B6803F00C03082BB2
:101744002CD00020014618E02E4BDB6803F0030385
:10175400012BEAD12B4B1B6813F0080F14D1294B32
:10176400D3F89430C3F30323274A52F82310254BAC
:101774009B6813F00C0F0CD00020224A936803F0EE
:101784000C030C2B0DD070471E4B1B68C3F30313C3
:10179400EAE70846F1E71D480021EEE71C4800216E
:1017A400EBE71346D26802F00302DB68C3F30213CB
:1017B4000133022A0AD0032A1AD0B1FBF3F3114AE7
:1017C400D068C0F3062000FB03F008E00F48B0FB2C
:1017D400F3F30C4AD068C0F3062000FB03F0094B76
:1017E400DB68C3F3416301335B00B0FBF3F0CAE78A
:1017F4000748B0FBF3F3034AD068C0F3062000FBAC
:1018040003F0ECE700100240442C00080024F4002C
:1018140000127A0070B582B00446036813F0100F0A
:101824003FD0974B9B6813F00C0F40F09280944B81
:101834001B6813F0020F03D08369002B00F0C082F1
:10184400206A8F4B1B6813F0080F62D08C4B1B6807
:1018540003F0F003834263D2FFF714FF002840F043
:10186400B182874B1A6842F008021A601A6822F0A3
:10187400F002216A0A431A605A6822F47F42E1693D
:1018840042EA01225A60FFF745FF7D4B9B68C3F390
:1018940003137C4AD35CD8407B4B18600020FFF7CD
:1018A40007FD236813F0010F00F0A180744B9B68BF
:1018B40003F00C03082B00F09180714B9B6803F03C
:1018C4000C030C2B00F083806368B3F5803F00F0B9
:1018D400B580B3F5A02F00F0B780694B1A6822F4E5
:1018E40080321A601A6822F480221A606368002B1E
:1018F40000F0B780FFF7FAFC0546614B1B6813F450
:10190400003F74D1FFF7F2FC401B6428F5D9032093
:101914005FE25B4BD3F894301B0903F0F00399E7C3
:10192400574B1A6842F008021A601A6822F0F00253
:10193400216A0A431A605A6822F47F42E16942EA42
:1019440001225A60206AFFF79DFE00289BD00120E7
:101954003FE2836933B34A4A136843F001031360D7
:10196400FFF7C4FC0546464B1B6813F0020F06D173
:10197400FFF7BCFC401B0228F5D9032029E2404BA9
:101984001A6842F008021A601A6822F0F002216A0A
:101994000A431A605A6822F47F42E16942EA01224A
:1019A4005A607EE7364A136823F001031360FFF799
:1019B4009DFC0546324B1B6813F0020F3FF471AFD8
:1019C400FFF794FC401B0228F4D9032001E22C4BBE
:1019D400DB6803F00303032B7FF476AF284B1B680B
:1019E40013F4003F03D06368002B00F0ED812368FB
:1019F40013F0020F61D0224B9B6803F00C03042BFD
:101A04004AD01F4B9B6803F00C030C2B3ED0E368B9
:101A1400002B78D01A4A136843F480731360FFF7DD
:101A240065FC0546164B1B6813F4806F62D1FFF703
:101A34005DFC401B0228F5D90320CAE1104A136853
:101A440043F48033136051E703F18043A3F53C333F
:101A54001A6842F480221A601A6842F480321A60CA
:101A640044E7FFF743FC0546054B1B6813F4003FAE
:101A7400BDD0FFF73BFC401B6428F5D90320A8E147
:101A8400001002402C2C000838000020B14BDB6809
:101A940003F00303022BBAD1AE4B1B6813F4806F1F
:101AA40003D0E368002B00F09181AA4A536823F025
:101AB400FE43216943EA01635360236813F0080F6E
:101AC4004CD063699BB3A34AD2F8943043F001032A
:101AD400C2F89430FFF70AFC05469E4BD3F89430C5
:101AE40013F0020F3AD1FFF701FC401B0228F4D98E
:101AF40003206EE1974A536823F0FE43216943EAC9
:101B040001635360D9E7934A136823F48073136025
:101B1400FFF7ECFB05468F4B1B6813F4806FCCD0AA
:101B2400FFF7E4FB401B0228F5D9032051E1894A61
:101B3400D2F8943023F00103C2F89430FFF7D6FBB7
:101B44000546844BD3F8943013F0020F06D0FFF708
:101B5400CDFB401B0228F4D903203AE1236813F09B
:101B6400040F7AD07B4B9B6D13F0805F36D1794B99
:101B74009A6D42F080529A659B6D03F080530193F5
:101B8400019B0125744B1B6813F4807F28D0A36844
:101B9400012B39D0052B3FD06E4BD3F8902022F087
:101BA4000102C3F89020D3F8902022F00402C3F875
:101BB4009020A368002B3DD0FFF798FB0646654BA9
:101BC400D3F8903013F0020F46D1FFF78FFB801B40
:101BD40041F288339842F2D90320FAE00025D1E794
:101BE4005D4A136843F480731360FFF77FFB064676
:101BF400594B1B6813F4807FC9D1FFF777FB801B17
:101C04000228F5D90320E4E0524AD2F8903043F098
:101C14000103C2F89030CCE74E4BD3F8902042F049
:101C24000402C3F89020D3F8902042F00102C3F8D4
:101C34009020BEE7FFF75AFB0646464BD3F8903098
:101C440013F0020F08D0FFF751FB801B41F28833D9
:101C54009842F2D90320BCE0E5B9236813F0200FC1
:101C640035D0636AE3B13B4AD2F8983043F00103BC
:101C7400C2F89830FFF73AFB0546364BD3F8983054
:101C840013F0020F23D1FFF731FB401B0228F4D9D4
:101C940003209EE02F4A936D23F080539365DCE785
:101CA4002C4AD2F8983023F00103C2F89830FFF799
:101CB4001DFB0546274BD3F8983013F0020F06D0CE
:101CC400FFF714FB401B0228F4D9032081E0A36A28
:101CD400002B7DD01F4A926802F00C020C2A7AD0A5
:101CE400022B23D01B4B1A6822F080721A601B68E7
:101CF40013F0006F04D1174AD36823F00303D360B1
:101D0400144AD36823F0887323F48033D360FFF735
:101D1400EDFA04460F4B1B6813F0007F4ED0FFF71B
:101D2400E5FA001B0228F5D9032052E0094A13689A
:101D340023F080731360FFF7D9FA0546054B1B683F
:101D440013F0007F0AD0FFF7D1FA401B0228F5D91F
:101D540003203EE00010024000700040236B5A1E36
:101D6400636B1B0243EA0213E26A1343E26B5208F9
:101D7400013A43EA4253226C5208013A43EA42636D
:101D8400A26B43EAC263154AD360136843F08073BD
:101D94001360D36843F08073D360FFF7A7FA044657
:101DA4000E4B1B6813F0007F06D1FFF79FFA001B50
:101DB4000228F5D903200CE000200AE0002008E006
:101DC400012006E0012004E0012002E0012000E0FF
:101DD400002002B070BD0120FBE700BF00100240EC
:101DE400664B1B6803F007038B420CD2634A1368EB
:101DF40023F007030B431360136803F007039942AE
:101E040001D00120704770B50D460446036813F0F5
:101E1400010F6CD04368032B0AD0022B2DD0002B6A
:101E240032D1574A126812F0020F07D1012070BD57
:101E3400534A126812F0007F00F09E8050498A686D
:101E440022F0030213438B60FFF750FA06466368DF
:101E5400032B20D0022B2DD0002B3AD0484B9B686B
:101E640003F00C03042B42D0FFF740FA801B41F22D
:101E740088339842F2D9032070BD414A126812F4A3
:101E8400003FDBD1012070BD3D4A126812F4806F1F
:101E9400D4D1012070BD3A4B9B6803F00C030C2B8A
:101EA40025D0FFF723FA801B41F288339842F2D9F8
:101EB400032070BD324B9B6803F00C03082B16D033
:101EC400FFF714FA801B41F288339842F2D90320B9
:101ED40070BD2B4B9B6813F00C0F08D0FFF706FA6C
:101EE400801B41F288339842F3D9032070BD2368E4
:101EF40013F0020F06D0224A936823F0F003A1687E
:101F04000B4393601D4B1B6803F007039D420CD2E7
:101F14001A4A136823F007032B431360136803F072
:101F240007039D4201D0012070BD236813F0040F04
:101F340006D0134A936823F4E063E1680B4393608B
:101F4400236813F0080F07D00D4A936823F46053F5
:101F5400216943EAC1039360FFF7DCFB084B9B68EC
:101F6400C3F30313074AD35CD840074B186000201F
:101F7400FFF79EF9002070BD012070BD00200240D3
:101F8400001002402C2C000838000020014B186877
:101F9400704700BF3800002008B5FFF7F7FF044B77
:101FA4009B68C3F30223034AD35CD84008BD00BF37
:101FB400001002403C2C000808B5FFF7E7FF044B73
:101FC4009B68C3F3C223034AD35CD84008BD00BF57
:101FD400001002403C2C00080268136823F490733C
:101FE40013600268936823F001039360202380F850
:101FF400723000230366704790F87130DBB2212BF6
:1020040000D07047B0F852309BB26BB10268C36C19
:10201400591CC1641B781385B0F852309BB2013B44
:102024009BB2A0F85230ECE70268136823F08003F7
:1020340013600268136843F040031360704790F81C
:102044007130DBB2212B00D07047B0F852309BB214
:1020540083B1C36C02681B88C3F308031385C36C84
:102064000233C364B0F852309BB2013B9BB2A0F878
:102074005230E9E70268136823F0800313600268B2
:10208400136843F0400313607047D8B138B5044671
:10209400242380F871300268136823F0010313606D
:1020A400036800251D6003685D6003689D60FEF79A
:1020B400A9FF656784F8715084F8725084F87050F1
:1020C400284638BD0120704790F87130DBB2202BD0
:1020D40001D00220704741B34AB390F87030012B0D
:1020E40027D0012380F87030C164A0F85020A0F8F4
:1020F4005220002343664367212380F871308368AC
:10210400B3F5805F0BD00C4B4366002380F870302E
:1021140001680A6842F080020A6018467047036941
:10212400002BF0D1054B4366EFE7012070470120F7
:1021340070470220704700BFFD1F000843200008BD
:1021440090F87230DBB2202B01D0022070470029B6
:1021540056D0002A56D090F87030012B54D0012369
:1021640080F870304165A0F85820A0F85A20002368
:1021740003668368B3F5805F06D0A3B9036973B9B6
:10218400FF23A0F85C3011E0036923B940F2FF1388
:10219400A0F85C300AE0FF23A0F85C3006E07F235F
:1021A400A0F85C3002E0B3F1805F19D000234367EC
:1021B400222380F872300268936843F0010393602D
:1021C4008368B3F5805F15D0104B0366002380F855
:1021D400703001680A6842F490720A6018467047C9
:1021E40003691BB97F23A0F85C30DFE73F23A0F825
:1021F4005C30DBE70369002BE6D1054B0366E5E7BA
:1022040001207047012070470220704735220008E2
:102214009922000808B501680A6822F040020A60A1
:10222400202280F8712000224266FEF70DFF08BDCF
:10223400B0F85C2090F87230DBB2222B06D0026832
:10224400138B9BB243F008031383704710B50368E4
:10225400998C436D5C1C4465D2B20A401A70B0F884
:102264005A309BB2013B9BB2A0F85A3003B110BD67
:102274000268136823F4907313600268936823F070
:1022840001039360202380F8723000230366FEF775
:1022940019FF10BD08B5B0F85C2090F87230DBB2BD
:1022A400222B06D00268138B9BB243F008031383DE
:1022B40008BD0368998C436D0A401A80436D02334C
:1022C4004365B0F85A309BB2013B9BB2A0F85A3038
:1022D400002BEDD10268136823F490731360026835
:1022E400936823F001039360202380F87230002365
:1022F4000366FEF7E7FE08BD38B504460268D369F5
:102304001168906813F00F050CD113F0200F09D059
:1023140011F0200F06D0236E002B00F09980204688
:10232400984738BD002D70D010F0010502D111F48A
:10233400907F6AD013F0010F07D011F4807F04D08E
:1023440001201062626F0243626713F0020F07D02C
:1023540035B1226802201062626F42F004026267A3
:1023640013F0040F07D035B1226804201062626FA5
:1023740042F00202626713F0080F09D011F0200F37
:1023840000D12DB1226808201062626F0243626797
:10239400626F002A5CD013F0200F06D011F0200FDA
:1023A40003D0236E0BB120469847636F13F0080FD8
:1023B40004D123689B6813F0400F20D02046FFF718
:1023C4000BFE23689A6812F0400F14D09A6822F02A
:1023D40040029A60E36E53B1204A9A63E06EFEF7BE
:1023E400F3FF002834D0E06E836B984738BD204655
:1023F400FEF7B2FE38BD2046FEF7AEFE38BD2046DD
:10240400FEF7AAFE0023636738BD13F4801F02D0D1
:1024140010F4800F0AD113F0800F13D011F0800F45
:1024240010D0636EA3B12046984738BD4FF4801393
:102434001362202384F8713084F87230204600F04F
:1024440004FB38BD13F0400F02D011F0400F00D14F
:1024540038BD2046FFF7DEFEFAE700BF652400081A
:1024640008B5806A0023A0F85A30A0F85230FEF76D
:1024740073FE08BD2DE9784B044601688368026940
:10248400134342691343C269134308689B4A0240D9
:1024940013430B602268536823F44053E1680B43F1
:1024A4005360A369226896498A4201D0216A0B438A
:1024B400916821F430610B4393602368914A9342FD
:1024C40023D0914A934234D0904A93424AD0904ABE
:1024D40093425DD08A4A934270D01025884A934231
:1024E40000F08F80E369B3F5004F00F0FD80082D04
:1024F40000F29B81DFE815F05A0171017B0199011B
:102504008601990199019901900102F55842D2F886
:10251400882002F00302032A09D8DFE802F002044B
:1025240068060125DAE70425D8E70825D6E710254B
:10253400D4E702F5E632D2F8882002F00C020C2A25
:102544000ED8DFE802F0070D0D0D090D0D0D560D27
:102554000D0D0B000025C1E70425BFE70825BDE7E5
:102564001025BBE702F5E432D2F8882002F03002ED
:10257400102A09D005D9202A3DD0302A06D10825B1
:10258400ACE71AB90025A9E70425A7E71025A5E7B4
:1025940002F5E232D2F8882002F0C002402A09D0C3
:1025A40005D9802A29D0C02A06D1082596E71AB968
:1025B400002593E7042591E710258FE702F5C8323B
:1025C400D2F8882002F44062B2F5806F0BD007D9AC
:1025D400B2F5006F13D0B2F5406F06D108257DE740
:1025E4001AB900257AE7042578E7102576E702254D
:1025F40074E7022572E7022570E702256EE70225DB
:102604006CE7082D11D8DFE805F0081005100C1050
:10261400101013003F4800260DE0FFF7BDFC002614
:1026240009E0FFF777F8002605E00020012602E024
:102634004FF400400026002800F0C980626802EBD5
:1026440042039842C0F0F480B0EB023F00F2F28003
:10265400082D46D8DFE805F005451F4529454545C1
:102664003B00FFF799FC00234FEA10694FEA00286A
:102674006268500818EB000B49F1000C584661469B
:10268400FDF7A6FDA0F54072234B9A4200F2D480D8
:102694002368D8609BE05508002320480021401996
:1026A40041F10001FDF794FDECE7FFF733F8002357
:1026B4004FEA10694FEA00286268500818EB000BD3
:1026C40049F1000C58466146FDF782FDDAE75008EF
:1026D4000021002310F5000041F10001FDF778FD11
:1026E400D0E701260020CDE7082D5CD8DFE805F00F
:1026F40018313C5B475B5B5B520000BFF369FFEF43
:102704000080004000380140004400400048004080
:10271400004C00400024F400FFFC0F00000024F4EF
:10272400FFF73AFC6268530803EB4003B3FBF2F390
:102734009BB20026A3F110014FF6EF7291427DD8AF
:102744009AB222F00F02C3F3420313432268D36008
:102754003DE0FFF731FC6268530803EB4003B3FB31
:10276400F2F39BB20026E5E76268530803F1F473C1
:1027740003F59043B3FBF2F39BB20026DAE7FEF7CE
:10278400C9FF6268530803EB4003B3FBF2F39BB247
:102794000026CFE76268530803F58033B3FBF2F3F6
:1027A4009BB20026C6E701260023C3E7FFF7F4FB2C
:1027B400636800EB5300B0FBF3F080B20026A0F195
:1027C40010024FF6EF739A423AD82368D860002378
:1027D400236663663046BDE8788BFFF7EDFB6368DC
:1027E40000EB5300B0FBF3F080B20026E7E7636828
:1027F400580800F5740000F51050B0FBF3F080B2F7
:102804000026DCE7FEF786FF636800EB5300B0FBAD
:10281400F3F080B20026D2E76368580800F5004060
:10282400B0FBF3F080B20026C9E701260020C6E71A
:102834000126CCE70126CAE70126C8E70126C6E738
:102844000126C4E7436A13F0010F06D002685368F7
:1028540023F40033816A0B435360436A13F0020F7D
:1028640006D00268536823F48033C16A0B43536073
:10287400436A13F0040F06D00268536823F48023DC
:10288400016B0B435360436A13F0080F06D00268D0
:10289400536823F40043416B0B435360436A13F0C2
:1028A400100F06D00268936823F48053816B0B43A6
:1028B4009360436A13F0200F06D00268936823F4F0
:1028C4000053C16B0B439360436A13F0400F0AD06B
:1028D4000268536823F48013016C0B435360036C48
:1028E400B3F5801F0BD0436A13F0800F06D0026843
:1028F400536823F40023816C0B43536070470268D0
:10290400536823F4C003416C0B435360EBE72DE998
:10291400F04105460F4616469846069C2B68DB692F
:1029240037EA03030CBF01230023B3421ED1B4F1E1
:10293400FF3FF3D02CB1FEF7D9FCA0EB0800844292
:10294400ECD22A68136823F4D07313602A6893685E
:1029540023F001039360202385F8713085F87230E9
:10296400002385F870300320BDE8F0810020BDE825
:10297400F08130B583B0044600234367FEF7B6FC0C
:10298400054623681B6813F0080F0ED123681B68E3
:1029940013F0040F17D1202384F8713084F87230B7
:1029A400002084F8700003B030BD6FF07E430093C4
:1029B400034600224FF400112046FFF7A8FF002829
:1029C400E4D00320EFE76FF07E4300932B46002210
:1029D4004FF480012046FFF79AFF0028DBD0032044
:1029E400E1E778B310B5044690F871300BB32423B3
:1029F40084F871302268136823F0010313602046C1
:102A0400FFF738FD01281FD0636ABBB922685368F9
:102A140023F4904353602268936823F02A0393605D
:102A24002268136843F0010313602046FFF7A1FFF7
:102A340010BD80F87030FEF7B9FAD8E72046FFF7EA
:102A440001FFE3E70120704710BD704770B50D4EDC
:102A54000D4CA41BA4100025A54209D10B4E0C4C0F
:102A640000F018F8A41BA4100025A54205D170BDE0
:102A740056F8253098470135EEE756F82530984743
:102A84000135F2E77C2C00087C2C00087C2C000823
:102A9400802C0008F8B500BFF8BC08BC9E467047FF
:0C2AA400F8B500BFF8BC08BC9E467047A7
:102AB000FFFFFFFF0000000000000000FFFFFFFF1E
:102AC0000000000000000000FF0000FF0000FF0009
:102AD00001FF00000600000B0000010000000000E4
:102AE00000000003000100030002000300030003D4
:102AF00000040003000500030200000302010003BC
:102B0000000600031105000825050008E803010080
:102B1000000000000000000000000000000000486D
:102B200020000000010000000200FF030008004830
:102B300000200000000011100200FF030000004808
:102B40000100000002000000020001030000004834
:102B50000800000002000000020001030004004819
:102B600020000000000000000200FF0300040048F5
:102B700010000000000000000200FF0300040048F5
:102B800000200000010000000200FF0300000048D8
:102B900004000000020000000201070300000048DA
:102BA00008000000020000000201070310000000FE
:102BB0000000000000000000000000001000000005
:102BC00000000000010000000000000060000000A4
:102BD00002000000010000000100000028000000C9
:102BE00007000000040000000200000003000000D5
:102BF00000000000000000000000000000000000D5
:102C00000044004000C2010000000000000100007C
:102C1000C8010020640000006401002000000000E2
:102C200000000000450B000800000000000000004C
:102C3000000000000102030406070809000000006C
:102C400001020304A0860100400D0300801A060063
:102C500000350C0040420F0080841E0000093D003A
:102C600000127A000024F40000366E010048E801EA
:042C7000006CDC0216
:082C740090D5FF7F0100000074
:042C7C00B901000892
:042C800095010008B2
:102C8400FF0000010301000006010000070100002D
:102C940017010000120100001C0100001D010000CA
:102CA40025010000260100011F0100002101000090
:0C2CB400230100002401000000093D0085
:0400000508001219C4
:00000001FF
