:020000040800F2
:1000000000000220BD160008091000080B100008AF
:100010000D1000080F10000811100008000000006B
:1000200000000000000000000000000013100008A5
:100030000D17000800000000151000081710000838
:100040000D1700080D1700080D1700081F100008F5
:100050000D1700080D1700082110000823100008D4
:100060000D1700080D1700080D1700080D170008E0
:100070000D1700080D1700080D1700080D170008D0
:100080000D1700080D1700080D1700080D170008C0
:100090000D1700080D1700080D170008251000089F
:1000A0000D1700080D1700080D1700080D170008A0
:1000B0005F10000861100008000000003F100008F9
:1000C0000D170008471000080D1700084F10000812
:1000D000571000082F100008371000080D170008EF
:1000E0000D1700080D1700080000000000000000B8
:1000F0000000000000000000000000000000000000
:10010000000000000D170008000000000D17000897
:100110000D170008000000000D1700080000000087
:100120000D1700080D1700080D1700080D1700081F
:100130000D1700080D1700080D170008000000003B
:100140000D1700080D1700080D1700080D170008FF
:100150000D1700080D1700080D1700080D170008EF
:100160000D1700080D1700080D170008000000000B
:10017000000000000D170008000000000000000053
:100180000D1700080D1700080D1700080D170008BF
:040190000D1700083F
:1001940010B5054C237833B9044B13B10448AFF3BD
:1001A40000800123237010BD3C00002000000000EB
:1001B400F837000808B5034B1BB103490348AFF3F4
:1001C400008008BD0000000040000020F83700084F
:1001D40053B94AB9002908BF00281CBF4FF0FF31AA
:1001E4004FF0FF3000F07AB9ADF1080C6DE904CEA0
:1001F40000F006F8DDF804E0DDE9022304B07047FE
:100204002DE9F0478C460D460446089E002B51D13B
:100214008A4217466DD9B2FA82FEBEF1000F0BD0A6
:10022400CEF1200C01FA0EF520FA0CFC02FA0EF7BE
:100234004CEA050C00FA0EF44FEA174A250CBCFBF5
:10024400FAF81FFA87F90AFB18CC45EA0C4508FBB3
:1002540009F3AB420AD9ED1908F1FF3280F023818A
:10026400AB4240F22081A8F102083D44ED1AA4B249
:10027400B5FBFAF00AFB105544EA054400FB09F902
:10028400A14509D9E41900F1FF3380F00A81A145A1
:1002940040F2078102383C44A4EB090440EA0840D8
:1002A4000021002E61D024FA0EF400233460736020
:1002B400BDE8F0878B4207D9002E54D0002186E890
:1002C40021000846BDE8F087B3FA83F1002940F025
:1002D4008E80AB4202D3824200F2FA80841A65EB2C
:1002E40003050120AC46002E3FD086E81010BDE87F
:1002F400F08712B90127B7FBF2F7B7FA87FEBEF110
:10030400000F34D1EB1B3A0C1FFA87FC0121B3FB1D
:10031400F2F8250C02FB183345EA03450CFB08F3FD
:10032400AB4207D9ED1908F1FF3002D2AB4200F21B
:10033400D1808046ED1AA3B2B5FBF2F002FB105552
:1003440043EA05440CFB00FCA44507D9E41900F179
:10035400FF3302D2A44500F2B8801846A4EB0C0483
:1003640040EA08409DE731463046BDE8F087CEF1CB
:10037400200405FA0EF307FA0EF720FA04F83A0CF3
:1003840025FA04F448EA0308B4FBF2F14FEA1845ED
:1003940002FB11441FFA87FC45EA044501FB0CF3F8
:1003A400AB4200FA0EF409D9ED1901F1FF3080F0E7
:1003B4008A80AB4240F2878002393D44EB1A1FFA2F
:1003C40088F5B3FBF2F002FB103345EA034500FB6A
:1003D4000CF3AB4207D9ED1900F1FF386FD2AB42F1
:1003E4006DD902383D44EB1A40EA01418FE7C1F16F
:1003F400200722FA07F88B4005FA01F448EA0303C0
:1004040020FA07FE4FEA134CFD404EEA040EB5FBFA
:10041400FCF94FEA1E440CFB19551FFA83F844EA11
:10042400054509FB08F4AC4202FA01F200FA01FAAC
:1004340008D9ED1809F1FF3043D2AC4241D9A9F1F2
:1004440002091D442D1B1FFA8EFEB5FBFCF00CFBAC
:1004540010554EEA054400FB08F8A04507D9E418F6
:1004640000F1FF3529D2A04527D902381C4440EABF
:100474000940A4EB0804A0FB02894C45C6464D463E
:1004840015D312D056B1BAEB0E0364EB050404FA8B
:1004940007F7CB401F43CC40376074600021BDE8B0
:1004A400F0871846F8E69046E0E6C245EAD2B8EB93
:1004B400020E69EB03050138E4E72846D7E7404616
:1004C40091E78146BEE7014678E702383C4445E7B8
:1004D400084608E7A8F102083D442BE7704700BF2F
:1004E40008B500F066FF00F013FD00F0F7FE01F020
:1004F40073F801F0ABF800F00FFC00F075FB00F0AE
:1005040031FD00F047FD00F019FA00F0C5FAFCE7F0
:1005140008B50022024B1A7000F09CF908BD00BF18
:100524007000002030B585B00221062000F04CFC9C
:1005340003A800F0E3FE02A800F00EFF3A238DF8B2
:100544000130039B1A0E8DF807201A0C8DF8062033
:100554001B0A8DF80530029B1A0E30328DF80420E8
:10056400C3F3074230328DF80320C3F3072330333B
:100574008DF802300121002001F08AF89DF807303F
:10058400092B61D8303304A901F8093D002001F09A
:1005940087F804A93A2301F80F3D002001F080F800
:1005A4009DF80630092B6DD8303304A901F80A3DB3
:1005B400002001F075F804A93A2301F80F3D00204A
:1005C40001F06EF89DF80530092B79D8303304A971
:1005D40001F80B3D002001F063F80A2504AC04F88F
:1005E4000F5D2146002001F05BF80DF102010020AF
:1005F40001F056F82F238DF801302146002001F038
:100604004FF80DF10301002001F04AF821460020C3
:1006140001F046F801A9002001F042F88DF80150DC
:100624002146002001F03CF82146002001F038F872
:10063400042000F02EF9C1B2042900F28980DFE819
:1006440001F0865D68875F00444CA4FB0323DB084C
:10065400303304AD05F80F3D2946002001F020F8A1
:100664009DF80730A4FB0324E40804EB840462002F
:100674009B1ADBB230338DF801302946002001F09B
:100684000FF886E7354CA4FB0323DB08303304ADB5
:1006940005F80F3D2946002001F002F89DF80630C8
:1006A400A4FB0324E40804EB840462009B1ADBB279
:1006B40030338DF801302946002000F0F1FF7AE74D
:1006C400264CA4FB0323DB08303304AD05F80F3DAF
:1006D4002946002000F0E4FF9DF80530A4FB032424
:1006E400E40804EB840462009B1ADBB230338DF817
:1006F40001302946002000F0D3FF6EE7022127E0F5
:10070400174B1B78022B23D10021154A117019466F
:100714001EE0134B1B78012B07D0032B0BD0042BAB
:100724000FD000220E4B1A7012E00A21052000F0AF
:10073400CBF80321F5E70121052000F0C5F80421D9
:10074400EFE70321052000F0BFF80521E9E70121C7
:10075400042000F0B9F805B030BD00BFCDCCCCCC3E
:10076400700000200D4B03EB8002527813F8203008
:10077400012B08D01BB1022B0AD005207047084B6F
:10078400995400207047074B23F81210002070473B
:10079400054B43F822100020704700BF4038000882
:1007A40074000020840000207C00002030B4224A21
:1007B40002EB80035B7812F82020012A14D01AB1CE
:1007C400022A25D005200DE01C4AD25C0A601C4890
:1007D40003EB4303C2189478CC60C35C4B6053783A
:1007E4008B60002030BC7047164A32F813200A6030
:1007F400154A5800C5186C001519AD88CD60145BF6
:100804004C6003445800024453888B600020E9E79D
:100814000E4A52F823200A600D4A5800C518AC004D
:100824001519AD68CD6014594C6003449800024416
:1008340053688B600020D5E740380008740000201E
:100844002838000884000020103800087C000020AC
:100854001038000810B584B0002409E06946204629
:10086400FFF7A4FF03992046FFF77CFF0134E4B2AD
:10087400082CF3D904B010BD00B585B06946FFF764
:1008840095FF20B14FF0FF3005B05DF804FB0098F0
:10089400FAE708B5FFF7F0FF08BD70B584B0064667
:1008A4000D466946FFF782FF04460199A94203D326
:1008B40002998D4200D3294614B1204604B070BD7C
:1008C4003046FFF74FFFF8E708B5FFF7E6FF08BD2E
:1008D4000023164A1370012B26D830B4144931F87A
:1008E40013206FF30D0221F813205A00D01884004E
:1008F40010482044847A1144487864F386106FF3D6
:10090400C71048700C49D018C5004C190020A081AC
:10091400A060485160602061012262751344DBB21B
:10092400012BDBD930BC7047704700BFB8000020F2
:10093400BC000020643800088800002010B5FFF7D0
:10094400C7FF002401E00134E4B2012C08D804EB11
:1009540044029300084AD358002BF4D09847F2E796
:10096400064C204600F01EFD2368054AA2FB032323
:100974009B0C236010BD00BF643800088400002075
:1009840083DE1B430023012B25D830B403E001335D
:10099400DBB2012B1DD8104830F81320C2F30D012F
:1009A400013161F30D0220F8132003EB4302D1005F
:1009B4000A4A0A44127D002AE9D0084A0A44527DB0
:1009C400002AE4D0054801444A6802F57A724A6074
:1009D400DDE730BC70477047BC0000208800002071
:1009E400F0B4114B1A78411A104B186891FBF0F1CE
:1009F4000F4E53001344DD00741963681944616099
:100A04002369B3F1FF3F28BF0133581C2061775994
:100A140007FB0313B3FBF0F37351A368994200D9A6
:100A2400A160F0BC704700BFB80000208400002023
:100A3400880000202DE9F041DFF8588098F8001074
:100A4400114C4B005818C2002244002757600F4E27
:100A5400B568012010750B449A000D4B13445B6874
:100A6400984798F8000043001918CA0022441775E3
:100A7400B1680344DA001444637D0BB9BDE8F08126
:100A84002846FFF7ADFFF9E78800002010E000E0FA
:100A940064380008B800002070B50024204627E020
:100AA400002A48D1284A32F813106FF30D0122F8B6
:100AB40013105A00D118C800244901448D892249D1
:100AC40031F81310C1F30D011A449000204A024476
:100AD4001289881A854205DA5A001344DA001B4B3E
:100AE40013449881FFF7A6FF012060BB022C2AD88B
:100AF4000134E4B2174A1378013303F0010313708D
:100B0400114A02EB43025278D209C9D10E4901EBD2
:100B14004301497811F0400FE7D00B4931F81350E5
:100B2400C5F30D05590019448E000949314409895A
:100B34008D42DADBB4E7044A02EB430251786FF3E7
:100B4400C7115170B5E770BDBC00002088000020BB
:100B540064380008B80000208160C280002343800C
:100B640083800380704738B504460D4600F040FA90
:100B7400A268A388D554238801332380A388013332
:100B84009BB2E188B3FBF1F201FB1233A38000F0C6
:100B94001BFA38BD38B5044600F02AFAA268638807
:100BA400D55C2288013A228001339BB2E188B3FBF1
:100BB400F1F201FB1233638000F006FA284638BDD7
:100BC40000887047C3880088181A80B2704788422A
:100BD40002D2091AC8437047401A7047014B18687B
:100BE400704700BF6800002000230BB1002070474D
:100BF400034A02EB0312002111720133DBB2F4E762
:100C04005800002010B50446FFF7E8FF2401024B0A
:100C14001851002010BD00BF5800002010B5044634
:100C2400084B03EB00131B7A023BDBB2012B06D902
:100C3400044800EB041001230372002010BDFFF7E9
:100C4400E1FFF5E75800002038B50446164B03EBE6
:100C540000131B7A012B0AD0FBB9134902018B58EC
:100C640001338B500020012819D0002038BD0E4AD2
:100C74000301D518D1580D4B1868FFF7A8FF6B680E
:100C8400984206D303222A72EB6823B12046984780
:100C9400E9E70020E7E70020E5E70020E3E7204656
:100CA400FFF7BCFFE1E700BF580000206800002008
:100CB40010B5064A136801331360002404B110BD53
:100CC4002046FFF7C1FF0134E4B2F7E768000020D3
:100CD4000B4B53F8302003EBC0004379D1544379D4
:100CE4005A1C817992FBF1F301FB1323DBB24371AC
:100CF4000279934201D0002070470820704700BF5A
:100D0400C000002008B501460020FFF7E1FF08BD40
:100D1400081AC000704700002DE9F843264C4FF034
:100D24000063636000262660244B1F683946304602
:100D3400FFF7EEFFA060012405E04FF480330FE0DD
:100D440001260134E4B2032C33D81D4B1A684FF644
:100D5400FF739A42F1D01B4B03EA8223DB0A1B0286
:100D64009F42EDD2144D4FEA440808EB040293006D
:100D7400E818EF5004F1FF3E4FEA4E0303EB0E0177
:100D84008A002A44516873449A002A4493680B44A5
:100D940043600A4B53F8243007EB030949463846AD
:100DA400FFF7B6FFA0444FEA88031D44A8604F46EE
:100DB400C7E73046BDE8F883C80000207C38000847
:100DC400E075FF1F00FC3F00032915D008B50A4653
:100DD400022908D0094B000119188988185800F015
:100DE4003DFE002008BD054B00011A1891881858D3
:100DF40000F039FE002008BD052070478C3800083B
:100E040086B003013C4AD358B3F1904F1FD003017D
:100E1400394AD258394B9A4227D00301364AD2581C
:100E2400374B9A422FD00301334AD258354B9A425A
:100E340037D00301304AD258334B9A423FD0000195
:100E44002D4B1A58314B9A4247D006B0704703F1E4
:100E5400784303F50433DA6C42F00102DA64DB6CA4
:100E640003F001030093009BD1E703F1784303F5FA
:100E74000333DA6C42F00202DA64DB6C03F002033F
:100E84000193019BC9E703F1784303F50233DA6C5C
:100E940042F00402DA64DB6C03F004030293029B65
:100EA400C1E703F1784303F50133DA6C42F0080239
:100EB400DA64DB6C03F008030393039BB9E703F1E3
:100EC400784303F50033DA6C42F01002DA64DB6C29
:100ED40003F010030493049BB1E703F1784303F593
:100EE400FA33DA6C42F08002DA64DB6C03F08003DC
:100EF4000593059BA9E700BF8C380008000400484F
:100F040000080048000C004800100048001C00487D
:100F140070B586B00024264601E00134E4B2082C02
:100F24001BD82046FFF76CFF0D4A2301D518A9886A
:100F34000191A9680291297B0491697B0391A97BA2
:100F4400059101A9D05800F0B9FCE97B0329E4D04C
:100F54002046FFF739FF0646DFE7304606B070BD8E
:100F64008C38000810B5002401E00134E4B20D2CE3
:100F74000CD8074B13F9240010F1050FF5DB03EB34
:100F840084039A78597800F009FCEEE7002010BD3C
:100F94000000002010B5002401E00134E4B20D2C5F
:100FA4000DD8084B03EB8403DB78012BF5D1054BFB
:100FB40013F924000028F0DB00F022FCEDE7002008
:100FC40010BD00BF00000020084B1B889BB2012B02
:100FD40006D9064A13889BB2013B9BB21380704723
:100FE4000022024B1A8062B6704700BF6C000020DA
:100FF40072B6034A13889BB201339BB213807047C5
:101004006C0000207047FEE7FEE7FEE7FEE770474E
:10101400704708B500F026FC08BD7047704770475C
:1010240008B5202000F024FD08BD08B500F020F824
:1010340008BD08B500F01DF808BD08B500F01EF89D
:1010440008BD08B500F01BF808BD08B500F018F895
:1010540008BD08B500F015F808BD7047704708B51D
:1010640000F08EFBFFF78EFCFFF722FE08BD7047F1
:10107400704708B5002000F09DFA08BD704770471E
:1010840070477047294B1B6913F4807F26D1284B86
:10109400D3F8943013F0804F2FD1254BD3F89430EC
:1010A40013F0005F2DD1224BD3F8943013F0805FFE
:1010B4002BD11F4BD3F8943013F0806F29D11C4BE4
:1010C400D3F8943013F0006F27D1194BD3F8943030
:1010D400002B26DB0022174B1A7006E04FF48072B7
:1010E400124B9A610122134B1A70114AD2F89430B0
:1010F40043F40003C2F89430704707220D4B1A7072
:10110400F3E702220B4B1A70EFE70322094B1A7024
:10111400EBE70122074B1A70E7E70422054B1A702C
:10112400E3E70622034B1A70DFE700BF00700040BC
:10113400001002406E0000200020704700B5B3B0DC
:10114400304B1A6821925A6822921A692592DA68F9
:1011540024929A6823925A6926929A692792DA69A4
:1011640028921A6A29925A6A2B929A6A2C92DA6AFB
:101174002D921A6B2E925A6B2F929A6B3092DB6BD4
:10118400319321A800F09AFD18B1012033B05DF825
:1011940004FB0F231C931B4B1A6C1D925A6C1E925A
:1011A4009A6C1F92DB6C209304211CA801F072F846
:1011B40008B10120EAE74FF4007000F06FFC08B1B9
:1011C4000120E3E74FF4003302930E4B1B6D1B9396
:1011D40002A801F0EBF901F005F90B4BA3FB003079
:1011E400800900F019FB042000F02CFB074B1A6E59
:1011F40042F001021A661B6E03F001030193019B86
:101204000020C3E71C390008D34D621000100240CF
:1012140010B586B023238DF8043059238DF805309A
:1012240055238DF8063040238DF8073000230493AE
:101234000593124B1B68F3B1012201A90F4801F079
:101244002EFC20B9002424B1204606B010BD012490
:10125400F9E701228DF800208DF801208DF8022095
:1012640000238DF803306946044801F0A0FC0028EF
:10127400EAD00124E8E70024E6E700BFF8000020F4
:1012840000B583B0124B9A6D42F080529A659A6D04
:1012940002F080520192019AD3F8902042F4004265
:1012A400C3F890200B48002380F821300A4A0260DA
:1012B40043607F228260F922C26003618361C3615B
:1012C40001F078FBFFF7A4FF03B05DF804FB00BF57
:1012D40000100240F80000200028004008B5FFF785
:1012E400D1FEFFF72BFF034608B1184608BDFFF7F0
:1012F400C7FFFFF721FF0346F7E70000154B1B6804
:1013040013B318B310B586B00446002201A91148DE
:1013140001F0CCFC10B1012006B010BD00226946DA
:101324000C4801F0EEFC98B99DF804209DF80530B6
:1013340043EA02229DF806109DF8083043EA01238F
:1013440043EA02432360E7E7012070470120704726
:101354000120E1E7F8000020114B1B68D3B1D8B19C
:1013640010B582B00446002201A90D4801F0C9FC61
:10137400A0B99DF807209DF8053043EA02229DF8A4
:1013840006109DF8043043EA012343EA0243236034
:1013940002B010BD01207047012070470120F7E71B
:1013A400F800002010B5044601F01CF8206000206D
:1013B40010BD70472DE9F04182B080460F461646B5
:1013C40000238DF8073000EB4003DD000835144B93
:1013D4001D4404352846FFF7F5FBB04203D208202C
:1013E40002B0BDE8F081002404E0395D2846FFF72F
:1013F400BAFB0134B442F8D32846FFF7E1FB08B93D
:101404000020EDE7C8EB08184FEAC80301220DF1EC
:1014140007010448184401F00DFD0020E0E700BF77
:101424001C0100203C01002082B00368114A934251
:1014340004D0114A93420CD002B070470F4B1A6E7D
:1014440042F480421A661B6E03F480430093009BAF
:1014540009E00A4B9A6D42F400329A659B6D03F4DD
:1014640000330193019B0268136843F02003136067
:10147400E2E700BF00380140004400400010024091
:1014840003680D4A934203D00C4A93420AD0704732
:101494000B4B1A6C42F480421A641A6C22F4804298
:1014A4001A647047064B9A6B42F400329A639A6B43
:1014B40022F400329A63EAE7003801400044004015
:1014C4000010024010B582B01A4B93F9003003EBC0
:1014D4004303D8000830184B18440430FFF770FB5E
:1014E40068B9144B93F90030C3EB0313DA00134BC0
:1014F4009A58136823F08003136002B010BD0D4C9A
:1015040094F9003003EB4303D80008300A4B184425
:101514000430FFF73FFB02A901F8010D94F90030F4
:10152400C3EB0313D8000122044B184401F082FCDE
:10153400E3E700BF6F0000201C0100203C010020F5
:1015440010B50446164B93F900202C23154903FBD0
:1015540002135B6A43B1144A107898470122124976
:10156400204601F0A3FC10BD02EB4202D3000F4859
:101574001844FFF727FB30B9094B93F900300821D1
:101584000B4AD154EAE7064B93F9003003EB4303CB
:10159400DA00054B197805481044FFF7E4FADDE753
:1015A4006F00002070390008B40100201C010020E5
:1015B4003401002008B5C0EB0012D300034A1070B8
:1015C4000348184401F04EFD08BD00BF6F00002021
:1015D4003C01002070470000F8B500240CB1002045
:1015E400F8BD174A2C2303FB04F3D518D05815492A
:1015F40023011B1BDA008B1888506A685A602A7A08
:101604009A60AA7ADA606A7A1A6100229A610C21D5
:101614005961DA6166003319D8000B4FAA8AA969A7
:101624003844FFF799FA2644F00008303844AA8970
:1016340029690430FFF790FA0134E4B2CEE700BF21
:10164400703900083C0100201C01002038B500243A
:101654000CB1002038BDC4EB0413DD000A4B1D445B
:10166400284601F0C8FB58B9284602F06AF848B980
:1016740001220649284601F019FC0134E4B2E7E7E7
:10168400012038BD012038BD3C010020B4010020F8
:10169400024B43F820100020704700BF380100209F
:1016A40008B5044B53F820200AB9052008BDFFF7FC
:1016B40081FE08BD38010020DFF834D0002103E0AA
:1016C4000C4B5B58435004310B480C4B42189A4264
:1016D400F6D30B4A02E0002342F8043B094B9A423A
:1016E400F9D300F013F802F061F8FEF7F9FEFEE713
:1016F40000000220F4390008000000203C00002013
:101704003C00002020030020FEE700000F49D1F830
:10171400883043F47003C1F888300D4B1A6842F0E6
:1017240001021A60002098601A6822F0A85222F47C
:1017340010221A604FF48052DA601A6822F4802270
:101744001A6098614FF000638B60704700ED00E011
:101754000010024010B50446074B1868074BA3FB62
:101764000030800900F058F8002221464FF0FF3085
:1017740000F014F8002010BD38000020D34D621092
:10178400024A136801331360704700BF1C03002032
:10179400014B1868704700BF1C03002030B4164B7F
:1017A400DB68C3F30223C3F10704042C28BF042419
:1017B4001D1D062D17D9033B012505FA04F4013C30
:1017C4002140994005FA03F3013B134019430028D3
:1017D4000BDB0901C9B200F1604000F5614080F8FB
:1017E400001330BC70470023E6E700F00F00090146
:1017F400C9B2024B1954F4E700ED00E014ED00E027
:10180400420900F01F00012303FA00F0014B43F8E2
:101814002200704700E100E00138B0F1807F0AD275
:10182400064B5860F021064A82F823100020986085
:1018340007221A6070470120704700BF10E000E0E3
:1018440000ED00E0042805D0054A136823F00403E2
:1018540013607047024A136843F00403136070472F
:1018640010E000E008B5FFF7FAFB08BD08B590F8F2
:101874002530DBB2022B03D00423C363012008BD4F
:101884000268136823F00E0313600268136823F0E0
:1018940001031360016C436C03F01C03012202FA80
:1018A40003F34B6080F82520002380F82430836BF9
:1018B40013B19847002008BD002008BDF0B583B0DF
:1018C40000238CE0DE08083650F8264003F0070EAB
:1018D4004FEA8E0E0F2707FA0EF724EA07040F6962
:1018E40007FA0EF73C4340F8264087E08668264016
:1018F400CF6807FA0EF73E438660466826EA050578
:101904004E68C6F300169E4035434560C5682C40BA
:101914008D6805FA0EF52C43C4604C6814F0805FA2
:101924005CD04A4C256E45F001052566246E04F012
:1019340001040194019C9D08AE1C454C54F82640BA
:1019440003F00306B6000F27B74024EA0704B0F1FA
:10195400904F70D03F4FB8426FD007F58067B842C0
:101964006DD007F58067B8426BD007F58067B84241
:101974005FD0072707FA06F634430235344E46F89B
:101984002540354C2568D44305EA04064F6817F40E
:10199400803F01D042EA05062F4D2E606D6804EAAF
:1019A40005064F6817F4003F01D042EA05062A4DA8
:1019B4006E60AD6804EA05064F6817F4801F01D015
:1019C40042EA0506244DAE60ED682C404E6816F4DC
:1019D400001F01D042EA05041F4AD46001330A689B
:1019E40032FA03F42FD001259D402A40F6D04C68EA
:1019F400022C3FF467AF122C3FF464AF06684FEA41
:101A0400430E032404FA0EF4E44326404F6807F01F
:101A1400030707FA0EF73E4306604E68771E012F50
:101A24007FF664AF112E3FF461AF122E7FF46EAFD8
:101A34005CE704279EE700279CE701279AE7022733
:101A440098E7032796E703B0F0BD00BF00100240FB
:101A54000000014000040048000401400AB981620A
:101A64007047816170474369594041617047000084
:101A740008B5054B5B69034200D108BD024B5861B0
:101A8400FFF7F5FAF9E700BF00040140024B1868BC
:101A940000F4C060704700BF00700040B0F5007FE4
:101AA4000FD0204B1B6803F4C063B3F5806F37D0AD
:101AB4001C4A136823F4C06343F48063136000205A
:101AC4007047184B1B6803F4C063B3F5007F23D041
:101AD400144A136823F4C06343F400731360124B75
:101AE4001B6802F1467202F55B3202F28322A2FB0A
:101AF40003239A0C322303FB02F300E0013B23B1DE
:101B0400084A526912F4806FF8D1064B5B6913F4EA
:101B1400806F03D003207047002070470020704777
:101B240000207047007000403800002030B583B0BA
:101B34000546204B9B6D13F0805F0BD0FFF7A6FF8B
:101B4400B0F5007F17D0802D1FD82DD0702D2DD04B
:101B540000211BE0174CA36D43F08053A365A36DD4
:101B640003F080530193019BFFF790FFA36D23F0D3
:101B74008053A365E4E7802D03D9A02D03D9022166
:101B840004E0002102E0012100E003210A4A136875
:101B940023F007030B431360136803F00703994210
:101BA40006D0012003B030BD0221EFE70121EDE7AB
:101BB4000020F7E700100240002002403B4B9B68E6
:101BC40013F00C0F1AD0394B9B6803F00C030C2B49
:101BD4000ED0364B9B6803F00C03042B2FD0334BF1
:101BE4009B6803F00C03082B2CD00020014618E05E
:101BF4002E4BDB6803F00303012BEAD12B4B1B684C
:101C040013F0080F14D1294BD3F89430C3F30323F2
:101C1400274A52F82310254B9B6813F00C0F0CD065
:101C24000020224A936803F00C030C2B0DD070475C
:101C34001E4B1B68C3F30313EAE70846F1E71D488C
:101C44000021EEE71C480021EBE71346D26802F0BE
:101C54000302DB68C3F302130133022A0AD0032A06
:101C64001AD0B1FBF3F3114AD068C0F3062000FB8D
:101C740003F008E00F48B0FBF3F30C4AD068C0F35C
:101C8400062000FB03F0094BDB68C3F34163013317
:101C94005B00B0FBF3F0CAE70748B0FBF3F3034A79
:101CA400D068C0F3062000FB03F0ECE7001002400C
:101CB400B43900080024F40000127A00002800F06F
:101CC400D78270B582B00446036813F0100F3FD07A
:101CD400974B9B6813F00C0F40F09280944B1B6859
:101CE40013F0020F03D08369002B00F0C382206A33
:101CF4008F4B1B6813F0080F62D08D4B1B6803F0E9
:101D0400F003834263D2FFF711FF002840F0B4824E
:101D1400874B1A6842F008021A601A6822F0F0022F
:101D2400216A0A431A605A6822F47F42E16942EA4E
:101D340001225A60FFF742FF7D4B9B68C3F30313F4
:101D44007C4AD35CD8407C4B18600020FFF702FD2E
:101D5400236813F0010F00F0A180754B9B6803F01A
:101D64000C03082B00F09180714B9B6803F00C036B
:101D74000C2B00F083806368B3F5803F00F0B580DE
:101D8400B3F5A02F00F0B780694B1A6822F48032B3
:101D94001A601A6822F480221A606368002B00F02B
:101DA400B780FFF7F5FC0546614B1B6813F4003F51
:101DB40074D1FFF7EDFC401B6428F5D9032062E2DF
:101DC4005B4BD3F894301B0903F0F00399E7584BAD
:101DD4001A6842F008021A601A6822F0F002216AB6
:101DE4000A431A605A6822F47F42E16942EA0122F6
:101DF4005A60206AFFF79AFE00289BD0012042E235
:101E0400836933B34A4A136843F001031360FFF74D
:101E1400BFFC0546464B1B6813F0020F06D1FFF7C3
:101E2400B7FC401B0228F5D903202CE2404B1A686A
:101E340042F008021A601A6822F0F002216A0A438A
:101E44001A605A6822F47F42E16942EA01225A6028
:101E54007EE7374A136823F001031360FFF798FC09
:101E64000546334B1B6813F0020F3FF471AFFFF7C5
:101E74008FFC401B0228F4D9032004E22C4BDB68BE
:101E840003F00303032B7FF476AF294B1B6813F491
:101E9400003F03D06368002B00F0F081236813F047
:101EA400020F62D0224B9B6803F00C03042B4BD02F
:101EB4001F4B9B6803F00C030C2B3FD0E368002BF3
:101EC40079D01B4A136843F480731360FFF760FCF6
:101ED4000546174B1B6813F4806F63D1FFF758FC5A
:101EE400401B0228F5D90320CDE1114A136843F4BD
:101EF4008033136051E703F18043A3F53C331A6840
:101F040042F480221A601A6842F480321A6044E76C
:101F1400FFF73EFC0546064B1B6813F4003FBDD09B
:101F2400FFF736FC401B6428F5D90320ABE100BF62
:101F3400001002409C39000838000020B14BDB68D7
:101F440003F00303022BB9D1AE4B1B6813F4806F6B
:101F540003D0E368002B00F09381AA4A536823F06E
:101F6400FE43216943EA01635360236813F0080FB9
:101F74004CD063699BB3A34AD2F8943043F0010375
:101F8400C2F89430FFF704FC05469E4BD3F8943016
:101F940013F0020F3AD1FFF7FBFB401B0228F4D9E0
:101FA400032070E1974A536823F0FE43216943EA12
:101FB40001635360D9E7934A136823F48073136071
:101FC400FFF7E6FB05468F4B1B6813F4806FCCD0FC
:101FD400FFF7DEFB401B0228F5D9032053E1894AB1
:101FE400D2F8943023F00103C2F89430FFF7D0FB09
:101FF4000546844BD3F8943013F0020F06D0FFF754
:10200400C7FB401B0228F4D903203CE1236813F0EA
:10201400040F7AD07B4B9B6D13F0805F36D1794BE4
:102024009A6D42F080529A659B6D03F08053019340
:10203400019B0125744B1B6813F4807F28D0A3688F
:10204400012B39D0052B3FD06E4BD3F8902022F0D2
:102054000102C3F89020D3F8902022F00402C3F8C0
:102064009020A368002B3DD0FFF792FB0646654BFA
:10207400D3F8903013F0020F46D1FFF789FB801B91
:1020840041F288339842F2D90320FCE00025D1E7DD
:102094005D4A136843F480731360FFF779FB0646C7
:1020A400594B1B6813F4807FC9D1FFF771FB801B68
:1020B4000228F5D90320E6E0524AD2F8903043F0E2
:1020C4000103C2F89030CCE74E4BD3F8902042F095
:1020D4000402C3F89020D3F8902042F00102C3F820
:1020E4009020BEE7FFF754FB0646464BD3F89030EA
:1020F40013F0020F08D0FFF74BFB801B41F288332B
:102104009842F2D90320BEE0E5B9236813F0200F0A
:1021140035D0636AE3B13B4AD2F8983043F0010307
:10212400C2F89830FFF734FB0546364BD3F89830A5
:1021340013F0020F23D1FFF72BFB401B0228F4D925
:102144000320A0E02F4A936D23F080539365DCE7CE
:102154002C4AD2F8983023F00103C2F89830FFF7E4
:1021640017FB0546274BD3F8983013F0020F06D01F
:10217400FFF70EFB401B0228F4D9032083E0A36A77
:10218400002B7FD01F4A926802F00C020C2A7CD0EC
:10219400022B23D01B4B1A6822F080721A601B6832
:1021A40013F0006F04D1174AD36823F00303D360FC
:1021B400144AD36823F0887323F48033D360FFF781
:1021C400E7FA04460F4B1B6813F0007F4ED0FFF76D
:1021D400DFFA001B0228F5D9032054E0094A1368EA
:1021E40023F080731360FFF7D3FA0546054B1B6891
:1021F40013F0007F0AD0FFF7CBFA401B0228F5D971
:10220400032040E00010024000700040236B5A1E7F
:10221400636B1B0243EA0213E26A1343E26B520844
:10222400013A43EA4253226C5208013A43EA4263B8
:10223400A26B43EAC263164AD360136843F0807307
:102244001360D36843F08073D360FFF7A1FA0446A8
:102254000F4B1B6813F0007F06D1FFF799FA001BA0
:102264000228F5D903200EE000200CE000200AE04B
:1022740001207047012006E0012004E0012002E073
:10228400012000E0002002B070BD0120FBE700BF88
:1022940000100240002800F0998070B504464D4BB0
:1022A4001B6803F007038B420CD24A4A136823F0DD
:1022B40007030B431360136803F00703994201D02B
:1022C400012070BD0D46236813F0010F39D06368F7
:1022D400032B09D0022B26D063BB3F4A126812F0AD
:1022E400020F06D1012070BD3B4A126812F0007F34
:1022F4006ED039498A6822F0030213438B60FFF7DA
:1023040047FA0646344B9B6803F00C036268B3EB50
:10231400820F16D0FFF73CFA801B41F288339842B3
:10232400F0D9032070BD2C4A126812F4003FE0D1AA
:10233400012070BD284A126812F4806FD9D101209F
:1023440070BD236813F0020F06D0234A936823F06C
:10235400F003A1680B4393601E4B1B6803F0070353
:102364009D420CD21B4A136823F007032B431360CE
:10237400136803F007039D4201D0012070BD236858
:1023840013F0040F06D0144A936823F4E063E16861
:102394000B439360236813F0080F07D00E4A936829
:1023A40023F46053216943EAC1039360FFF706FCF9
:1023B400094B9B68C3F30313084AD35CD840084B0A
:1023C40018600020FFF7C6F9002070BD0120704797
:1023D400012070BD00200240001002409C3900081A
:1023E40038000020014B1868704700BF38000020F7
:1023F40008B5FFF7F7FF044B9B68C3F30223034AB6
:10240400D35CD84008BD00BF00100240AC390008BE
:1024140008B5FFF7E7FF044B9B68C3F3C223034AE5
:10242400D35CD84008BD00BF00100240AC3900089E
:10243400F8B55D4BDB6813F0030F19D05A4BDB681A
:1024440003F003030268934204D00124002C48D013
:102454002046F8BD002A42D0534BDB68C3F3021375
:1024640001334268934201D00124EFE70024EDE7F1
:102474000368022B18D0032B1DD0012B0DD001248F
:10248400002CE3D1484EF26822F073024568013D06
:1024940043EA05131343F360D8E7434A126812F082
:1024A400020F14D00024EBE73F4A126812F4806F45
:1024B4000FD00024E4E73C4A126812F4003F0AD12A
:1024C400394A126812F4802F07D00024D8E7012477
:1024D400D6E70124D4E70024D2E70124D0E701247D
:1024E400B4E70F460546304A136823F0806313604F
:1024F400FFF74EF906462C4B1B6813F0006F05D00E
:10250400FFF746F9801B0228F5D90324002C9FD13C
:1025140047BB25490B6923F0784323F4FE43A8689D
:10252400EA68D20642EA002213430B611E4A13688A
:1025340043F080631360FFF72BF906461A4B1B68C0
:1025440013F0006F05D1FFF723F9801B0228F5D99A
:102554000324002C7FF47CAF134A1369A9690B434D
:10256400136175E7012F0FD00F48026922F0C06292
:1025740022F4FE42A9686B695B08013B5B0643EAEF
:10258400012313430361D1E70748026922F4C0021F
:1025940022F4FE42A9682B695B08013B5B0543EA10
:1025A400012313430361C1E7001002402DE9F04108
:1025B40082B00446036813F4006F24D0C36CB3F5EF
:1025C400000F13D0B3F5400F02D0B3B1012700E0E0
:1025D4000027002F6FD1BD4AD2F8883023F440037E
:1025E400E16C0B43C2F888303E460EE0B74AD3682C
:1025F40043F48033D3600027EBE700210430FFF776
:1026040017FF0746E5E700263746236813F4003F23
:102614006DD0AE4B9B6D13F0805F4ED1AB4B9A6D7A
:1026240042F080529A659B6D03F080530193019BA5
:102634004FF00108A64A136843F480731360FFF750
:10264400A7F80546A24B1B6813F4807F05D1FFF75A
:102654009FF8401B0228F5D90327002F42D19B4B3A
:10266400D3F8903013F4407315D0626E934212D0B5
:10267400964AD2F8903023F44073D2F8901041F483
:102684008031C2F89010D2F8901021F48031C2F851
:102694009010C2F8903013F0010F11D1002F40F0C8
:1026A40013818A4AD2F8903023F44073616E0B434D
:1026B400C2F8903017E03E46A7E74FF00008B9E7AC
:1026C400FFF766F80546814BD3F8903013F0020FFC
:1026D400E4D1FFF75DF8401B41F288339842F2D908
:1026E4000327DBE73E46B8F1000F40F0F380236890
:1026F40013F0010F08D0754AD2F8883023F0030391
:10270400216A0B43C2F88830236813F0020F08D003
:102714006E4AD2F8883023F00C03616A0B43C2F886
:102724008830236813F0040F08D0684AD2F8883040
:1027340023F03003A16A0B43C2F88830236813F0F6
:10274400080F08D0614AD2F8883023F0C003E16A48
:102754000B43C2F88830236813F0200F08D05B4A7B
:10276400D2F8883023F44063216B0B43C2F88830DD
:10277400236813F4007F08D0544AD2F8883023F435
:102784004023616C0B43C2F88830236813F4806FD4
:1027940008D04E4AD2F8883023F44013A16C0B437E
:1027A400C2F88830236813F0400F08D0474AD2F8A3
:1027B400883023F44053616B0B43C2F8883023689C
:1027C40013F0800F08D0414AD2F8883023F44043F4
:1027D400A16B0B43C2F88830236813F4807F08D0C0
:1027E4003A4AD2F8883023F44033E16B0B43C2F801
:1027F4008830236813F4801F08D0344AD2F89C3000
:1028040023F00303216C0B43C2F89C30236813F4B8
:10281400005F0FD02D4AD2F8883023F04063216D39
:102824000B43C2F88830236DB3F1006F58D0B3F175
:10283400806F5AD0236813F4002F0FD0234AD2F8A4
:10284400883023F04063616D0B43C2F88830636DB8
:10285400B3F1006F51D0B3F1806F53D0236813F4F8
:10286400802F0FD0194AD2F8883023F04063A16D2D
:102874000B43C2F88830A36DB3F1006F4AD0B3F1B3
:10288400806F4CD0236813F4804F0CD00F4AD2F8D9
:10289400883023F04053E16D0B43C2F88830E36D78
:1028A400B3F1805F43D0236813F4803F08D0074A14
:1028B400D2F8883023F00043216E0B43C2F88830ED
:1028C400304602B0BDE8F0813E460CE700100240FD
:1028D400007000401A4A936D23F08053936506E715
:1028E400D36843F48013D360A4E70121201DFFF7CC
:1028F4009FFD00289ED006469CE7D36843F48013CE
:10290400D360ABE70121201DFFF792FD0028A5D07D
:102914000646A3E7D36843F48013D360B2E70121EA
:10292400201DFFF785FD0028ACD00646AAE702214A
:10293400201DFFF77DFD0028B5D00646B3E700BF94
:1029440000100240704738B504460268D36823F08B
:10295400A003D360FEF71CFF05462368DB6813F071
:10296400200F07D1FEF714FF401BB0F57A7FF4D98E
:10297400032038BD002038BD38B50368DA6812F08A
:10298400400F01D0002038BD04464FF0FF32DA601A
:10299400FEF7FEFE05462368DB6813F0400F07D1FF
:1029A400FEF7F6FE401BB0F57A7FF4D9032038BD5C
:1029B400002038BD38B5002864D0044690F8213092
:1029C400002B45D0022384F821302368CA225A629E
:1029D400236853225A622046FFF7CEFF054600289B
:1029E4003BD12268936823F4E00323F0400393600F
:1029F40021688A68636820690343A0690343134319
:102A04008B602368E2681A6122681369A16843EA4B
:102A1400014313612268D36823F08003D3602368E1
:102A24009B6813F0200F20D02268D36C23F003039B
:102A3400D3642168CB6CE269606902431343CB64BD
:102A44002368FF225A62012384F82130284638BDC6
:102A540080F82030FFF776FFB4E72368FF225A623C
:102A6400042384F821300125F0E72046FFF76BFFAB
:102A74000028D9D02368FF225A62042384F8213025
:102A84000125E3E70125E1E7002302E001330A38E9
:102A9400C0B20928FAD81B01DBB218437047F8B555
:102AA40090F82030012B7FD00E460446012380F895
:102AB4002030022380F82130002A48D103689B6823
:102AC40013F0400F01D10023CB703078FFF7DCFF07
:102AD40005047078FFF7D8FF45EA0025B078FFF7C2
:102AE400D3FF2843F57840EA05452368CA225A6291
:102AF400236853225A622046FFF73EFF0746002808
:102B040037D1236805F07F3525F0FE451D60226826
:102B1400936823F48023936021688B68F26830699A
:102B2400024313438B602268D36823F08003D3608D
:102B340023689B6813F0200F26D02368FF225A6273
:102B4400012384F82130002384F820302DE0036829
:102B54009B6813F0400F01D10023CB703578707857
:102B6400000240EA0540B5782843F57840EA054577
:102B7400BBE72368FF225A62042384F82130002330
:102B840084F82030012710E02046FFF7DCFE0028FF
:102B9400D3D02368FF225A62042384F8213000230F
:102BA40084F82030012700E002273846F8BD70B5CC
:102BB40090F82030012B6DD0012380F820300223BF
:102BC40080F821303AB94B7813F0100F03D003F09A
:102BD400EF030A334B700E460446002A34D1C878FA
:102BE400FFF752FF05047078FFF74EFF45EA002512
:102BF400B078FFF749FF2843357840EA4535236824
:102C0400CA225A62236853225A622046FFF7B4FE4E
:102C1400064620BB236825F07F4525F0C0055D608E
:102C24002268D36823F08003D36023689B6813F081
:102C3400200F1FD02368FF225A62012384F8213019
:102C4400002384F8203026E048788D78CB78000281
:102C540040EA034028430D7840EA4535CFE723682E
:102C6400FF225A62042384F82130002384F82030A0
:102C7400012610E02046FFF766FE0028DAD023681C
:102C8400FF225A62042384F82130002384F8203080
:102C9400012600E00226304670BD030903EB8303DE
:102CA4005A0000F00F001044C0B2704770B50368BA
:102CB4009B6A4B6003681B69C3F30E038B60036854
:102CC4001B6803F07F3323F0FE431D0C05F03F0027
:102CD4000870C3F306264E7003F07F048C7005F071
:102CE4004005CD705AB90D46FFF7D7FF287030461E
:102CF400FFF7D3FF68702046FFF7CFFFA8700020CE
:102D040070BD70B503685B6823F07F4323F0C00394
:102D1400180CC870C3F304264E7003F03F058D7081
:102D2400C3F342330B705AB90C46FFF7B6FFE07099
:102D34003046FFF7B2FF60702846FFF7AEFFA07081
:102D4400002070BD0268136823F490731360026856
:102D5400936823F001039360202380F872300023EA
:102D64000366704790F87130DBB2212B00D07047B6
:102D7400B0F852309BB26BB10268C36C591CC16489
:102D84001B781385B0F852309BB2013B9BB2A0F87C
:102D94005230ECE70268136823F080031360026882
:102DA400136843F040031360704790F87130DBB24E
:102DB400212B00D07047B0F852309BB283B1C36C62
:102DC40002681B88C3F308031385C36C0233C3640E
:102DD400B0F852309BB2013B9BB2A0F85230E9E705
:102DE4000268136823F0800313600268136843F0D9
:102DF400400313607047D8B138B50446242380F8E3
:102E040071300268136823F001031360036800251E
:102E14001D6003685D6003689D60FEF731FB6567B4
:102E240084F8715084F8725084F87050284638BD84
:102E34000120704790F87130DBB2202B01D00220C2
:102E4400704741B34AB390F87030012B27D0012367
:102E540080F87030C164A0F85020A0F852200023FC
:102E640043664367212380F871308368B3F5805F3C
:102E74000BD00C4B4366002380F8703001680A685D
:102E840042F080020A60184670470369002BF0D1B3
:102E9400054B4366EFE7012070470120704702208D
:102EA400704700BF692D0008AF2D000890F87230FC
:102EB400DBB2202B01D002207047002956D0002A13
:102EC40056D090F87030012B54D0012380F8703024
:102ED4004165A0F85820A0F85A20002303668368AF
:102EE400B3F5805F06D0A3B9036973B9FF23A0F8D3
:102EF4005C3011E0036923B940F2FF13A0F85C30A1
:102F04000AE0FF23A0F85C3006E07F23A0F85C30E1
:102F140002E0B3F1805F19D000234367222380F8D5
:102F240072300268936843F0010393608368B3F5D9
:102F3400805F15D0104B0366002380F87030016861
:102F44000A6842F490720A601846704703691BB914
:102F54007F23A0F85C30DFE73F23A0F85C30DBE799
:102F64000369002BE6D1054B0366E5E701207047B2
:102F74000120704702207047A12F00080530000887
:102F840008B501680A6822F040020A60202280F82D
:102F9400712000224266FEF795FA08BDB0F85C2065
:102FA40090F87230DBB2222B06D00268138B9BB2EE
:102FB40043F008031383704710B50368998C436D7D
:102FC4005C1C4465D2B20A401A70B0F85A309BB205
:102FD400013B9BB2A0F85A3003B110BD02681368DC
:102FE40023F4907313600268936823F001039360E1
:102FF400202380F8723000230366FEF7A1FA10BD87
:1030040008B5B0F85C2090F87230DBB2222B06D001
:103014000268138B9BB243F00803138308BD036853
:10302400998C436D0A401A80436D02334365B0F8AE
:103034005A309BB2013B9BB2A0F85A30002BEDD121
:103044000268136823F4907313600268936823F092
:1030540001039360202380F8723000230366FEF797
:103064006FFA08BD38B504460268D36911689068E0
:1030740013F00F050CD113F0200F09D011F0200F1D
:1030840006D0236E002B00F093802046984738BD6D
:10309400002D6FD010F0010502D111F4907F69D09A
:1030A40013F0010F07D011F4807F04D001201062C7
:1030B400626F0243626713F0020F07D035B12268D2
:1030C40002201062626F42F00402626713F0040F80
:1030D40007D035B1226804201062626F42F0020208
:1030E400626713F0080F09D011F0200F00D12DB141
:1030F400226808201062626F02436267626F002ACE
:1031040056D013F0200F06D011F0200F03D0236EF9
:103114000BB120469847636F13F0080F04D123685E
:103124009B6813F0400F1FD02046FFF70BFE236867
:103134009A6812F0400F13D09A6822F040029A6005
:10314400E36E4BB11D4A9A63E06EFEF78FFB78B3D2
:10315400E06E836B984738BD2046FEF73BFA38BDD6
:103164002046FEF737FA38BD2046FEF733FA00232F
:10317400636738BD13F4801F02D010F4800F0AD1A6
:1031840013F0800F0ED011F0800F0BD0636E7BB163
:103194002046984738BD4FF480131362204600F050
:1031A40004FB38BD13F0400F02D011F0400F00D1E2
:1031B40038BD2046FFF7E4FEFAE700BFC53100083A
:1031C40008B5806A0023A0F85A30A0F85230FEF700
:1031D40001FA08BD2DE9784B044601688368026949
:1031E400134342691343C269134308689B4A02406C
:1031F40013430B602268536823F44053E1680B4384
:103204005360A369226896498A4201D0216A0B431C
:10321400916821F430610B4393602368914A93428F
:1032240023D0914A934234D0904A93424AD0904A50
:1032340093425DD08A4A934270D01025884A9342C3
:1032440000F08F80E369B3F5004F00F0FD80082D96
:1032540000F29B81DFE815F05A0171017B019901AD
:103264008601990199019901900102F55842D2F819
:10327400882002F00302032A09D8DFE802F00204DE
:1032840068060125DAE70425D8E70825D6E71025DE
:10329400D4E702F5E632D2F8882002F00C020C2AB8
:1032A4000ED8DFE802F0070D0D0D090D0D0D560DBA
:1032B4000D0D0B000025C1E70425BFE70825BDE778
:1032C4001025BBE702F5E432D2F8882002F0300280
:1032D400102A09D005D9202A3DD0302A06D1082544
:1032E400ACE71AB90025A9E70425A7E71025A5E747
:1032F40002F5E232D2F8882002F0C002402A09D056
:1033040005D9802A29D0C02A06D1082596E71AB9FA
:10331400002593E7042591E710258FE702F5C832CD
:10332400D2F8882002F44062B2F5806F0BD007D93E
:10333400B2F5006F13D0B2F5406F06D108257DE7D2
:103344001AB900257AE7042578E7102576E70225DF
:1033540074E7022572E7022570E702256EE702256D
:103364006CE7082D11D8DFE805F0081005100C10E3
:10337400101013003F4800260DE0FFF739F800262F
:1033840009E0FEF71BFC002605E00020012602E010
:103394004FF400400026002800F0C980626802EB68
:1033A40042039842C0F0F480B0EB023F00F2F28096
:1033B400082D46D8DFE805F005451F452945454554
:1033C4003B00FFF715F800234FEA10694FEA002885
:1033D4006268500818EB000B49F1000C584661462E
:1033E400FCF7F6FEA0F54072234B9A4200F2D4801B
:1033F4002368D8609BE05508002320480021401929
:1034040041F10001FCF7E4FEECE7FEF7D7FB0023F3
:103414004FEA10694FEA00286268500818EB000B65
:1034240049F1000C58466146FCF7D2FEDAE7500831
:103434000021002310F5000041F10001FCF7C8FE53
:10344400D0E701260020CDE7082D5CD8DFE805F0A1
:1034540018313C5B475B5B5B520000BFF369FFEFD5
:103464000080004000380140004400400048004013
:10347400004C00400024F400FFFC0F00000024F482
:10348400FEF7B6FF6268530803EB4003B3FBF2F3A5
:103494009BB20026A3F110014FF6EF7291427DD842
:1034A4009AB222F00F02C3F3420313432268D3609B
:1034B4003DE0FEF7ADFF6268530803EB4003B3FB46
:1034C400F2F39BB20026E5E76268530803F1F47354
:1034D40003F59043B3FBF2F39BB20026DAE7FEF761
:1034E4006DFB6268530803EB4003B3FBF2F39BB23A
:1034F4000026CFE76268530803F58033B3FBF2F389
:103504009BB20026C6E701260023C3E7FEF770FF3F
:10351400636800EB5300B0FBF3F080B20026A0F127
:1035240010024FF6EF739A423AD82368D86000230A
:10353400236663663046BDE8788BFEF769FF6368EF
:1035440000EB5300B0FBF3F080B20026E7E76368BA
:10355400580800F5740000F51050B0FBF3F080B289
:103564000026DCE7FEF72AFB636800EB5300B0FBA0
:10357400F3F080B20026D2E76368580800F50040F3
:10358400B0FBF3F080B20026C9E701260020C6E7AD
:103594000126CCE70126CAE70126C8E70126C6E7CB
:1035A4000126C4E7436A13F0010F06D0026853688A
:1035B40023F40033816A0B435360436A13F0020F10
:1035C40006D00268536823F48033C16A0B43536006
:1035D400436A13F0040F06D00268536823F480236F
:1035E400016B0B435360436A13F0080F06D0026863
:1035F400536823F40043416B0B435360436A13F055
:10360400100F06D00268936823F48053816B0B4338
:103614009360436A13F0200F06D00268936823F482
:103624000053C16B0B439360436A13F0400F0AD0FD
:103634000268536823F48013016C0B435360036CDA
:10364400B3F5801F0BD0436A13F0800F06D00268D5
:10365400536823F40023816C0B4353607047026862
:10366400536823F4C003416C0B435360EBE72DE92B
:10367400F04105460F4616469846069C2B68DB69C2
:1036840037EA03030CBF01230023B3421ED1B4F174
:10369400FF3FF3D02CB1FEF77BF8A0EB0800844287
:1036A400ECD22A68136823F4D07313602A689368F1
:1036B40023F001039360202385F8713085F872307C
:1036C400002385F870300320BDE8F0810020BDE8B8
:1036D400F08130B583B0044600234367FEF758F801
:1036E400054623681B6813F0080F0ED123681B6876
:1036F40013F0040F17D1202384F8713084F872304A
:10370400002084F8700003B030BD6FF07E43009356
:10371400034600224FF400112046FFF7A8FF0028BB
:10372400E4D00320EFE76FF07E4300932B460022A2
:103734004FF480012046FFF79AFF0028DBD00320D6
:10374400E1E778B310B5044690F871300BB3242345
:1037540084F871302268136823F001031360204653
:10376400FFF738FD01281FD0636ABBB9226853688C
:1037740023F4904353602268936823F02A039360F0
:103784002268136843F0010313602046FFF7A1FF8A
:1037940010BD80F87030FDF747FED8E72046FFF7EC
:1037A40001FFE3E70120704710BD704770B50D4E6F
:1037B4000D4CA41BA4100025A54209D10B4E0C4CA2
:1037C40000F018F8A41BA4100025A54205D170BD73
:1037D40056F8253098470135EEE756F825309847D6
:1037E4000135F2E7EC390008EC390008EC3900083F
:1037F400F0390008F8B500BFF8BC08BC9E46704715
:0C380400F8B500BFF8BC08BC9E46704739
:10381000FFFFFFFF0000000000000000FFFFFFFFB0
:103820000000000000000000FF0000FF0000FF009B
:1038300001FF00000600000B000001000000000076
:103840000000000300010003000200030003000366
:10385000000400030005000302000003020100034E
:10386000000600031505000829050008E80301000B
:103870000000000000000000000000000010000038
:1038800000010000000100000005000000000048E9
:1038900020000000010000000200FF0300080048B3
:1038A00000200000000011100200FF03000000488B
:1038B00001000000020000000200010300000048B7
:1038C000080000000200000002000103000400489C
:1038D00020000000000000000200FF030004004878
:1038E00010000000000000000200FF030004004878
:1038F00000200000010000000200FF03000000485B
:10390000040000000200000002010703000000485C
:103910000800000002000000020107031800000078
:103920000000000000000000000000001000000087
:103930000100000001000000000000006000000025
:10394000020000000100000001000000280000004B
:103950000700000004000000020000000300000057
:103960000000000000000000000000000002000055
:103970000044004000C201000000000000010000FF
:103980001C02002064000000B801002000000000BC
:1039900000000000090D0008000000000000000009
:1039A00000000000010203040607080900000000EF
:1039B00001020304A0860100400D0300801A0600E6
:1039C00000350C0040420F0080841E0000093D00BD
:1039D00000127A000024F40000366E010048E8016D
:0439E000006CDC0299
:0839E40020C8FF7F0100000074
:0439EC00B901000815
:0439F0009501000835
:1039F400FF000001030100000601000007010000B0
:103A040017010000120100001C0100001D0100004C
:103A140025010000260100011F0100002101000012
:0C3A2400230100002401000000093D0007
:04000005080016BD1C
:00000001FF
