:020000040800F2
:1000000000000220D901000835020008350200086E
:100010003502000835020008350200080000000023
:100020000000000000000000000000003502000891
:100030003502000800000000350200083502000803
:1000400035020008350200083502000835020008B4
:1000500035020008350200083502000835020008A4
:100060003502000835020008350200083502000894
:100070003502000835020008350200083502000884
:100080003502000835020008350200083502000874
:100090003502000835020008350200083502000864
:1000A0003502000835020008350200083502000854
:1000B0003502000835020008000000003502000883
:1000C0003502000835020008350200083502000834
:1000D0003502000835020008350200083502000824
:1000E0003502000835020008000000000000000092
:1000F0000000000000000000000000000000000000
:100100000000000035020008000000003502000871
:100110003502000800000000350200080000000061
:1001200035020008350200083502000835020008D3
:100130003502000835020008350200080000000002
:1001400035020008350200083502000835020008B3
:1001500035020008350200083502000835020008A3
:1001600035020008350200083502000800000000D2
:100170000000000035020008000000000000000040
:100180003502000835020008350200083502000873
:04019000350200082C
:1001940010B5054C237833B9044B13B10448AFF3BD
:1001A40000800123237010BD000000200000000027
:1001B400CC02000808B5034B1BB103480349AFF355
:1001C400008008BD00000000CC02000804000020EC
:1001D400FEE700BFDFF840D0002100F004B80F4B69
:1001E4005B58435004310E480E4B42189A42FFF4B8
:1001F400F6AF0D4A00F003B8002342F8043B0B4B62
:100204009A42FFF4F9AF00F015F800F037F8FFF761
:10021400DFFFFFF7FEBF000000000220EC02000831
:100224000000002000000020000000201C0000202E
:10023400FFF7FEBF0F4AD2F8883043F47003C2F8C8
:1002440088300D4B196841F0010119600020986055
:10025400196821F0A85121F4102119604FF480513C
:10026400D960196821F48021196098614FF0006306
:100274009360704700ED00E00010024070B50E4B33
:100284000E4DED1AAD1000241E46AC4204D056F8B3
:10029400242090470134F8E700F016F8084D094B84
:1002A400ED1AAD1000241E46AC4204D056F82420AA
:1002B40090470134F8E770BDE4020008E402000846
:1002C400E8020008E4020008F8B500BFF8BC08BC66
:1002D4009E467047F8B500BFF8BC08BC9E46704700
:0402E400B901000854
:0402E8009501000874
:04000005080001D915
:00000001FF
