:020000040800F2
:1000000000000220B91400082D1000082F1000086D
:1000100031100008331000083510000800000000FF
:100020000000000000000000000000003710000881
:100030000915000800000000391000083B100008F6
:1000400009150008091500080915000843100008E3
:100050000915000809150008451000084710000898
:1000600009150008091500080915000809150008F8
:1000700009150008091500080915000809150008E8
:1000800009150008091500080915000809150008D8
:10009000091500080915000809150008491000088D
:1000A00009150008091500080915000809150008B8
:1000B000831000088510000800000000631000088D
:1000C000091500086B1000080915000873100008D6
:1000D0007B100008531000085B1000080915000889
:1000E00009150008091500080000000000000000C4
:1000F0000000000000000000000000000000000000
:1001000000000000091500080000000009150008A3
:100110000915000800000000091500080000000093
:100120000915000809150008091500080915000837
:10013000091500080915000809150008000000004D
:100140000915000809150008091500080915000817
:100150000915000809150008091500080915000807
:10016000091500080915000809150008000000001D
:100170000000000009150008000000000000000059
:1001800009150008091500080915000809150008D7
:040190000915000845
:1001940010B5054C237833B9044B13B10448AFF3BD
:1001A40000800123237010BD3C00002000000000EB
:1001B4001032000808B5034B1BB103490348AFF3E1
:1001C400008008BD0000000040000020103200083C
:1001D40053B94AB9002908BF00281CBF4FF0FF31AA
:1001E4004FF0FF3000F07AB9ADF1080C6DE904CEA0
:1001F40000F006F8DDF804E0DDE9022304B07047FE
:100204002DE9F0478C460D460446089E002B51D13B
:100214008A4217466DD9B2FA82FEBEF1000F0BD0A6
:10022400CEF1200C01FA0EF520FA0CFC02FA0EF7BE
:100234004CEA050C00FA0EF44FEA174A250CBCFBF5
:10024400FAF81FFA87F90AFB18CC45EA0C4508FBB3
:1002540009F3AB420AD9ED1908F1FF3280F023818A
:10026400AB4240F22081A8F102083D44ED1AA4B249
:10027400B5FBFAF00AFB105544EA054400FB09F902
:10028400A14509D9E41900F1FF3380F00A81A145A1
:1002940040F2078102383C44A4EB090440EA0840D8
:1002A4000021002E61D024FA0EF400233460736020
:1002B400BDE8F0878B4207D9002E54D0002186E890
:1002C40021000846BDE8F087B3FA83F1002940F025
:1002D4008E80AB4202D3824200F2FA80841A65EB2C
:1002E40003050120AC46002E3FD086E81010BDE87F
:1002F400F08712B90127B7FBF2F7B7FA87FEBEF110
:10030400000F34D1EB1B3A0C1FFA87FC0121B3FB1D
:10031400F2F8250C02FB183345EA03450CFB08F3FD
:10032400AB4207D9ED1908F1FF3002D2AB4200F21B
:10033400D1808046ED1AA3B2B5FBF2F002FB105552
:1003440043EA05440CFB00FCA44507D9E41900F179
:10035400FF3302D2A44500F2B8801846A4EB0C0483
:1003640040EA08409DE731463046BDE8F087CEF1CB
:10037400200405FA0EF307FA0EF720FA04F83A0CF3
:1003840025FA04F448EA0308B4FBF2F14FEA1845ED
:1003940002FB11441FFA87FC45EA044501FB0CF3F8
:1003A400AB4200FA0EF409D9ED1901F1FF3080F0E7
:1003B4008A80AB4240F2878002393D44EB1A1FFA2F
:1003C40088F5B3FBF2F002FB103345EA034500FB6A
:1003D4000CF3AB4207D9ED1900F1FF386FD2AB42F1
:1003E4006DD902383D44EB1A40EA01418FE7C1F16F
:1003F400200722FA07F88B4005FA01F448EA0303C0
:1004040020FA07FE4FEA134CFD404EEA040EB5FBFA
:10041400FCF94FEA1E440CFB19551FFA83F844EA11
:10042400054509FB08F4AC4202FA01F200FA01FAAC
:1004340008D9ED1809F1FF3043D2AC4241D9A9F1F2
:1004440002091D442D1B1FFA8EFEB5FBFCF00CFBAC
:1004540010554EEA054400FB08F8A04507D9E418F6
:1004640000F1FF3529D2A04527D902381C4440EABF
:100474000940A4EB0804A0FB02894C45C6464D463E
:1004840015D312D056B1BAEB0E0364EB050404FA8B
:1004940007F7CB401F43CC40376074600021BDE8B0
:1004A400F0871846F8E69046E0E6C245EAD2B8EB93
:1004B400020E69EB03050138E4E72846D7E7404616
:1004C40091E78146BEE7014678E702383C4445E7B8
:1004D400084608E7A8F102083D442BE7704700BF2F
:1004E40008B500F0B2FE00F025FD00F09BFE00F020
:1004F4004BFD00F061FD00F081FF00F0B9FF00F05A
:1005040067FB00F0CDFA00F075F900F021FAFCE782
:1005140030B5ADF20C4D00241F4B1C7000F0F6F802
:100524004FF48062214602A802F068FE2546FF2CA3
:100534000BD82A4602AB03EB8401032000F0B0FB86
:1005440010B901340835F2E7FEE71221032000F068
:1005540015FC00252C4608E00095224600230320C4
:1005640000F0B4FB30B901340835FF2CF4D9002570
:100574002C460AE0FEE72A4602AB03EB8401032083
:1005840000F08EFB30B901340835FF2CF3D90DF29D
:100594000C4D30BDFEE700BF7000002008B50221FD
:1005A400062000F023FC042000F0CFF8C1B2042997
:1005B4002ED8DFE801F02C030E2D0500022127E0E0
:1005C400154B1B78022B23D10021134A11701946B5
:1005D4001EE0114B1B78012B07D0032B0BD0042BEF
:1005E4000FD000220C4B1A7012E00A21052000F0F3
:1005F400C7F80321F5E70121052000F0C1F8042123
:10060400EFE70321052000F0BBF80521E9E701210C
:10061400042000F0B5F808BD700000200D4B03EB7A
:100624008002527813F82030012B08D01BB1022B22
:100634000AD005207047084B995400207047074B97
:1006440023F8121000207047054B43F822100020B5
:10065400704700BF58320008740000208400002056
:100664007C00002030B4224A02EB80035B7812F84D
:100674002020012A14D01AB1022A25D005200DE029
:100684001C4AD25C0A601C4803EB4303C2189478EA
:10069400CC60C35C4B6053788B60002030BC7047E7
:1006A400164A32F813200A60154A5800C5186C001F
:1006B4001519AD88CD60145B4C60034458000244A6
:1006C40053888B600020E9E70E4A52F823200A6021
:1006D4000D4A5800C518AC001519AD68CD60145901
:1006E4004C6003449800024453688B600020D5E7B3
:1006F40058320008740000204032000884000020B2
:10070400283200087C0000202832000810B584B08C
:10071400002409E069462046FFF7A4FF0399204618
:10072400FFF77CFF0134E4B2082CF3D904B010BD08
:1007340000B585B06946FFF795FF20B14FF0FF3053
:1007440005B05DF804FB0098FAE708B5FFF7F0FF81
:1007540008BD70B584B006460D466946FFF782FFB2
:1007640004460199A94203D302998D4200D3294634
:1007740014B1204604B070BD3046FFF74FFFF8E7D0
:1007840008B5FFF7E6FF08BD0023164A1370012BD6
:1007940026D830B4144931F813206FF30D0221F830
:1007A40013205A00D018840010482044847A11443D
:1007B400487864F386106FF3C71048700C49D0185A
:1007C400C5004C190020A081A060485160602061E0
:1007D400012262751344DBB2012BDBD930BC7047B4
:1007E400704700BFB8000020BC0000207C32000825
:1007F4008800002010B5FFF7C7FF002401E0013492
:10080400E4B2012C08D804EB44029300084AD358FC
:10081400002BF4D09847F2E7064C204600F00EFD7A
:100824002368054AA2FB03239B0C236010BD00BF71
:100834007C3200088400002083DE1B430023012B4C
:1008440025D830B403E00133DBB2012B1DD81048A6
:1008540030F81320C2F30D01013161F30D0220F8C9
:10086400132003EB4302D1000A4A0A44127D002AF2
:10087400E9D0084A0A44527D002AE4D005480144DC
:100884004A6802F57A724A60DDE730BC7047704707
:10089400BC00002088000020F0B4114B1A78411AE3
:1008A400104B186891FBF0F10F4E53001344DD0018
:1008B40074196368194461602369B3F1FF3F28BF69
:1008C4000133581C2061775907FB0313B3FBF0F382
:1008D4007351A368994200D9A160F0BC704700BF6E
:1008E400B800002084000020880000202DE9F04199
:1008F400DFF8588098F80010114C4B005818C200CB
:100904002244002757600F4EB568012010750B4430
:100914009A000D4B13445B68984798F80000430015
:100924001918CA0022441775B1680344DA00144444
:10093400637D0BB9BDE8F0812846FFF7ADFFF9E709
:100944008800002010E000E07C320008B80000209D
:1009540070B50024204627E0002A48D1284A32F8FE
:1009640013106FF30D0122F813105A00D118C800A8
:10097400244901448D89224931F81310C1F30D0132
:100984001A449000204A02441289881A854205DAE2
:100994005A001344DA001B4B13449881FFF7A6FF57
:1009A400012060BB022C2AD80134E4B2174A137820
:1009B400013303F001031370114A02EB430252782E
:1009C400D209C9D10E4901EB4301497811F0400F16
:1009D400E7D00B4931F81350C5F30D0559001944FC
:1009E4008E000949314409898D42DADBB4E7044AAF
:1009F40002EB430251786FF3C7115170B5E770BD34
:100A0400BC000020880000207C320008B8000020D0
:100A14008160C2800023438083800380704738B59F
:100A240004460D4600F0F6FAA268A388D55423883C
:100A340001332380A38801339BB2E188B3FBF1F235
:100A440001FB1233A38000F0D1FA38BD38B5044657
:100A540000F0E0FAA2686388D55C2288013A22801B
:100A640001339BB2E188B3FBF1F201FB12336380E3
:100A740000F0BCFA284638BD00887047C388008857
:100A8400181A80B27047884202D2091AC8437047C4
:100A9400401A7047014B1868704700BF6800002077
:100AA40000230BB100207047034A02EB031200211C
:100AB40011720133DBB2F4E75800002010B504468C
:100AC400FFF7E8FF2401024B1851002010BD00BFBE
:100AD4005800002010B50446084B03EB00131B7AA2
:100AE400023BDBB2012B06D9044800EB04100123BE
:100AF4000372002010BDFFF7E1FFF5E75800002066
:100B040038B50446164B03EB00131B7A012B0AD0AD
:100B1400FBB9134902018B5801338B500020012883
:100B240019D0002038BD0E4A0301D518D1580D4BF9
:100B34001868FFF7A8FF6B68984206D303222A724D
:100B4400EB6823B120469847E9E70020E7E7002057
:100B5400E5E70020E3E72046FFF7BCFFE1E700BF3D
:100B6400580000206800002010B5064A13680133BD
:100B74001360002404B110BD2046FFF7C1FF013407
:100B8400E4B2F7E7680000200B4B53F8302003EB86
:100B9400C0004379D15443795A1C817992FBF1F313
:100BA40001FB1323DBB243710279934201D000208D
:100BB40070470820704700BFC000002008B50146F8
:100BC4000020FFF7E1FF08BD081AC00070470000CD
:100BD4002DE9F843264C4FF000636360002626603D
:100BE400244B1F6839463046FFF7EEFFA06001240E
:100BF40005E04FF480330FE001260134E4B2032C06
:100C040033D81D4B1A884FF6FF739A42F1D01B4B11
:100C140003EA8223DB0A1B029F42EDD2144D4FEA02
:100C2400440808EB04029300E818EF5004F1FF3E77
:100C34004FEA4E0303EB0E018A002A4451687344C1
:100C44009A002A4493680B4443600A4B53F82430B7
:100C540007EB030949463846FFF7B6FFA0444FEABD
:100C640088031D44A8604F46C7E73046BDE8F883B3
:100C7400C800002094320008E075FF1F00FC3F000C
:100C840008B500F0DBFD08B9002008BD012008BD4F
:100C940008B500F0BBFD08B9002008BD012008BD5F
:100CA40010B400EB40039C00074B23449B68934221
:100CB40008D3054B23445B68D3580B6000205DF8D0
:100CC400044B70470120FAE7C8000020F8B51F461E
:100CD400069D00EB40039900114B0B449B68AB420B
:100CE40002D201231846F8BD16460446FFF7D0FF8A
:100CF40003460028F6D104EB44008200084B134459
:100D0400596832463B462944002000F003FE18B9D6
:100D1400FFF7B6FF0346E5E7FFF7B2FF0123E1E77C
:100D2400C8000020024B53F82000C0F3072070478E
:100D34009432000800EB400082000C4B13445868C6
:100D44000B4B1A884FF6FF739A420AD0094B03EAF9
:100D5400822303F10063834205D8C01AC0F3C7207D
:100D64007047054BF7E7C0F3C7207047C800002061
:100D7400E075FF1F00FC3F0000000808F0B587B0D5
:100D840007460D4600260596FFF7D4FF044638466D
:100D9400FFF7C8FF019601230293FF2D0AD00444F4
:100DA400A5420ED201230493039500235BB1184698
:100DB40007B0F0BD04903846FFF7BCFF03903346FC
:100DC400F4E70123F2E7FFF763FF03460028EED1BF
:100DD40005A901A800F056FE18B9FFF751FF034614
:100DE400E5E7FFF74DFF0123E1E70000032915D0F4
:100DF40008B50A46022908D0094B00011918898848
:100E0400185800F08BFF002008BD054B00011A188C
:100E14009188185800F087FF002008BD052070470E
:100E2400A432000886B003013C4AD358B3F1904F72
:100E34001FD00301394AD258394B9A4227D00301B3
:100E4400364AD258374B9A422FD00301334AD258EC
:100E5400354B9A4237D00301304AD258334B9A4229
:100E64003FD000012D4B1A58314B9A4247D006B05F
:100E7400704703F1784303F50433DA6C42F001025E
:100E8400DA64DB6C03F001030093009BD1E703F108
:100E9400784303F50333DA6C42F00202DA64DB6C64
:100EA40003F002030193019BC9E703F1784303F5BF
:100EB4000233DA6C42F00402DA64DB6C03F00403FC
:100EC4000293029BC1E703F1784303F50133DA6C23
:100ED40042F00802DA64DB6C03F008030393039B1B
:100EE400B9E703F1784303F50033DA6C42F01002FA
:100EF400DA64DB6C03F010030493049BB1E703F1A1
:100F0400784303F5FA33DA6C42F08002DA64DB6C7E
:100F140003F080030593059BA9E700BFA4320008F2
:100F24000004004800080048000C00480010004875
:100F3400001C004870B586B00024264601E0013448
:100F4400E4B2082C1BD82046FFF76CFF0D4A23019E
:100F5400D518A9880191A9680291297B0491697B1C
:100F64000391A97B059101A9D05800F007FEE97B04
:100F74000329E4D02046FFF739FF0646DFE7304671
:100F840006B070BDA432000810B5002401E001349D
:100F9400E4B20D2C0CD8074B13F9240010F1050F03
:100FA400F5DB03EB84039A78597800F0F5FAEEE761
:100FB400002010BD0000002010B5002401E0013421
:100FC400E4B20D2C0DD8084B03EB8403DB78012B22
:100FD400F5D1054B13F924000028F0DB00F00EFBDB
:100FE400EDE7002010BD00BF00000020084B1B8867
:100FF4009BB2012B06D9064A13889BB2013B9BB2D4
:10100400138070470022024B1A8062B6704700BFFB
:101014006C00002072B6034A13889BB201339BB262
:10102400138070476C0000207047FEE7FEE7FEE780
:10103400FEE77047704708B500F012FB08BD704723
:101044007047704708B5202000F072FE08BD08B54F
:1010540000F020F808BD08B500F01DF808BD08B57B
:1010640000F01EF808BD08B500F01BF808BD08B56F
:1010740000F018F808BD08B500F015F808BD704771
:10108400704708B500F07AFAFFF7D8FBFFF76CFD5C
:1010940008BD7047704708B5002000F09DF908BDF1
:1010A4007047704770477047294B1B6913F4807F62
:1010B40026D1284BD3F8943013F0804F2FD1254BF1
:1010C400D3F8943013F0005F2DD1224BD3F8943031
:1010D40013F0805F2BD11F4BD3F8943013F0806F43
:1010E40029D11C4BD3F8943013F0006F27D1194B3E
:1010F400D3F89430002B26DB0022174B1A7006E03D
:101104004FF48072124B9A610122134B1A70114AE8
:10111400D2F8943043F40003C2F8943070470722A5
:101124000D4B1A70F3E702220B4B1A70EFE7032200
:10113400094B1A70EBE70122074B1A70E7E7042208
:10114400054B1A70E3E70622034B1A70DFE700BF72
:1011540000700040001002406E0000200020704724
:1011640000B599B02C4B1A6807925A6808921A690C
:101174000B92DA680A929A6809925A690C929A69EF
:101184000D92DA690E921A6A0F925A6A11929A6A49
:101194001292DA6A13921A6B14925A6B15929A6B22
:1011A4001692DB6B179307A800F0E8FE18B1012034
:1011B40019B05DF804FB0F230293174B1A6C0392CA
:1011C4005A6C04929A6C0592DB6C0693042102A873
:1011D40001F0BAF908B10120EAE74FF4007000F019
:1011E400BDFD08B10120E3E701F084FA0B4BA3FB3A
:1011F4000030800900F00EFA042000F021FA084BB8
:101204001A6E42F001021A661B6E03F00103019389
:10121400019B0020CCE700BF34330008D34D62109B
:101224000010024008B5FFF73FFFFFF799FF0346A0
:1012340010B9FFF793FF0346184608BD10B50446DE
:1012440001F058FA2060002010BD704782B0036896
:10125400114A934204D0114A93420CD002B0704711
:101264000F4B1A6E42F480421A661B6E03F48043DD
:101274000093009B09E00A4B9A6D42F400329A6590
:101284009B6D03F400330193019B0268136843F0E0
:1012940020031360E2E700BF00380140004400402F
:1012A4000010024003680D4A934203D00C4A934253
:1012B4000AD070470B4B1A6C42F480421A641A6CC1
:1012C40022F480421A647047064B9A6B42F400324F
:1012D4009A639A6B22F400329A63EAE70038014079
:1012E400004400400010024010B582B01A4B93F93C
:1012F400003003EB4303D8000830184B1844043083
:10130400FFF7BAFB68B9144B93F90030C3EB03132E
:10131400DA00134B9A58136823F08003136002B069
:1013240010BD0D4C94F9003003EB4303D800083092
:101334000A4B18440430FFF789FB02A901F8010D98
:1013440094F90030C3EB0313D8000122044B184472
:1013540001F06EFAE3E700BF6F000020F800002000
:101364001801002010B50446164B93F900202C23D5
:10137400154903FB02135B6A43B1144A107898477A
:1013840001221249204601F08FFA10BD02EB4202FD
:10139400D3000F481844FFF771FB30B9094B93F998
:1013A400003008210B4AD154EAE7064B93F9003088
:1013B40003EB4303DA00054B197805481044FFF7A3
:1013C4002EFBDDE76F000020883300089001002029
:1013D400F80000201001002008B5C0EB0012D30073
:1013E400034A10700348184401F03AFB08BD00BFDB
:1013F4006F0000201801002070470000F8B5002499
:101404000CB10020F8BD174A2C2303FB04F3D518B4
:10141400D058154923011B1BDA008B1888506A68C1
:101424005A602A7A9A60AA7ADA606A7A1A61002281
:101434009A610C215961DA6166003319D8000B4FA7
:10144400AA8AA9693844FFF7E3FA2644F000083071
:101454003844AA8929690430FFF7DAFA0134E4B27E
:10146400CEE700BF8833000818010020F8000020F0
:1014740038B500240CB1002038BDC4EB0413DD00E2
:101484000A4B1D44284601F0B4F958B9284601F026
:101494005CFE48B901220649284601F005FA0134E8
:1014A400E4B2E7E7012038BD012038BD180100206F
:1014B40090010020DFF834D0002103E00C4B5B588E
:1014C400435004310B480C4B42189A42F6D30B4A52
:1014D40002E0002342F8043B094B9A42F9D300F09E
:1014E40013F801F067FEFEF7FBFFFEE700000220A1
:1014F4000C340008000000203C0000203C000020C8
:101504001C030020FEE700000F49D1F8883043F4A3
:101514007003C1F888300D4B1A6842F001021A605A
:10152400002098601A6822F0A85222F410221A604F
:101534004FF48052DA601A6822F480221A609861AB
:101544004FF000638B60704700ED00E00010024034
:1015540010B50446074B1868074BA3FB00308009FD
:1015640000F058F8002221464FF0FF3000F014F844
:10157400002010BD38000020D34D6210024A1368C9
:1015840001331360704700BFF8020020014B186854
:10159400704700BFF802002030B4164BDB68C3F379
:1015A4000223C3F10704042C28BF04241D1D062DA7
:1015B40017D9033B012505FA04F4013C2140994065
:1015C40005FA03F3013B1340194300280BDB09011F
:1015D400C9B200F1604000F5614080F8001330BCEE
:1015E40070470023E6E700F00F000901C9B2024B7F
:1015F4001954F4E700ED00E014ED00E0420900F0B6
:101604001F00012303FA00F0014B43F82200704746
:1016140000E100E00138B0F1807F0AD2064B586047
:10162400F021064A82F823100020986007221A60ED
:1016340070470120704700BF10E000E000ED00E0BB
:10164400042805D0054A136823F004031360704787
:10165400024A136843F004031360704710E000E08B
:1016640008B5FFF70EFD08BD08B590F82530DBB2CC
:10167400022B03D00423C363012008BD026813684E
:1016840023F00E0313600268136823F00103136050
:10169400016C436C012202FA03F34B6080F82520AD
:1016A400002380F82430836B13B19847002008BDD1
:1016B400002008BD424B1B6913F0020F04D0414ABD
:1016C400536843F0010353603D4B1B6913F0080F4B
:1016D40004D03C4A536843F002035360384B1B69FF
:1016E40013F0100F04D0374A536843F004035360D7
:1016F400334B1B6913F0200F04D0324A536843F074
:10170400080353602E4B1B6913F0400F04D02D4A7D
:10171400536843F010035360294B1B6913F0800F87
:1017240004D0284A536843F020035360244B1B69B8
:1017340013F4807F04D0234A536843F0400353607A
:101744001F4B1B6913F4007F04D01E4A536843F0F7
:10175400800353601A4B1B6913F4804F04D0194A59
:10176400536843F480735360154B1B6913F4004FA3
:1017740004D0144A536843F400735360104B9B69BC
:10178400002B16DB0E4B1B6913F4003F08D00D4AE7
:10179400536843F4006353604FF40032084B1A61FA
:1017A400074B9A6942F000429A614CF2FA321A618C
:1017B4007047044A536843F480635360E2E700BF10
:1017C40000200240FC02002010B4054C616941F085
:1017D40001016161026043605DF8044B704700BF22
:1017E40000200240084A536943F48023536172B6CF
:1017F40040230A680260013B0430043113F0FF0304
:10180400F7D162B6704700BF00200240094B5B6904
:10181400002B01DB00207047064B074A9A6002F157
:1018240088329A605B69002B01DB0020704701203D
:10183400704700BF0020024023016745034A5369F3
:1018440043F0004353610020704700BF0020024072
:1018540038B50446FFF79AFE05462D4B1B6913F471
:10186400803F09D0B4F1FF3FF7D0FFF78FFE401B54
:101874008442F2D8032038BD254B1B6913F0020FB4
:101884003FD1234B1B6913F0080F3AD1204B1B693E
:1018940013F0100F35D11E4B1B6913F0200F30D1FC
:1018A4001B4B1B6913F0400F2BD1194B1B6913F011
:1018B400800F26D1164B1B6913F4807F21D1144B62
:1018C4001B6913F4007F1CD1114B1B6913F4804F67
:1018D40017D10F4B1B6913F4004F12D10C4B9B69AA
:1018E400002B0EDB0A4B1B6913F4003F09D1084B94
:1018F4001B6913F0010F08D00122054B1A61002067
:1019040038BDFFF7D7FE012038BD002038BD00BF29
:10191400002002402DE9F041284C2478012C03D109
:1019240002242046BDE8F081984617460E46054637
:101934000122224B1A704CF25030FFF789FF044603
:1019440008BB00221D4B5A601D4B1B6813F4806FAB
:101954001DD01B4A136823F4806313600222174BC3
:101964001A77C5B16B1E012B1CD900254CF25030DF
:10197400FFF76EFF044625B1114A536923EA0505B2
:10198400556100F047F800220C4B1A70C9E7002299
:101994000A4B1A77E5E73A4643463046FFF714FF09
:1019A4000125E3E739463046FFF71CFF022D01D03D
:1019B4000025DBE74FF48025D8E700BFFC020020B8
:1019C4000020024010F0010F04D0054A536943F08F
:1019D40004035361024A536943F4803353617047EB
:1019E400002002400A4B5A6922F4FF624FF4FF615F
:1019F40091FAA1F1B1FA81F18840104358615A6912
:101A040042F002025A615A6942F480325A617047C4
:101A140000200240194B1B7FDBB2012B1FD0174B58
:101A24001B7FDBB2032B1AD0144B1B7FDBB2022BC0
:101A340004D0124B1B7FDBB2032B0CD1104B1A6862
:101A440042F480521A601A6822F480521A601A68AA
:101A540042F480621A600022084B1A777047084BE0
:101A64001A6842F400621A601A6822F400621A606A
:101A74001A6842F400721A60D6E700BFFC02002024
:101A840000200240F8B53B4B1B78012B02D1022702
:101A94003846F8BD0E4604460122364B1A704CF205
:101AA4005030FFF7D5FE074600285ED10022314BA7
:101AB4005A60314B1B6813F4007F33D02E4B1A68E5
:101AC40022F400721A601B6813F4806F26D02A4A2D
:101AD400136823F4806313600322264B1A77236868
:101AE400012B31D04FF0FF333360A568A368E2685F
:101AF40013449D4237D261682846FFF773FF4CF2C6
:101B04005030FFF7A5FE1C4A536923F4FF6323F00A
:101B140002035361074628BB0135E7E70122154B51
:101B24001A77DCE7144B1B6813F4806F08D0124A51
:101B3400136823F48063136002220E4B1A77CEE7F6
:101B440000220C4B1A77CAE76068FFF73BFF4CF2A0
:101B54005030FFF77DFE0746074A536923F004031C
:101B6400536100E03560FFF755FF0022014B1A7006
:101B74008EE700BFFC02002000200240F0B583B0D5
:101B840000238CE0DE08083650F8264003F0070EE8
:101B94004FEA8E0E0F2707FA0EF724EA07040F699F
:101BA40007FA0EF73C4340F8264087E08668264053
:101BB400CF6807FA0EF73E438660466826EA0505B5
:101BC4004E68C6F300169E4035434560C5682C40F8
:101BD4008D6805FA0EF52C43C4604C6814F0805FE0
:101BE4005CD04A4C256E45F001052566246E04F050
:101BF40001040194019C9D08AE1C454C54F82640F8
:101C040003F00306B6000F27B74024EA0704B0F137
:101C1400904F70D03F4FB8426FD007F58067B842FD
:101C24006DD007F58067B8426BD007F58067B8427E
:101C34005FD0072707FA06F634430235344E46F8D8
:101C44002540354C2568D44305EA04064F6817F44B
:101C5400803F01D042EA05062F4D2E606D6804EAEC
:101C640005064F6817F4003F01D042EA05062A4DE5
:101C74006E60AD6804EA05064F6817F4801F01D052
:101C840042EA0506244DAE60ED682C404E6816F419
:101C9400001F01D042EA05041F4AD46001330A68D8
:101CA40032FA03F42FD001259D402A40F6D04C6827
:101CB400022C3FF467AF122C3FF464AF06684FEA7E
:101CC400430E032404FA0EF4E44326404F6807F05D
:101CD400030707FA0EF73E4306604E68771E012F8E
:101CE4007FF664AF112E3FF461AF122E7FF46EAF16
:101CF4005CE704279EE700279CE701279AE7022771
:101D040098E7032796E703B0F0BD00BF0010024038
:101D14000000014000040048000401400AB9816247
:101D240070478161704743695940416170470000C1
:101D340008B5054B5B69034200D108BD024B5861ED
:101D4400FFF7A7F9F9E700BF00040140024B186848
:101D540000F4C060704700BF00700040B0F5007F21
:101D64000FD0204B1B6803F4C063B3F5806F37D0EA
:101D74001C4A136823F4C06343F480631360002097
:101D84007047184B1B6803F4C063B3F5007F23D07E
:101D9400144A136823F4C06343F400731360124BB2
:101DA4001B6802F1467202F55B3202F28322A2FB47
:101DB40003239A0C322303FB02F300E0013B23B11B
:101DC400084A526912F4806FF8D1064B5B6913F428
:101DD400806F03D0032070470020704700207047B5
:101DE40000207047007000403800002030B583B0F8
:101DF4000546204B9B6D13F0805F0BD0FFF7A6FFC9
:101E0400B0F5007F17D0802D1FD82DD0702D2DD088
:101E140000211BE0174CA36D43F08053A365A36D11
:101E240003F080530193019BFFF790FFA36D23F010
:101E34008053A365E4E7802D03D9A02D03D90221A3
:101E440004E0002102E0012100E003210A4A1368B2
:101E540023F007030B431360136803F0070399424D
:101E640006D0012003B030BD0221EFE70121EDE7E8
:101E74000020F7E700100240002002403B4B9B6823
:101E840013F00C0F1AD0394B9B6803F00C030C2B86
:101E94000ED0364B9B6803F00C03042B2FD0334B2E
:101EA4009B6803F00C03082B2CD00020014618E09B
:101EB4002E4BDB6803F00303012BEAD12B4B1B6889
:101EC40013F0080F14D1294BD3F89430C3F3032330
:101ED400274A52F82310254B9B6813F00C0F0CD0A3
:101EE4000020224A936803F00C030C2B0DD070479A
:101EF4001E4B1B68C3F30313EAE70846F1E71D48CA
:101F04000021EEE71C480021EBE71346D26802F0FB
:101F14000302DB68C3F302130133022A0AD0032A43
:101F24001AD0B1FBF3F3114AD068C0F3062000FBCA
:101F340003F008E00F48B0FBF3F30C4AD068C0F399
:101F4400062000FB03F0094BDB68C3F34163013354
:101F54005B00B0FBF3F0CAE70748B0FBF3F3034AB6
:101F6400D068C0F3062000FB03F0ECE70010024049
:101F7400CC3300080024F40000127A0070B582B05B
:101F84000446036813F0100F3FD0974B9B6813F07F
:101F94000C0F40F09280944B1B6813F0020F03D097
:101FA4008369002B00F0C082206A8F4B1B6813F0FA
:101FB400080F62D08C4B1B6803F0F003834263D29A
:101FC400FFF714FF002840F0B182874B1A6842F0F3
:101FD40008021A601A6822F0F002216A0A431A60A1
:101FE4005A6822F47F42E16942EA01225A60FFF70B
:101FF40045FF7D4B9B68C3F303137C4AD35CD840F5
:102004007B4B18600020FFF7A3FA236813F0010F3D
:1020140000F0A180744B9B6803F00C03082B00F0C4
:102024009180714B9B6803F00C030C2B00F08380B0
:102034006368B3F5803F00F0B580B3F5A02F00F0DE
:10204400B780694B1A6822F480321A601A6822F445
:1020540080221A606368002B00F0B780FFF796FABD
:102064000546614B1B6813F4003F74D1FFF78EFAE9
:10207400401B6428F5D903205FE25B4BD3F894300E
:102084001B0903F0F00399E7574B1A6842F0080262
:102094001A601A6822F0F002216A0A431A605A6828
:1020A40022F47F42E16942EA01225A60206AFFF782
:1020B4009DFE00289BD001203FE2836933B34A4A46
:1020C400136843F001031360FFF760FA0546464BBB
:1020D4001B6813F0020F06D1FFF758FA401B0228C1
:1020E400F5D9032029E2404B1A6842F008021A602D
:1020F4001A6822F0F002216A0A431A605A6822F42C
:102104007F42E16942EA01225A607EE7364A136857
:1021140023F001031360FFF739FA0546324B1B68BD
:1021240013F0020F3FF471AFFFF730FA401B02289F
:10213400F4D9032001E22C4BDB6803F00303032BE7
:102144007FF476AF284B1B6813F4003F03D0636819
:10215400002B00F0ED81236813F0020F61D0224BB5
:102164009B6803F00C03042B4AD01F4B9B6803F0BD
:102174000C030C2B3ED0E368002B78D01A4A13686A
:1021840043F480731360FFF701FA0546164B1B688E
:1021940013F4806F62D1FFF7F9F9401B0228F5D9D7
:1021A4000320CAE1104A136843F48033136051E7F3
:1021B40003F18043A3F53C331A6842F480221A6089
:1021C4001A6842F480321A6044E7FFF7DFF90546E3
:1021D400054B1B6813F4003FBDD0FFF7D7F9401B34
:1021E4006428F5D90320A8E100100240B4330008A4
:1021F40038000020B14BDB6803F00303022BBAD193
:10220400AE4B1B6813F4806F03D0E368002B00F01F
:102214009181AA4A536823F0FE43216943EA01638A
:102224005360236813F0080F4CD063699BB3A34A2F
:10223400D2F8943043F00103C2F89430FFF7A6F9C2
:1022440005469E4BD3F8943013F0020F3AD1FFF7B2
:102254009DF9401B0228F4D903206EE1974A536884
:1022640023F0FE43216943EA01635360D9E7934AAB
:10227400136823F480731360FFF788F905468F4BC6
:102284001B6813F4806FCCD0FFF780F9401B022841
:10229400F5D9032051E1894AD2F8943023F001039F
:1022A400C2F89430FFF772F90546844BD3F89430A2
:1022B40013F0020F06D0FFF769F9401B0228F4D986
:1022C40003203AE1236813F0040F7AD07B4B9B6D13
:1022D40013F0805F36D1794B9A6D42F080529A6543
:1022E4009B6D03F080530193019B0125744B1B6884
:1022F40013F4807F28D0A368012B39D0052B3FD05D
:102304006E4BD3F8902022F00102C3F89020D3F84A
:10231400902022F00402C3F89020A368002B3DD043
:10232400FFF734F90646654BD3F8903013F0020FEB
:1023340046D1FFF72BF9801B41F288339842F2D93A
:102344000320FAE00025D1E75D4A136843F4807363
:102354001360FFF71BF90646594B1B6813F4807F83
:10236400C9D1FFF713F9801B0228F5D90320E4E053
:10237400524AD2F8903043F00103C2F89030CCE7CF
:102384004E4BD3F8902042F00402C3F89020D3F8C7
:10239400902042F00102C3F89020BEE7FFF7F6F860
:1023A4000646464BD3F8903013F0020F08D0FFF7DF
:1023B400EDF8801B41F288339842F2D90320BCE047
:1023C400E5B9236813F0200F35D0636AE3B13B4AC3
:1023D400D2F8983043F00103C2F89830FFF7D6F8EA
:1023E4000546364BD3F8983013F0020F23D1FFF78C
:1023F400CDF8401B0228F4D903209EE02F4A936DA8
:1024040023F080539365DCE72C4AD2F8983023F00C
:102414000103C2F89830FFF7B9F80546274BD3F803
:10242400983013F0020F06D0FFF7B0F8401B0228D3
:10243400F4D9032081E0A36A002B7DD01F4A92685F
:1024440002F00C020C2A7AD0022B23D01B4B1A6800
:1024540022F080721A601B6813F0006F04D1174ACF
:10246400D36823F00303D360144AD36823F088733A
:1024740023F48033D360FFF789F804460F4B1B68BD
:1024840013F0007F4ED0FFF781F8001B0228F5D926
:10249400032052E0094A136823F080731360FFF7A6
:1024A40075F80546054B1B6813F0007F0AD0FFF74B
:1024B4006DF8401B0228F5D903203EE000100240CD
:1024C40000700040236B5A1E636B1B0243EA021325
:1024D400E26A1343E26B5208013A43EA4253226C24
:1024E4005208013A43EA4263A26B43EAC263154AC3
:1024F400D360136843F080731360D36843F0807330
:10250400D360FFF743F804460E4B1B6813F0007FBB
:1025140006D1FFF73BF8001B0228F5D903200CE095
:1025240000200AE0002008E0012006E0012004E089
:10253400012002E0012000E0002002B070BD012073
:10254400FBE700BF00100240664B1B6803F0070363
:102554008B420CD2634A136823F007030B431360C6
:10256400136803F00703994201D00120704770B546
:102574000D460446036813F0010F6CD04368032B27
:102584000AD0022B2DD0002B32D1574A126812F0F8
:10259400020F07D1012070BD534A126812F0007F68
:1025A40000F09E8050498A6822F0030213438B6036
:1025B400FEF7ECFF06466368032B20D0022B2DD0D8
:1025C400002B3AD0484B9B6803F00C03042B42D0F9
:1025D400FEF7DCFF801B41F288339842F2D90320D6
:1025E40070BD414A126812F4003FDBD1012070BD76
:1025F4003D4A126812F4806FD4D1012070BD3A4B69
:102604009B6803F00C030C2B25D0FEF7BFFF801B47
:1026140041F288339842F2D9032070BD324B9B6853
:1026240003F00C03082B16D0FEF7B0FF801B41F219
:1026340088339842F2D9032070BD2B4B9B6813F06A
:102644000C0F08D0FEF7A2FF801B41F2883398429A
:10265400F3D9032070BD236813F0020F06D0224A79
:10266400936823F0F003A1680B4393601D4B1B6830
:1026740003F007039D420CD21A4A136823F00703A0
:102684002B431360136803F007039D4201D001201C
:1026940070BD236813F0040F06D0134A936823F423
:1026A400E063E1680B439360236813F0080F07D0DD
:1026B4000D4A936823F46053216943EAC10393608C
:1026C400FFF7DCFB084B9B68C3F30313074AD35C97
:1026D400D840074B18600020FEF73AFF002070BD79
:1026E400012070BD0020024000100240B4330008F5
:1026F40038000020014B1868704700BF38000020E4
:1027040008B5FFF7F7FF044B9B68C3F30223034AA2
:10271400D35CD84008BD00BF00100240C433000899
:1027240008B5FFF7E7FF044B9B68C3F3C223034AD2
:10273400D35CD84008BD00BF00100240C433000879
:102744000268136823F4907313600268936823F09B
:1027540001039360202380F87230002303667047DE
:1027640090F87130DBB2212B00D07047B0F85230B2
:102774009BB26BB10268C36C591CC1641B7813858E
:10278400B0F852309BB2013B9BB2A0F85230ECE758
:102794000268136823F0800313600268136843F02F
:1027A40040031360704790F87130DBB2212B00D0E6
:1027B4007047B0F852309BB283B1C36C02681B8877
:1027C400C3F308031385C36C0233C364B0F85230F7
:1027D4009BB2013B9BB2A0F85230E9E70268136850
:1027E40023F0800313600268136843F0400313600E
:1027F4007047D8B138B50446242380F87130026894
:10280400136823F001031360036800251D60036847
:102814005D6003689D60FEF745FD656784F871504F
:1028240084F8725084F87050284638BD01207047EF
:1028340090F87130DBB2202B01D00220704741B3F5
:102844004AB390F87030012B27D0012380F8703000
:10285400C164A0F85020A0F85220002343664367C7
:10286400212380F871308368B3F5805F0BD00C4B63
:102874004366002380F8703001680A6842F08002E1
:102884000A60184670470369002BF0D1054B436674
:10289400EFE701207047012070470220704700BF16
:1028A40065270008AB27000890F87230DBB2202BB4
:1028B40001D002207047002956D0002A56D090F843
:1028C4007030012B54D0012380F870304165A0F89A
:1028D4005820A0F85A20002303668368B3F5805F6C
:1028E40006D0A3B9036973B9FF23A0F85C3011E0E3
:1028F400036923B940F2FF13A0F85C300AE0FF2318
:10290400A0F85C3006E07F23A0F85C3002E0B3F16D
:10291400805F19D000234367222380F87230026855
:10292400936843F0010393608368B3F5805F15D027
:10293400104B0366002380F8703001680A6842F483
:1029440090720A601846704703691BB97F23A0F888
:102954005C30DFE73F23A0F85C30DBE70369002B42
:10296400E6D1054B0366E5E7012070470120704777
:10297400022070479D290008012A000808B5016853
:102984000A6822F040020A60202280F871200022A6
:102994004266FEF7A9FC08BDB0F85C2090F87230DE
:1029A400DBB2222B06D00268138B9BB243F00803E0
:1029B4001383704710B50368998C436D5C1C4465A0
:1029C400D2B20A401A70B0F85A309BB2013B9BB2A3
:1029D400A0F85A3003B110BD0268136823F4907351
:1029E40013600268936823F001039360202380F846
:1029F400723000230366FEF7B5FC10BD08B5B0F8CD
:102A04005C2090F87230DBB2222B06D00268138B64
:102A14009BB243F00803138308BD0368998C436D8C
:102A24000A401A80436D02334365B0F85A309BB2B2
:102A3400013B9BB2A0F85A30002BEDD10268136819
:102A440023F4907313600268936823F00103936086
:102A5400202380F8723000230366FEF783FC08BD50
:102A640038B504460268D3691168906813F00F05FD
:102A74000CD113F0200F09D011F0200F06D0236ED3
:102A8400002B00F099802046984738BD002D70D067
:102A940010F0010502D111F4907F6AD013F0010FF8
:102AA40007D011F4807F04D001201062626F0243CA
:102AB400626713F0020F07D035B12268022010625A
:102AC400626F42F00402626713F0040F07D035B15D
:102AD400226804201062626F42F00202626713F0FF
:102AE400080F09D011F0200F00D12DB12268082061
:102AF4001062626F02436267626F002A5CD013F057
:102B0400200F06D011F0200F03D0236E0BB1204606
:102B14009847636F13F0080F04D123689B6813F080
:102B2400400F20D02046FFF70BFE23689A6812F06E
:102B3400400F14D09A6822F040029A60E36E53B1B9
:102B4400204A9A63E06EFEF78FFD002834D0E06ED1
:102B5400836B984738BD2046FEF74EFC38BD2046AF
:102B6400FEF74AFC38BD2046FEF746FC00236367A7
:102B740038BD13F4801F02D010F4800F0AD113F073
:102B8400800F13D011F0800F10D0636EA3B12046D4
:102B9400984738BD4FF480131362202384F87130B2
:102BA40084F87230204600F004FB38BD13F0400F67
:102BB40002D011F0400F00D138BD2046FFF7DEFEF1
:102BC400FAE700BFCD2B000808B5806A0023A0F8FF
:102BD4005A30A0F85230FEF70FFC08BD2DE9784BAF
:102BE4000446016883680269134342691343C26956
:102BF400134308689B4A024013430B6022685368DE
:102C040023F44053E1680B435360A3692268964957
:102C14008A4201D0216A0B43916821F430610B434D
:102C240093602368914A934223D0914A934234D0CB
:102C3400904A93424AD0904A93425DD08A4A934242
:102C440070D01025884A934200F08F80E369B3F571
:102C5400004F00F0FD80082D00F29B81DFE815F0A5
:102C64005A0171017B019901860199019901990128
:102C7400900102F55842D2F8882002F00302032A98
:102C840009D8DFE802F0020468060125DAE7042522
:102C9400D8E70825D6E71025D4E702F5E632D2F8BE
:102CA400882002F00C020C2A0ED8DFE802F0070D8F
:102CB4000D0D090D0D0D560D0D0D0B000025C1E771
:102CC4000425BFE70825BDE71025BBE702F5E4327C
:102CD400D2F8882002F03002102A09D005D9202A1F
:102CE4003DD0302A06D10825ACE71AB90025A9E75A
:102CF4000425A7E71025A5E702F5E232D2F88820DB
:102D040002F0C002402A09D005D9802A29D0C02A5D
:102D140006D1082596E71AB9002593E7042591E71B
:102D240010258FE702F5C832D2F8882002F44062F9
:102D3400B2F5806F0BD007D9B2F5006F13D0B2F59E
:102D4400406F06D108257DE71AB900257AE70425E6
:102D540078E7102576E7022574E7022572E7022555
:102D640070E702256EE702256CE7082D11D8DFE82D
:102D740005F0081005100C10101013003F48002631
:102D84000DE0FFF7BDFC002609E0FFF777F8002609
:102D940005E00020012602E04FF400400026002850
:102DA40000F0C980626802EB42039842C0F0F480EC
:102DB400B0EB023F00F2F280082D46D8DFE805F0C0
:102DC40005451F45294545453B00FFF799FC002370
:102DD4004FEA10694FEA00286268500818EB000BAC
:102DE40049F1000C58466146FDF7F2F9A0F540722E
:102DF400234B9A4200F2D4802368D8609BE05508A4
:102E0400002320480021401941F10001FDF7E0F9B9
:102E1400ECE7FFF733F800234FEA10694FEA002884
:102E24006268500818EB000B49F1000C58466146E3
:102E3400FDF7CEF9DAE750080021002310F5000071
:102E440041F10001FDF7C4F9D0E701260020CDE7E8
:102E5400082D5CD8DFE805F018313C5B475B5B5B11
:102E6400520000BFF369FFEF0080004000380140CA
:102E74000044004000480040004C00400024F4009E
:102E8400FFFC0F00000024F4FFF73AFC62685308CB
:102E940003EB4003B3FBF2F39BB20026A3F1100152
:102EA4004FF6EF7291427DD89AB222F00F02C3F32B
:102EB400420313432268D3603DE0FFF731FC6268AC
:102EC400530803EB4003B3FBF2F39BB20026E5E7A0
:102ED4006268530803F1F47303F59043B3FBF2F310
:102EE4009BB20026DAE7FEF7C9FF6268530803EBDA
:102EF4004003B3FBF2F39BB20026CFE762685308AA
:102F040003F58033B3FBF2F39BB20026C6E7012638
:102F14000023C3E7FFF7F4FB636800EB5300B0FB47
:102F2400F3F080B20026A0F110024FF6EF739A423C
:102F34003AD82368D8600023236663663046BDE828
:102F4400788BFFF7EDFB636800EB5300B0FBF3F005
:102F540080B20026E7E76368580800F5740000F5BE
:102F64001050B0FBF3F080B20026DCE7FEF786FFDA
:102F7400636800EB5300B0FBF3F080B20026D2E7A5
:102F84006368580800F50040B0FBF3F080B20026F7
:102F9400C9E701260020C6E70126CCE70126CAE7D7
:102FA4000126C8E70126C6E70126C4E7436A13F0F1
:102FB400010F06D00268536823F40033816A0B437F
:102FC4005360436A13F0020F06D00268536823F477
:102FD4008033C16A0B435360436A13F0040F06D075
:102FE4000268536823F48023016B0B435360436AE4
:102FF40013F0080F06D00268536823F40043416BB2
:103004000B435360436A13F0100F06D002689368B1
:1030140023F48053816B0B439360436A13F0200FB6
:1030240006D00268936823F40053C16B0B4393608A
:10303400436A13F0400F0AD00268536823F48013E4
:10304400016C0B435360036CB3F5801F0BD0436AD0
:1030540013F0800F06D00268536823F40023816CB8
:103064000B43536070470268536823F4C003416CF8
:103074000B435360EBE72DE9F04105460F46164636
:103084009846069C2B68DB6937EA03030CBF0123CF
:103094000023B3421ED1B4F1FF3FF3D02CB1FEF7AD
:1030A40075FAA0EB08008442ECD22A68136823F472
:1030B400D07313602A68936823F00103936020237C
:1030C40085F8713085F87230002385F8703003205C
:1030D400BDE8F0810020BDE8F08130B583B004463E
:1030E40000234367FEF752FA054623681B6813F072
:1030F400080F0ED123681B6813F0040F17D1202387
:1031040084F8713084F87230002084F8700003B0C1
:1031140030BD6FF07E430093034600224FF400114C
:103124002046FFF7A8FF0028E4D00320EFE76FF064
:103134007E4300932B4600224FF480012046FFF784
:103144009AFF0028DBD00320E1E778B310B50446EA
:1031540090F871300BB3242384F87130226813681B
:1031640023F0010313602046FFF738FD01281FD028
:10317400636ABBB92268536823F49043536022689E
:10318400936823F02A0393602268136843F00103D1
:1031940013602046FFF7A1FF10BD80F87030FEF7E2
:1031A40055F8D8E72046FFF701FFE3E70120704711
:1031B40010BD704770B50D4E0D4CA41BA410002516
:1031C400A54209D10B4E0C4C00F020F8A41BA4100E
:1031D4000025A54205D170BD56F825309847013524
:1031E400EEE756F8253098470135F2E70434000835
:1031F4000434000804340008083400080244034678
:10320400934200D1704703F8011BF9E7F8B500BFFA
:10321400F8BC08BC9E467047F8B500BFF8BC08BCB3
:043224009E4670470B
:10322800FFFFFFFF0000000000000000FFFFFFFF9E
:103238000000000000000000FF0000FF0000FF0089
:1032480001FF00000600000B000001000000000064
:103258000000000300010003000200030003000354
:10326800000400030005000302000003020100033C
:103278000006000315050008A1050008E803010081
:103288000000000000000000000000000010000026
:1032980000010000000100000005000000000048D7
:1032A80020000000010000000200FF0300080048A1
:1032B80000200000000011100200FF030000004879
:1032C80001000000020000000200010300000048A5
:1032D800080000000200000002000103000400488A
:1032E80020000000000000000200FF030004004866
:1032F80010000000000000000200FF030004004866
:1033080000200000010000000200FF030000004848
:10331800040000000200000002010703000000484A
:10332800080000000200000002010703100000006E
:103338000000000000000000000000001000000075
:103348000000000001000000000000006000000014
:103358000200000001000000010000002800000039
:103368000700000004000000020000000300000045
:103378000000000000000000000000000000000045
:103388000044004000C201000000000000010000ED
:10339800F8010020640000009401002000000000F3
:1033A80000000000C10B0008000000000000000041
:1033B80000000000010203040607080900000000DD
:1033C80001020304A0860100400D0300801A0600D4
:1033D80000350C0040420F0080841E0000093D00AB
:1033E80000127A000024F40000366E010048E8015B
:0433F800006CDC0287
:0833FC0008CEFF7F0100000074
:04340400B901000802
:043408009501000822
:10340C00FF0000010301000006010000070100009D
:10341C0017010000120100001C0100001D0100003A
:10342C0025010000260100011F0100002101000000
:0C343C00230100002401000000093D00F5
:04000005080014B922
:00000001FF
