:020000040800F2
:1000000000000220A10B00088509000887090008EC
:10001000890900088B0900088D090008000000000C
:100020000000000000000000000000008F09000830
:10003000F10B000800000000910900089309000876
:10004000F10B0008F10B0008F10B00089B090008F8
:10005000F10B0008F10B00089D0900089F0900083A
:10006000F10B0008F10B0008F10B0008F10B000880
:10007000F10B0008F10B0008F10B0008F10B000870
:10008000F10B0008F10B0008F10B0008F10B000860
:10009000F10B0008F10B0008F10B0008A1090008A2
:1000A000F10B0008F10B0008F10B0008F10B000840
:1000B000DB090008DD09000800000000BB0900089A
:1000C000F10B0008C3090008F10B0008CB09000878
:1000D000D3090008AB090008B3090008F10B0008B8
:1000E000F10B0008F10B0008000000000000000008
:1000F0000000000000000000000000000000000000
:1001000000000000F10B000800000000F10B0008E7
:10011000F10B000800000000F10B000800000000D7
:10012000F10B0008F10B0008F10B0008F10B0008BF
:10013000F10B0008F10B0008F10B000800000000B3
:10014000F10B0008F10B0008F10B0008F10B00089F
:10015000F10B0008F10B0008F10B0008F10B00088F
:10016000F10B0008F10B0008F10B00080000000083
:1001700000000000F10B000800000000000000007B
:10018000F10B0008F10B0008F10B0008F10B00085F
:04019000F10B000867
:1001940010B5054C237833B9044B13B10448AFF3BD
:1001A40000800123237010BD3C00002000000000EB
:1001B4002019000808B5034B1BB103490348AFF3EA
:1001C400008008BD00000000400000202019000845
:1001D40008B500F0E2FC00F043F900F075FB00F014
:1001E400C9FC00F09BFB00F0B1FB00F055FA00F0F5
:1001F400E5F9FCE708B50022024B1A7000F0BCF8E0
:1002040008BD00BF6D00002008B50221062000F0E3
:10021400B7FA042000F0CFF8C1B204292ED8DFE8E1
:1002240001F02C030E2D0500022127E0154B1B784D
:10023400022B23D10021134A117019461EE0114BE1
:100244001B78012B07D0032B0BD0042B0FD00022DB
:100254000C4B1A7012E00A21052000F0C7F80321A4
:10026400F5E70121052000F0C1F80421EFE703219F
:10027400052000F0BBF80521E9E70121042000F086
:10028400B5F808BD6D0000200D4B03EB80025278D9
:1002940013F82030012B08D01BB1022B0AD0052003
:1002A4007047084B995400207047074B23F81210ED
:1002B40000207047054B43F822100020704700BF10
:1002C40068190008700000208000002078000020D9
:1002D40030B4224A02EB80035B7812F82020012A12
:1002E40014D01AB1022A25D005200DE01C4AD25C94
:1002F4000A601C4803EB4303C2189478CC60C35CC7
:100304004B6053788B60002030BC7047164A32F83B
:1003140013200A60154A5800C5186C001519AD88D9
:10032400CD60145B4C6003445800024453888B60D6
:100334000020E9E70E4A52F823200A600D4A5800CB
:10034400C518AC001519AD68CD6014594C60034450
:100354009800024453688B600020D5E768190008B0
:10036400700000205019000880000020381900088F
:10037400780000203819000810B584B0002409E082
:1003840069462046FFF7A4FF03992046FFF77CFF48
:100394000134E4B2082CF3D904B010BD00B585B023
:1003A4006946FFF795FF20B14FF0FF3005B05DF8C7
:1003B40004FB0098FAE708B5FFF7F0FF08BD70B535
:1003C40084B006460D466946FFF782FF044601994C
:1003D400A94203D302998D4200D3294614B1204681
:1003E40004B070BD3046FFF74FFFF8E708B5FFF7DC
:1003F400E6FF08BD0023164A1370012B26D830B43B
:10040400144931F813206FF30D0221F813205A0018
:10041400D018840010482044847A1144487864F346
:1004240086106FF3C71048700C49D018C5004C19DA
:100434000020A081A06048516060206101226275A3
:100444001344DBB2012BDBD930BC7047704700BFCB
:10045400B4000020B80000208C190008840000209B
:1004640010B5FFF7C7FF002401E00134E4B2012C0A
:1004740008D804EB44029300084AD358002BF4D064
:100484009847F2E7064C204600F080FB2368054AB3
:10049400A2FB03239B0C236010BD00BF8C19000832
:1004A4008000002083DE1B430023012B25D830B4B9
:1004B40003E00133DBB2012B1DD8104830F81320C0
:1004C400C2F30D01013161F30D0220F8132003EB97
:1004D4004302D1000A4A0A44127D002AE9D0084A9C
:1004E4000A44527D002AE4D0054801444A6802F5D2
:1004F4007A724A60DDE730BC70477047B80000206C
:1005040084000020F0B4114B1A78411A104B18687B
:1005140091FBF0F10F4E53001344DD00741963682E
:10052400194461602369B3F1FF3F28BF0133581CAC
:100534002061775907FB0313B3FBF0F37351A368EE
:10054400994200D9A160F0BC704700BFB4000020FC
:1005540080000020840000202DE9F041DFF858805D
:1005640098F80010114C4B005818C2002244002780
:1005740057600F4EB568012010750B449A000D4B5F
:1005840013445B68984798F8000043001918CA00A0
:1005940022441775B1680344DA001444637D0BB92F
:1005A400BDE8F0812846FFF7ADFFF9E7840000209D
:1005B40010E000E08C190008B400002070B500249D
:1005C400204627E0002A48D1284A32F813106FF356
:1005D4000D0122F813105A00D118C800244901440F
:1005E4008D89224931F81310C1F30D011A4490008A
:1005F400204A02441289881A854205DA5A001344B3
:10060400DA001B4B13449881FFF7A6FF012060BB5F
:10061400022C2AD80134E4B2174A1378013303F0C8
:1006240001031370114A02EB43025278D209C9D173
:100634000E4901EB4301497811F0400FE7D00B4913
:1006440031F81350C5F30D05590019448E000949BA
:10065400314409898D42DADBB4E7044A02EB4302F0
:1006640051786FF3C7115170B5E770BDB800002021
:10067400840000208C190008B4000020884202D2B3
:10068400091AC8437047401A70470000014B1868A4
:10069400704700BF6800002000230BB100207047A2
:1006A400034A02EB0312002111720133DBB2F4E7B7
:1006B4005800002010B50446FFF7E8FF2401024B60
:1006C4001851002010BD00BF5800002010B504468A
:1006D400084B03EB00131B7A023BDBB2012B06D958
:1006E400044800EB041001230372002010BDFFF73F
:1006F400E1FFF5E75800002038B50446164B03EB3C
:1007040000131B7A012B0AD0FBB9134902018B5841
:1007140001338B500020012819D0002038BD0E4A27
:100724000301D518D1580D4B1868FFF7A7FF6B6864
:10073400984206D303222A72EB6823B120469847D5
:10074400E9E70020E7E70020E5E70020E3E72046AB
:10075400FFF7BCFFE1E700BF58000020680000205D
:1007640010B5064A136801331360002404B110BDA8
:100774002046FFF7C1FF0134E4B2F7E76800002028
:10078400032915D008B50A46022908D0094B0001EF
:1007940019188988185800F0ABFB002008BD054BD8
:1007A40000011A189188185800F0A7FB002008BD12
:1007B40005207047A419000886B003013C4AD358A9
:1007C400B3F1904F1FD00301394AD258394B9A42A2
:1007D40027D00301364AD258374B9A422FD003010F
:1007E400334AD258354B9A4237D00301304AD25853
:1007F400334B9A423FD000012D4B1A58314B9A4249
:1008040047D006B0704703F1784303F50433DA6C3C
:1008140042F00102DA64DB6C03F001030093009BF5
:10082400D1E703F1784303F50333DA6C42F00202B3
:10083400DA64DB6C03F002030193019BC9E703F163
:10084400784303F50233DA6C42F00402DA64DB6CB9
:1008540003F004030293029BC1E703F1784303F519
:100864000133DA6C42F00802DA64DB6C03F008034B
:100874000393039BB9E703F1784303F50033DA6C80
:1008840042F01002DA64DB6C03F010030493049B5F
:10089400B1E703F1784303F5FA33DA6C42F08002EE
:1008A400DA64DB6C03F080030593059BA9E700BFC2
:1008B400A41900080004004800080048000C00487F
:1008C40000100048001C004870B586B0002426467D
:1008D40001E00134E4B2082C1BD82046FFF76CFF7A
:1008E4000D4A2301D518A9880191A9680291297B91
:1008F4000491697B0391A97B059101A9D05800F06B
:1009040027FAE97B0329E4D02046FFF739FF06469E
:10091400DFE7304606B070BDA419000810B5002406
:1009240001E00134E4B20D2C0CD8074B13F9240078
:1009340010F1050FF5DB03EB84039A78597800F086
:100944009FF9EEE7002010BD0000002010B5002440
:1009540001E00134E4B20D2C0DD8084B03EB840301
:10096400DB78012BF5D1054B13F924000028F0DBCB
:1009740000F0B8F9EDE7002010BD00BF0000002032
:100984007047FEE7FEE7FEE7FEE77047704708B5ED
:1009940000F0DAF908BD70477047704708B52020A9
:1009A40000F0B0FA08BD08B500F020F808BD08B59D
:1009B40000F01DF808BD08B500F01AF808BD08B528
:1009C40000F017F808BD08B500F014F808BD08B524
:1009D40000F011F808BD7047704708B500F042F9FF
:1009E400FFF762FDFFF7BCFE08BD70477047704714
:1009F4007047704770477047294B1B6913F4807F19
:100A040026D1284BD3F8943013F0804F2FD1254BA7
:100A1400D3F8943013F0005F2DD1224BD3F89430E7
:100A240013F0805F2BD11F4BD3F8943013F0806FF9
:100A340029D11C4BD3F8943013F0006F27D1194BF4
:100A4400D3F89430002B26DB0022174B1A7006E0F3
:100A54004FF48072124B9A610122134B1A70114A9F
:100A6400D2F8943043F40003C2F89430704707225C
:100A74000D4B1A70F3E702220B4B1A70EFE70322B7
:100A8400094B1A70EBE70122074B1A70E7E70422BF
:100A9400054B1A70E3E70622034B1A70DFE700BF29
:100AA40000700040001002406C00002000207047DD
:100AB40000B599B02C4B1A6807925A6808921A69C3
:100AC4000B92DA680A929A6809925A690C929A69A6
:100AD4000D92DA690E921A6A0F925A6A11929A6A00
:100AE4001292DA6A13921A6B14925A6B15929A6BD9
:100AF4001692DB6B179307A800F02AFB18B10120AC
:100B040019B05DF804FB0F230293174B1A6C039280
:100B14005A6C04929A6C0592DB6C0693042102A829
:100B240000F0FCFD08B10120EAE74FF4007000F08A
:100B3400FFF908B10120E3E700F0C6FE0B4BA3FB6D
:100B44000030800900F0DAF8042000F0EDF8084BDA
:100B54001A6E42F001021A661B6E03F00103019340
:100B6400019B0020CCE700BF341A0008D34D62106B
:100B74000010024008B5FFF73FFFFFF799FF034657
:100B840010B9FFF793FF0346184608BD10B5044695
:100B940000F09AFE2060002010BD7047DFF834D0CA
:100BA400002103E00C4B5B58435004310B480C4BC1
:100BB40042189A42F6D30B4A02E0002342F8043B5F
:100BC400094B9A42F9D300F013F800F083FEFFF7C3
:100BD400FFFAFEE700000220D01A000800000020FF
:100BE4003C0000203C000020C0000020FEE7000084
:100BF4000F49D1F8883043F47003C1F888300D4BA5
:100C04001A6842F001021A60002098601A6822F003
:100C1400A85222F410221A604FF48052DA601A6843
:100C240022F480221A6098614FF000638B60704751
:100C340000ED00E00010024010B50446074B1868B0
:100C4400074BA3FB0030800900F058F8002221462E
:100C54004FF0FF3000F014F8002010BD38000020E1
:100C6400D34D6210024A136801331360704700BF0A
:100C7400BC000020014B1868704700BFBC00002076
:100C840030B4164BDB68C3F30223C3F10704042C0E
:100C940028BF04241D1D062D17D9033B012505FA81
:100CA40004F4013C2140994005FA03F3013B13404D
:100CB400194300280BDB0901C9B200F1604000F5BB
:100CC400614080F8001330BC70470023E6E700F071
:100CD4000F000901C9B2024B1954F4E700ED00E01A
:100CE40014ED00E0420900F01F00012303FA00F0B4
:100CF400014B43F82200704700E100E00138B0F1F5
:100D0400807F0AD2064B5860F021064A82F82310ED
:100D14000020986007221A6070470120704700BFC6
:100D240010E000E000ED00E0042805D0054A136857
:100D340023F0040313607047024A136843F004036A
:100D44001360704710E000E008B5FFF746FE08BDE9
:100D5400F0B583B000238CE0DE08083650F8264056
:100D640003F0070E4FEA8E0E0F2707FA0EF724EA58
:100D740007040F6907FA0EF73C4340F8264087E062
:100D840086682640CF6807FA0EF73E4386604668B9
:100D940026EA05054E68C6F300169E4035434560B5
:100DA400C5682C408D6805FA0EF52C43C4604C6868
:100DB40014F0805F5CD04A4C256E45F00105256631
:100DC400246E04F001040194019C9D08AE1C454C62
:100DD40054F8264003F00306B6000F27B74024EA70
:100DE4000704B0F1904F70D03F4FB8426FD007F571
:100DF4008067B8426DD007F58067B8426BD007F5BD
:100E04008067B8425FD0072707FA06F634430235F5
:100E1400344E46F82540354C2568D44305EA04068B
:100E24004F6817F4803F01D042EA05062F4D2E602B
:100E34006D6804EA05064F6817F4003F01D042EAE2
:100E440005062A4D6E60AD6804EA05064F6817F47E
:100E5400801F01D042EA0506244DAE60ED682C40A7
:100E64004E6816F4001F01D042EA05041F4AD460FC
:100E740001330A6832FA03F42FD001259D402A4039
:100E8400F6D04C68022C3FF467AF122C3FF464AFE9
:100E940006684FEA430E032404FA0EF4E4432640A2
:100EA4004F6807F0030707FA0EF73E4306604E68E3
:100EB400771E012F7FF664AF112E3FF461AF122E1F
:100EC4007FF46EAF5CE704279EE700279CE70127C9
:100ED4009AE7022798E7032796E703B0F0BD00BF1F
:100EE40000100240000001400004004800040140DA
:100EF4000AB9816270478161704743695940416111
:100F04007047000008B5054B5B69034200D108BD7A
:100F1400024B5861FFF769FDF9E700BF0004014087
:100F2400024B186800F4C060704700BF00700040B6
:100F3400B0F5007F0FD0204B1B6803F4C063B3F5FA
:100F4400806F37D01C4A136823F4C06343F4806372
:100F5400136000207047184B1B6803F4C063B3F59B
:100F6400007F23D0144A136823F4C06343F400734E
:100F74001360124B1B6802F1467202F55B3202F2F7
:100F84008322A2FB03239A0C322303FB02F300E027
:100F9400013B23B1084A526912F4806FF8D1064B21
:100FA4005B6913F4806F03D00320704700207047FF
:100FB4000020704700207047007000403800002077
:100FC40030B583B00546204B9B6D13F0805F0BD08A
:100FD400FFF7A6FFB0F5007F17D0802D1FD82DD0C6
:100FE400702D2DD000211BE0174CA36D43F08053CE
:100FF400A365A36D03F080530193019BFFF790FF5A
:10100400A36D23F08053A365E4E7802D03D9A02DBD
:1010140003D9022104E0002102E0012100E00321C0
:101024000A4A136823F007030B431360136803F0A1
:101034000703994206D0012003B030BD0221EFE737
:101044000121EDE70020F7E70010024000200240F4
:101054003B4B9B6813F00C0F1AD0394B9B6803F081
:101064000C030C2B0ED0364B9B6803F00C03042BA3
:101074002FD0334B9B6803F00C03082B2CD000209B
:10108400014618E02E4BDB6803F00303012BEAD181
:101094002B4B1B6813F0080F14D1294BD3F8943051
:1010A400C3F30323274A52F82310254B9B6813F0FC
:1010B4000C0F0CD00020224A936803F00C030C2B75
:1010C4000DD070471E4B1B68C3F30313EAE70846B1
:1010D400F1E71D480021EEE71C480021EBE7134629
:1010E400D26802F00302DB68C3F302130133022A5D
:1010F4000AD0032A1AD0B1FBF3F3114AD068C0F323
:10110400062000FB03F008E00F48B0FBF3F30C4AA1
:10111400D068C0F3062000FB03F0094BDB68C3F37F
:10112400416301335B00B0FBF3F0CAE70748B0FB4F
:10113400F3F3034AD068C0F3062000FB03F0ECE7A6
:1011440000100240981A00080024F40000127A00EB
:1011540070B582B00446036813F0100F3FD0974B6C
:101164009B6813F00C0F40F09280944B1B6813F0B3
:10117400020F03D08369002B00F0C082206A8F4BDA
:101184001B6813F0080F62D08C4B1B6803F0F0034C
:10119400834263D2FFF714FF002840F0B182874BEB
:1011A4001A6842F008021A601A6822F0F002216AF2
:1011B4000A431A605A6822F47F42E16942EA012232
:1011C4005A60FFF745FF7D4B9B68C3F303137C4ACA
:1011D400D35CD8407B4B18600020FFF72DFD2368BB
:1011E40013F0010F00F0A180744B9B6803F00C0313
:1011F400082B00F09180714B9B6803F00C030C2BBF
:1012040000F083806368B3F5803F00F0B580B3F5E8
:10121400A02F00F0B780694B1A6822F480321A605C
:101224001A6822F480221A606368002B00F0B780E9
:10123400FFF720FD0546614B1B6813F4003F74D192
:10124400FFF718FD401B6428F5D903205FE25B4BD0
:10125400D3F894301B0903F0F00399E7574B1A684D
:1012640042F008021A601A6822F0F002216A0A4366
:101274001A605A6822F47F42E16942EA01225A6004
:10128400206AFFF79DFE00289BD001203FE283697E
:1012940033B34A4A136843F001031360FFF7EAFCCF
:1012A4000546464B1B6813F0020F06D1FFF7E2FC1C
:1012B400401B0228F5D9032029E2404B1A6842F06A
:1012C40008021A601A6822F0F002216A0A431A60BE
:1012D4005A6822F47F42E16942EA01225A607EE7B9
:1012E400364A136823F001031360FFF7C3FC054675
:1012F400324B1B6813F0020F3FF471AFFFF7BAFCD7
:10130400401B0228F4D9032001E22C4BDB6803F0D4
:101314000303032B7FF476AF284B1B6813F4003FC1
:1013240003D06368002B00F0ED81236813F0020FF3
:1013340061D0224B9B6803F00C03042B4AD01F4B53
:101344009B6803F00C030C2B3ED0E368002B78D091
:101354001A4A136843F480731360FFF78BFC054645
:10136400164B1B6813F4806F62D1FFF783FC401B9C
:101374000228F5D90320CAE1104A136843F48033E4
:10138400136051E703F18043A3F53C331A6842F438
:1013940080221A601A6842F480321A6044E7FFF728
:1013A40069FC0546054B1B6813F4003FBDD0FFF7ED
:1013B40061FC401B6428F5D90320A8E10010024019
:1013C400881A000838000020B14BDB6803F00303DF
:1013D400022BBAD1AE4B1B6813F4806F03D0E368C1
:1013E400002B00F09181AA4A536823F0FE4321693F
:1013F40043EA01635360236813F0080F4CD0636918
:101404009BB3A34AD2F8943043F00103C2F894305A
:10141400FFF730FC05469E4BD3F8943013F0020FCF
:101424003AD1FFF727FC401B0228F4D903206EE1D0
:10143400974A536823F0FE43216943EA01635360EA
:10144400D9E7934A136823F480731360FFF712FCFF
:1014540005468F4B1B6813F4806FCCD0FFF70AFC52
:10146400401B0228F5D9032051E1894AD2F894306F
:1014740023F00103C2F89430FFF7FCFB0546844BCC
:10148400D3F8943013F0020F06D0FFF7F3FB401BA0
:101494000228F4D903203AE1236813F0040F7AD028
:1014A4007B4B9B6D13F0805F36D1794B9A6D42F084
:1014B40080529A659B6D03F080530193019B012533
:1014C400744B1B6813F4807F28D0A368012B39D098
:1014D400052B3FD06E4BD3F8902022F00102C3F8C5
:1014E4009020D3F8902022F00402C3F89020A3683F
:1014F400002B3DD0FFF7BEFB0646654BD3F890307A
:1015040013F0020F46D1FFF7B5FB801B41F288337D
:101514009842F2D90320FAE00025D1E75D4A136826
:1015240043F480731360FFF7A5FB0646594B1B6811
:1015340013F4807FC9D1FFF79DFB801B0228F5D9E6
:101544000320E4E0524AD2F8903043F00103C2F899
:101554009030CCE74E4BD3F8902042F00402C3F80D
:101564009020D3F8902042F00102C3F89020BEE707
:10157400FFF780FB0646464BD3F8903013F0020F7A
:1015840008D0FFF777FB801B41F288339842F2D9E9
:101594000320BCE0E5B9236813F0200F35D0636A5B
:1015A400E3B13B4AD2F8983043F00103C2F89830D3
:1015B400FFF760FB0546364BD3F8983013F0020F63
:1015C40023D1FFF757FB401B0228F4D903209EE0E8
:1015D4002F4A936D23F080539365DCE72C4AD2F8AD
:1015E400983023F00103C2F89830FFF743FB054617
:1015F400274BD3F8983013F0020F06D0FFF73AFBCD
:10160400401B0228F4D9032081E0A36A002B7DD07B
:101614001F4A926802F00C020C2A7AD0022B23D0C3
:101624001B4B1A6822F080721A601B6813F0006F5B
:1016340004D1174AD36823F00303D360144AD36850
:1016440023F0887323F48033D360FFF713FB04463D
:101654000F4B1B6813F0007F4ED0FFF70BFB001BF2
:101664000228F5D9032052E0094A136823F0807355
:101674001360FFF7FFFA0546054B1B6813F0007F64
:101684000AD0FFF7F7FA401B0228F5D903203EE001
:101694000010024000700040236B5A1E636B1B0253
:1016A40043EA0213E26A1343E26B5208013A43EA43
:1016B4004253226C5208013A43EA4263A26B43EA62
:1016C400C263154AD360136843F080731360D36810
:1016D40043F08073D360FFF7CDFA04460E4B1B68CA
:1016E40013F0007F06D1FFF7C5FA001B0228F5D9D5
:1016F40003200CE000200AE0002008E0012006E0BE
:10170400012004E0012002E0012000E0002002B0FA
:1017140070BD0120FBE700BF00100240664B1B6850
:1017240003F007038B420CD2634A136823F00703C8
:101734000B431360136803F00703994201D001209F
:10174400704770B50D460446036813F0010F6CD062
:101754004368032B0AD0022B2DD0002B32D1574AD9
:10176400126812F0020F07D1012070BD534A1268AB
:1017740012F0007F00F09E8050498A6822F0030234
:1017840013438B60FFF776FA06466368032B20D079
:10179400022B2DD0002B3AD0484B9B6803F00C034E
:1017A400042B42D0FFF766FA801B41F2883398423B
:1017B400F2D9032070BD414A126812F4003FDBD114
:1017C400012070BD3D4A126812F4806FD4D101200B
:1017D40070BD3A4B9B6803F00C030C2B25D0FFF72C
:1017E40049FA801B41F288339842F2D9032070BD34
:1017F400324B9B6803F00C03082B16D0FFF73AFA20
:10180400801B41F288339842F2D9032070BD2B4BE0
:101814009B6813F00C0F08D0FFF72CFA801B41F2E1
:1018240088339842F3D9032070BD236813F0020F64
:1018340006D0224A936823F0F003A1680B43936017
:101844001D4B1B6803F007039D420CD21A4A136810
:1018540023F007032B431360136803F007039D422F
:1018640001D0012070BD236813F0040F06D0134A81
:10187400936823F4E063E1680B439360236813F0F7
:10188400080F07D00D4A936823F46053216943EA93
:10189400C1039360FFF7DCFB084B9B68C3F303139E
:1018A400074AD35CD840074B18600020FFF7C4F9FF
:1018B400002070BD012070BD0020024000100240D5
:1018C400881A000838000020014B1868704700BFD0
:1018D4003800002070B50D4E0D4CA41BA41000253B
:1018E400A54209D10B4E0C4C00F018F8A41BA4100F
:1018F4000025A54205D170BD56F82530984701351D
:10190400EEE756F8253098470135F2E7C81A000883
:10191400C81A0008C81A0008CC1A0008F8B500BF95
:10192400F8BC08BC9E467047F8B500BFF8BC08BCBC
:041934009E46704714
:10193800FFFFFFFF0000000000000000FFFFFFFFA7
:101948000000000000000000FF0000FF0000FF0092
:1019580001FF00000600000B00000100000000006D
:10196800000000030001000300020003000300035D
:101978000004000300050003020000030201000345
:1019880000060003F90100080D020008E803010041
:1019980000000000000000000000000000000048F7
:1019A80020000000010000000300FF0300080048B9
:1019B80000200000000011100300FF030000004891
:1019C80001000000020000000300010300000048BD
:1019D80008000000020000000300010300040048A2
:1019E80020000000000000000300FF03000400487E
:1019F80010000000000000000300FF03000400487E
:101A080000200000010000000300FF030000004860
:101A18000400000002000000030107030000004862
:101A28000800000002000000030107031000000086
:101A3800000000000000000000000000100000008E
:101A4800000000000100000000000000600000002D
:101A58000200000001000000010000002800000052
:101A6800070000000400000002000000030000005E
:101A7800000000000000000000000000000000005E
:101A88000000000000000000010203040607080926
:101A9800A0860100400D0300801A060000350C00E6
:101AA80040420F0080841E0000093D0000127A00A9
:101AB8000024F40000366E010048E801006CDC02E6
:041AC800B901000858
:041ACC009501000878
:101AD000FF000001030100000601000007010000F3
:101AE00017010000120100001C0100001D01000090
:101AF00025010000260100001F0100002101000057
:0C1B0000230100002401000000093D004A
:0400000508000BA143
:00000001FF
