:020000040800F2
:100000000000022001360008EF2A0008F12A00084B
:10001000F32A0008F52A0008F72A0008000000006B
:10002000000000000000000000000000F92A0008A5
:100030005136000800000000FB2A0008FD2A0008D5
:10004000513600085136000851360008052B0008CB
:100050005136000851360008072B0008092B00080C
:100060005136000851360008513600085136000854
:100070005136000851360008513600085136000844
:100080005136000851360008513600085136000834
:100090005136000851360008513600080B2B000875
:1000A0005136000851360008513600085136000814
:1000B0004D2B00084F2B000800000000252B0008E6
:1000C000513600082D2B000851360008352B00084A
:1000D0003D2B0008152B00081D2B00085136000889
:1000E00051360008513600080000000000000000F2
:1000F0000000000000000000000000000000000000
:10010000000000005136000800000000452B0008E8
:1001100051360008000000005136000800000000C1
:100120005136000851360008513600085136000893
:100130005136000851360008513600080000000012
:100140005136000851360008513600085136000873
:100150005136000851360008513600085136000863
:1001600051360008513600085136000800000000E2
:1001700000000000513600080000000000000000F0
:100180005136000851360008513600085136000833
:0401900051360008DC
:1001A00010B5054C237833B9044B13B10448AFF3B1
:1001B00000800123237010BDD0010020000000004A
:1001C000546A000808B5034B1BB103490348AFF359
:1001D000008008BD00000000D4010020546A00081F
:1001E000034613F8012B002AFBD1181A0138704777
:1001F00001F0FF01102A2BDB10F0070F08D010F8D8
:10020000013B013A8B422DD010F0070F42B3F6D1DB
:10021000F0B441EA012141EA014122F007047FF0F4
:1002200000070023F0E80256083C85EA010586EA4B
:10023000010685FA47F5A3FA87F586FA47F6A5FA87
:1002400087F68EB9EED1F0BC01F0FF0102F0070293
:1002500032B110F8013B013A83EA010313B1F8D13E
:100260000020704701387047002D06BF354603381F
:10027000073815F0010F07D1013015F4807F02BF58
:10028000013015F4C03F0130F0BC0138704700BFA9
:1002900053B94AB9002908BF00281CBF4FF0FF31ED
:1002A0004FF0FF3000F07AB9ADF1080C6DE904CEE3
:1002B00000F006F8DDF804E0DDE9022304B0704741
:1002C0002DE9F0478C460D460446089E002B51D17F
:1002D0008A4217466DD9B2FA82FEBEF1000F0BD0EA
:1002E000CEF1200C01FA0EF520FA0CFC02FA0EF702
:1002F0004CEA050C00FA0EF44FEA174A250CBCFB39
:10030000FAF81FFA87F90AFB18CC45EA0C4508FBF6
:1003100009F3AB420AD9ED1908F1FF3280F02381CD
:10032000AB4240F22081A8F102083D44ED1AA4B28C
:10033000B5FBFAF00AFB105544EA054400FB09F945
:10034000A14509D9E41900F1FF3380F00A81A145E4
:1003500040F2078102383C44A4EB090440EA08401B
:100360000021002E61D024FA0EF400233460736063
:10037000BDE8F0878B4207D9002E54D0002186E8D3
:1003800021000846BDE8F087B3FA83F1002940F068
:100390008E80AB4202D3824200F2FA80841A65EB6F
:1003A00003050120AC46002E3FD086E81010BDE8C2
:1003B000F08712B90127B7FBF2F7B7FA87FEBEF153
:1003C000000F34D1EB1B3A0C1FFA87FC0121B3FB61
:1003D000F2F8250C02FB183345EA03450CFB08F341
:1003E000AB4207D9ED1908F1FF3002D2AB4200F25F
:1003F000D1808046ED1AA3B2B5FBF2F002FB105596
:1004000043EA05440CFB00FCA44507D9E41900F1BC
:10041000FF3302D2A44500F2B8801846A4EB0C04C6
:1004200040EA08409DE731463046BDE8F087CEF10E
:10043000200405FA0EF307FA0EF720FA04F83A0C36
:1004400025FA04F448EA0308B4FBF2F14FEA184530
:1004500002FB11441FFA87FC45EA044501FB0CF33B
:10046000AB4200FA0EF409D9ED1901F1FF3080F02A
:100470008A80AB4240F2878002393D44EB1A1FFA72
:1004800088F5B3FBF2F002FB103345EA034500FBAD
:100490000CF3AB4207D9ED1900F1FF386FD2AB4234
:1004A0006DD902383D44EB1A40EA01418FE7C1F1B2
:1004B000200722FA07F88B4005FA01F448EA030303
:1004C00020FA07FE4FEA134CFD404EEA040EB5FB3E
:1004D000FCF94FEA1E440CFB19551FFA83F844EA55
:1004E000054509FB08F4AC4202FA01F200FA01FAF0
:1004F00008D9ED1809F1FF3043D2AC4241D9A9F136
:1005000002091D442D1B1FFA8EFEB5FBFCF00CFBEF
:1005100010554EEA054400FB08F8A04507D9E41839
:1005200000F1FF3529D2A04527D902381C4440EA02
:100530000940A4EB0804A0FB02894C45C6464D4681
:1005400015D312D056B1BAEB0E0364EB050404FACE
:1005500007F7CB401F43CC40376074600021BDE8F3
:10056000F0871846F8E69046E0E6C245EAD2B8EBD6
:10057000020E69EB03050138E4E72846D7E7404659
:1005800091E78146BEE7014678E702383C4445E7FB
:10059000084608E7A8F102083D442BE7704700BF72
:1005A00008B502F074FC00F02DFB00F0D9FBFCE76D
:1005B00008B50022024B1A7000F0A6FA08BD00BF71
:1005C0009C04002008B50221002002F0B7F80420A6
:1005D00000F0B9FAC1B2042930D8DFE801F02E03E7
:1005E000102F070001F07CFC022127E0154B1B783F
:1005F000022B23D10021134A117019461EE0114B22
:100600001B78012B07D0032B0BD0042B0FD000221B
:100610000C4B1A7012E00A21052000F0B4FA0321F5
:10062000F5E70121052000F0AEFA0421EFE70321F0
:10063000052000F0A8FA0521E9E70121042000F0D7
:10064000A2FA08BD9C040020014B1870704700BF3F
:100650009C0400207047704738B5002404E0002255
:10066000084B5A550134A4B2072C09D8254604EB8F
:1006700084029300044AD358002BF0D09847EEE749
:1006800038BD00BF00000020BC6A000838B5072450
:1006900004E00122084B5A55013C24B2002C0ADB2D
:1006A000254604EB84039A00044B13445B68002B3B
:1006B000EFD09847EDE738BD00000020BC6A000885
:1006C0002DE9F0414FF00008234B83F800803BE018
:1006D000224B5B68EA682946204698470134E4B219
:1006E0001F4B03EBC6035B799C42F1D314351C4BC3
:1006F00003EBC6031B7903EB83039A003A4495424C
:1007000005D2154A1378013313700024E8E706EB8D
:1007100086039A00134B13449B6803B19847022247
:10072000114B9A550136072E0AD80D4B03EBC60321
:100730009B799845F6D10A4B53F836703D46D6E77B
:1007400008F101085FFA88F8B8F1020F01D8002615
:10075000E9E7BDE8F08100BFEC0100205C6B000818
:10076000646B0008BC6A00080000002010B5072474
:100770000BE004EB84039A00054B1344DB689847B5
:100780000322044B1A55013C24B2002CF1DA10BDAF
:10079000BC6A00080000002010B5002405E098475E
:1007A0000222064B1A550134A4B204EB84039A00CA
:1007B000034B13441B69002BF1D110BD0000002036
:1007C000BC6A0008F8B507460C464E6896420FD33F
:1007D00015468E68B24211D3637CFF2B22D0A37CD6
:1007E000154AD35C022B0FD00020E8B10120F8BDE0
:1007F0000321124800F000FC3546EDE703211048C4
:1008000000F0FAFB3546E7E700F026FD08B10020CE
:10081000EBE7627C0B4B53F822302A4621463846E0
:100820009847E2E70020E0E7074B5B682A4621464D
:1008300038469847F8BD00BF000000207C6A0008D9
:100840009C6A0008E46B00085C6B00082DE9F84323
:1008500080460D4617464FF0010E002006468146A1
:1008600004460AE0AB1B03EB830398003A460144BD
:100870004046FFF7A7FF86460120A4460B4A52F8E0
:10088000341079B170B9094B03EBCC031B794B449D
:100890001FFA83F909F1FF339D42E3DD0134E4B22D
:1008A0004E46EAE77046BDE8F88300BF646B000877
:1008B00070B506460C4615460B7CFF2B04D08B7C8E
:1008C0001B4AD35C022B07D06368FF2B11D9B3F509
:1008D000803F1BD303230DE000F0BEFC0028F3D1C2
:1008E000227C144B53F822302A4621463046984742
:1008F00070BD0123012B0BD0022B11D00E4B1B68B6
:100900002146304698472860002070BD0223F1E759
:10091000094B1B682146304698472870002070BD5F
:10092000054B1B682146304698472880002070BD43
:1009300000000020A46B00085C6B00082DE9F84360
:1009400080460D46174600200646814604468646E8
:100950000AE0AB1B03EB830398003A460144404690
:10096000FFF7A6FF86460120A4460B4A52F8341032
:1009700079B170B9084B03EBCC031B794B441FFAD8
:1009800083F909F1FF339D42E3DD0134E4B24E46C1
:10099000EAE77046BDE8F883646B0008014B1878FD
:1009A000704700BFEC0100204B68FF2B04D9B3F562
:1009B000803F0AD3032300E00123012B07D0022B41
:1009C00008D00B6853F8200070470223F5E70B6846
:1009D000185C70470B6833F8100070474B68FF2BAA
:1009E00004D9B3F5803F0AD3032300E00123012B90
:1009F00007D0022B09D00B6843F8202003E0022324
:100A0000F5E70B681A54002070470B6823F8102094
:100A1000F9E70920704700000D4B03EB8002527884
:100A200013F82030012B08D01BB1022B0AD005206F
:100A30007047084B995400207047074B23F8121059
:100A400000207047054B43F822100020704700BF7C
:100A5000186E0008A0040020B0040020A8040020A4
:100A600030B4224A02EB80035B7812F82020012A7E
:100A700014D01AB1022A25D005200DE01C4AD25C00
:100A80000A601C4803EB4303C2189478CC60C35C33
:100A90004B6053788B60002030BC7047164A32F8A8
:100AA00013200A60154A5800C5186C001519AD8846
:100AB000CD60145B4C6003445800024453888B6043
:100AC0000020E9E70E4A52F823200A600D4A580038
:100AD000C518AC001519AD68CD6014594C600344BD
:100AE0009800024453688B600020D5E7186E000818
:100AF000A0040020006E0008B0040020E86D00088B
:100B0000A8040020E86D000810B584B0002409E0B6
:100B100069462046FFF7A4FF03992046FFF77CFFB4
:100B20000134E4B2082CF3D904B010BD00B585B08F
:100B30006946FFF795FF20B14FF0FF3005B05DF833
:100B400004FB0098FAE708B5FFF7F0FF08BD08B509
:100B5000C0B2FFF7F8FF08BD70B584B006460D4679
:100B60006946FFF77DFF04460199A94203D3029924
:100B70008D4200D3294614B1204604B070BD3046E2
:100B8000FFF74AFFF8E708B5FFF7E6FF08BD08B52D
:100B9000C0B2FFF7F8FF08BD0023164A1370032BFD
:100BA00026D830B4144931F813206FF30D0221F820
:100BB00013205A00D018840010482044847A11442D
:100BC000487864F386106FF3C71048700C49D0184A
:100BD000C5004C190020A081A060485160602061D0
:100BE000012262751344DBB2032BDBD930BC7047A2
:100BF000704700BF14050020180500203C6E000857
:100C0000B404002010B5FFF7C7FF002401E0013451
:100C1000E4B2032C08D804EB44029300084AD358EA
:100C2000002BF4D09847F2E7064C204602F028F952
:100C30002368054AA2FB03239B0C236010BD00BF61
:100C40003C6E0008B004002083DE1B430023032B0E
:100C500025D830B403E00133DBB2032B1DD8104894
:100C600030F81320C2F30D01013161F30D0220F8B9
:100C7000132003EB4302D1000A4A0A44127D002AE2
:100C8000E9D0084A0A44527D002AE4D005480144CC
:100C90004A6802F57A724A60DDE730BC70477047F7
:100CA00018050020B4040020F0B4114B1A78411A42
:100CB000104B186891FBF0F10F4E53001344DD0008
:100CC00074196368194461602369B3F1FF3F28BF59
:100CD0000133581C2061775907FB0313B3FBF0F372
:100CE0007351A368994200D9A160F0BC704700BF5E
:100CF00014050020B0040020B40400202DE9F041C8
:100D0000DFF8588098F80010114C4B005818C200BA
:100D10002244002757600F4EB568012010750B4420
:100D20009A000D4B13445B68984798F80000430005
:100D30001918CA0022441775B1680344DA00144434
:100D4000637D0BB9BDE8F0812846FFF7ADFFF9E7F9
:100D5000B404002010E000E03C6E00081405002000
:100D600070B50024204627E0002A48D1284A32F8EE
:100D700013106FF30D0122F813105A00D118C80098
:100D8000244901448D89224931F81310C1F30D0122
:100D90001A449000204A02441289881A854205DAD2
:100DA00003EB4303DA001B4B13449881FFF7A6FFC4
:100DB000012060BB042C2AD80134E4B2174A13780E
:100DC000013303F003031370114A02EB430252781C
:100DD000D209C9D10E4901EB4301497811F0400F06
:100DE000E7D00B4931F81310C1F30D0103EB4305B4
:100DF000AE00094D35442D89A942DADBB4E7044A37
:100E000002EB430251786FF3C7115170B5E770BD23
:100E100018050020B40400203C6E000814050020D2
:100E2000034B03EB400043786FF386134370704726
:100E300018050020034B03EB4000437843F04003C8
:100E40004370704718050020014B1870704700BFB1
:100E500008000020F0B40023137001E00133DBB27E
:100E6000C45C202CFAD0002427460DE007EBC71500
:100E70000D4485F8804000262E550137FFB2052F1E
:100E80001AD00133DBB2344613F0800F14D1C55CA5
:100E9000202DEBD00D2D08D007EBC7160E4435558D
:100EA0000134E4B20133DBB2EEE707EBC7131944B8
:100EB00081F8804000230B551770F0BC704700008C
:100EC00070B506460024254600F0E2FA84420AD2B4
:100ED0000822074901EB0411304605F08AF928B1D0
:100EE0000134E4B2EFE700F0D3FA451C284670BDA8
:100EF0000C000020F0B583B005460C461F4690F963
:100F00000030222B0ED090F8803002AA02F8013D6A
:100F1000002301F8043B00F0C7FD9DF80730D3B96A
:100F2000082005E0164690F88020802A02D9062085
:100F300003B0F0BD023A411C304605F047F90123E9
:100F40002370666095F88030237295F88030023BFC
:100F50003B700820ECE70020EAE7000070B5ADF533
:100F6000247D0E460DF1060202A9FFF773FF02A8C9
:100F7000FFF7A6FF044600F08BFA844203D3042057
:100F80000DF5247D70BD194B03EB04131A7A9DF8FF
:100F900006309A4201D00420F2E73460144D002458
:100FA00001E00134E4B29DF806309C421AD2601C84
:100FB00000EBC01002AB184404EB44039900314429
:100FC000043190F880302B440A4A93420CD80DF13A
:100FD00007032A46FFF78EFF9DF807301D440828B7
:100FE000DFD0CDE70320CBE70620C9E70C000020C7
:100FF000200500202045002038B50C4B1B788B4283
:1010000003D80B4B1B78012B00D038BD0446FFF7EB
:10101000E7F8084D024629460120FFF7D3FB224698
:1010200005F114010120FFF7CDFBEEE708000020D9
:10103000F9020020706D000808B503210148FFF790
:10104000DBFF08BDF06E000810B58EB0144601AA93
:1010500000F0DCFC214601A8FFF7CEFF0EB010BD6A
:1010600070B582B00646002502AC04F8015D01218E
:101070002148FFF7C1FF01212048FFF7BDFF2246AD
:101080001F492846FFF714FC9DF807302BBB0121B0
:101090001C48FFF7B1FF01211B48FFF7ADFF0121FD
:1010A0001A48FFF7A9FF012200210846FFF7CCFFED
:1010B00001211748FFF7A0FF012200211046FFF78A
:1010C000C3FF012E0ED001211248FFF795FF012129
:1010D0000948FFF791FF02B070BD01210E48FFF7EC
:1010E0008BFFD8E701210D48FFF786FF0122002181
:1010F0000846FFF7A9FFE6E73C7100086C6E0008A0
:10110000206D00087C6E0008B46E0008C46E0008F4
:10111000D86E0008E06E0008986E0008DC6E0008CB
:10112000082809D008B500EB8003C0EBC300034BCF
:101130001844FFF761FF08BD704700BF046F000847
:1011400010B50124084B1C700020084B1870084B88
:101150001C70FFF785FF21460320FFF7E1FF2146C2
:101160000448FFF749FF10BD08000020F8020020E6
:10117000F90200206C6A000870B58EB000238DF86B
:101180000030012501E00133DBB219461E4AD25C72
:101190000D2A0CD0262AF6D1002BF4D001390D20CF
:1011A000194A50549A1C8DF801200225EBE70024BF
:1011B00009E0164B019A03EB0213DB68D3B101A8D7
:1011C00098470134E4B2AC4218D20EAB234413F872
:1011D000383C01A90C481844FFF7C0FE0646032816
:1011E000E7D004210A48FFF707FF04213046FFF744
:1011F00097FFE6E701A8FFF71FFFE2E70221054896
:10120000FFF7FAFE0EB070BD780200200C0000203F
:10121000307100086C6A000800B585B000238DF8B5
:101220000F300B4B9B89ADF80C3001E0FFF7A4FFAA
:101230000DF10F0301930223009303AB80220549B4
:10124000002001F0BDF80028F0D105B05DF804FBE6
:101250006C6A000878020020014B1878704700BFC4
:10126000F802002038B502211148FFF7C5FE00241E
:1012700018E0104D05EB041502212846FFF7BCFECF
:1012800002210D48FFF7B8FE02220021287AFFF75D
:10129000DBFE02210948FFF7AFFE0A2002F022FA26
:1012A0000134E4B200F0F4F88442E2D338BD00BF68
:1012B0003C7000080C0000205470000858700008B2
:1012C00010B50489FFF7A5FB80B2844207D22046FF
:1012D000FFF73DFC02220021FFF7B6FE10BD0421FE
:1012E0000020FFF71DFF10BD30B583B00023019330
:1012F0008568048AFFF752FB80B284420BD201AAB0
:101300002146E8B2FFF71AFB58B9022200210198E2
:10131000FFF79AFE03E004210020FFF701FF03B06E
:1013200030BD04210720FFF7FBFEF8E708B501698F
:101330000089FFF72CFC00B908BD04210120FFF74C
:10134000EFFEF9E770B58568048A8669FFF726FB2A
:1013500080B2844206D232462146E8B2FFF776FADE
:1013600028B970BD04210020FFF7DAFE70BD04210A
:101370000120FFF7D5FEF4E708B58068052803D8FB
:10138000C0B2FFF761FD08BD04210520FFF7C8FECC
:1013900008BD08B58068032804D904210520FFF79B
:1013A000BFFE08BD40B2FFF745FD08BD08B5806827
:1013B000032804D904210520FFF7B2FE08BD40B27E
:1013C000FFF72EFD08BD704770B5A4B0044604AE0B
:1013D00080220021304604F004FF94F83020023AC5
:1013E0000025ADF808508DF804506369ADF806305B
:1013F000236A8DF80530237A8DF80A30D2B2E16A7B
:10140000304604F0E3FE039601AB0ECB284600F015
:1014100097FD24B070BD000070B50D461646042837
:1014200008D8DFE800F00319141E23000121124838
:10143000FFF7E2FD114C324621460120FFF7C2F9C9
:101440002A4604F114010120FFF7BCF970BD012107
:101450000B48FFF7D1FDEDE701210A48FFF7CCFD6E
:10146000E8E701210848FFF7C7FDE3E70121074846
:10147000FFF7C2FDDEE700BF5C700008706D00087A
:101480006C7000087C7000088C700008A070000868
:101490000A20704708B58368827C53F8223001EB3C
:1014A00081014A001344D3F80E3013B100789847F5
:1014B00008BD012008BD00000301164AD3581A7C5C
:1014C0008A420ED9DB6803EB01110B79012B04D0A2
:1014D000CBB1022B03D000207047087B7047087BFC
:1014E0007047FF2901D0002070470A4B03EB001022
:1014F000C2680189B2FBF1F301FB13232BB1012A6E
:1015000005D000207047012070470120704701205E
:10151000704700BFFC02002008B58368827C53F846
:10152000223001EB81014A001344D3F8123013B189
:101530000078984708BD002008BD08B58368827C04
:1015400053F822309B680BB10078984708BD08B566
:101550008368827C53F822305B680BB1007898472F
:1015600008BD002306E0C26802EB031200211173DC
:101570000133DBB2027C9342F5D37047C36803EBBF
:10158000011100230B737047F0B5002301E0013314
:10159000DBB2020111498A58117C8B421CD2D268FD
:1015A00019010A441479012CF1D10C4F0601BD191F
:1015B000D5F80CC0D2F808E0BCFBFEF40EFB14C456
:1015C000B4FA84F464091473BA59D26811440A7BDA
:1015D000A9790A43AA71DAE7F0BD00BFFC02002036
:1015E0002DE9F04186B00301264CE3585C7C8C4227
:1015F00003D8002006B0BDE8F08116460D4604462B
:101600001846FFF79AFFDFF87C80270108EB0703F5
:101610000022DA6001229A7158F80700FFF7A1FF53
:1016200058F807301A7E12F0020F18D1154F240116
:101630003B599D743B59187E1A78996851F82510CA
:101640005B6809680291019600920F4A01210840E7
:1016500000F04FFA3859FFF77AFF0120CAE78DF8FA
:10166000104001228DF811209B7C8DF812308DF8EE
:1016700013608DF81450052204A9002000F04AFAE6
:10168000D4E700BFFC020020D47000082DE9F04729
:10169000804607460301274AD35893F812A04FF01B
:1016A00000094C460EE03B01224AD058836853F8AB
:1016B0002A3004EB840672001344597BFFF75EFF67
:1016C0000134E4B23B011B4AD558AB6853F82A30C9
:1016D0001A7B94422BD2B9F1000F28D104EB84017C
:1016E0004A001344597B4046FFF7E6FE0028E7D046
:1016F00021462846FFF7CEFE0028E1D03B012146D7
:101700000C4AD058FFF708FF0028CCD13B01094A0A
:10171000D3589B6853F82A3004EB840672001344B4
:101720002246997D4046FFF75BFF8146C8E70020CF
:10173000BDE8F087FC020020F0B583B0104D040135
:101740002F192B59DA7C9A740026FE602B59187ECB
:101750001A78996893F812E051F82E105B680968BE
:1017600001910092074A0121084000F0C2F90123CB
:101770007B712859FFF7EBFE304603B0F0BD00BF88
:10178000FC0200200471000800220AE0064B03EB73
:10179000021300211971198199715971D9600132AF
:1017A000D2B2132AF2D97047FC02002070B500248F
:1017B00009E0174B03EB05150023AB712046FFF73B
:1017C00065FF0134E4B2132C21D82546104B03EBFE
:1017D00004131B79002BF4D00D4B03EB04135B793E
:1017E000002BEED00A4E06EB0416F3680133F360CB
:1017F0002046FFF7C9FEF1683289B1FBF2F302FB24
:101800001313002BD5D0B379002BDAD0D1E770BDFC
:10181000FC0200200022134608E0114A02EB0312EA
:101820001279B2FA82F252090133DBB2132B01D8DA
:10183000002AF2D0013BDBB26AB130B4084D1C0182
:101840002A192851012010711181002202B1FF23B1
:10185000184630BC7047012202B1FF23184670477A
:10186000FC020020084B03EB00131B790BB901208D
:10187000704710B504460301034AD058FFF771FEC4
:101880002046FFF759FF10BDFC020020264B03EB5A
:1018900000131B79002B43D0234B03EB00135B7920
:1018A000002B3FD0F0B585B003011F4AD358DB6849
:1018B0000A0113441C79022C02D0012005B0F0BDAE
:1018C0000E46074601211973174D04012B19997112
:1018D0002B59187E93F800E0D3F80CC05B685CF8D5
:1018E00002200192CDF800E0104A084000F001F912
:1018F0002B591A7E12F0020F01D10020DEE78DF87D
:101900000C7000248DF80D409B7C8DF80E308DF806
:101910000F60042203A9204600F0FCF82046CDE722
:101920000120704701207047FC020020B0700008C1
:10193000064B03EB00131B792BB10001034B1B5823
:101940001976002070470120704700BFFC0200207C
:101950008160C2800023438083800380704738B554
:1019600004460D4601F05CF8A268A388D55423888C
:1019700001332380A38801339BB2E188B3FBF1F2EA
:1019800001FB1233A38001F037F838BD38B50446A7
:1019900001F046F8A2686388D55C2288013A22806B
:1019A00001339BB2E188B3FBF1F201FB1233638098
:1019B00001F022F8284638BD00887047C3880088A7
:1019C000181A80B2704700B5FFB001A804F03CFCC3
:1019D0007FB05DF804FB30B40446002005E0451CF0
:1019E00037330B54E8B2013AD2B262B1531E9B00B6
:1019F00044FA03F303F00F03092BF0D8451C3033EE
:101A00000B54E8B2EFE730BC70470000F0B585B08A
:101A1000B0F1000E0DDB704671B1012907D11446FB
:101A200008222146FFF7D7FF40B20023235405B018
:101A3000F0BDCEF10000EFE70025EFB27C1C64B2F0
:101A4000184981FB0031C317C3EBA103194603EB0F
:101A500083035E00831B303304A8054405F80C3C67
:101A6000084625460029E8DCBEF1000F03DB631EB3
:101A70005BB2002010E0023704AB1C442D2304F8B5
:101A80000C3C7CB2F3E704A9194411F90C1C115465
:101A9000013B5BB2013040B2002BF4DA0023135457
:101AA000C5E700BF6766666600230B601378FBB16D
:101AB00090F90030303BDBB2092B18D830B405E088
:101AC00090F90030303BDBB2092B0FD80C6804EBE7
:101AD000840465000D6010F9013B2B44303B0B6022
:101AE0001378013B13701378002BE9D130BC704799
:101AF000704708B901290CD00CB400B583B0084672
:101B000005AA01920499FFF75EFF03B05DF804EBAC
:101B100002B070477047000008B5054B1B780BB941
:101B2000002008BD0121034B1878FFF7AFFEF7E74F
:101B30007504002074040020F8B52A4EB5682846C4
:101B4000FEF74EFB84B2284B1C80B379002B36D1B4
:101B50002B78412B01D0042734E06B78542B01D033
:101B600004272FE0214B00221A605A609A60C3F8C4
:101B70000B20A31CFF2B18DD042723E0C9B9013378
:101B8000DBB298B2844214D9E85C2B28F6D0232823
:101B9000F4D00028F2D03D28F0D03F28EED001321A
:101BA000D2B20029EBD11946E9E7022300221146FF
:101BB000E7E729440D4804F009FB002702E0012B68
:101BC0000ED004270A4E22462946304604F0FEFA7B
:101BD000084B1B88A3530234034B1C803846F8BDC6
:101BE0000027EFE73C040020A40700204804002061
:101BF000A40600203071000870B50E460546264B3D
:101C000000EB400082001A4492F90100234A127846
:101C100002EB4204A1000B4493F90130984201D039
:101C2000002414E01E4B1B7833B900211D4B18789B
:101C3000FFF72CFE002070BD174B0B445B681A4A5F
:101C400012781A4930469847EFE70134E4B2022C83
:101C5000EBD8114B04EB44018A001A4492F90100BD
:101C600005EB45018A00134493F901309842ECD109
:101C700004EB44029300084AD35C002BE5D004EB4C
:101C80004406B200044B13445B68074A12780749C4
:101C900004209847D9E700BFB0000020AC00002026
:101CA0007504002074040020A6070020A40500206D
:101CB000064B5A78064B1B789A4204D80022044BF4
:101CC0001A70012070470020704700BF3C040020BC
:101CD00076040020064B5A78064B1B789A4204D9AA
:101CE0000133044A1370012070470020704700BF81
:101CF0003C0400207604002001207047002070473B
:101D000070B5154C154E337803EB43039A00A318B6
:101D1000134D144A12882946187AFEF753FD33787A
:101D200003EB43039A0014440F4A05F11401207A8F
:101D3000FEF748FD0D4B5A880AB9002070BD0C4CC7
:101D400021460020FEF73EFD0122A4F128010020DB
:101D5000FEF738FDF1E700BFB0000020AC00002026
:101D6000706D0008A4070020A40600203C04002099
:101D70000C6D000870B582B0002426461CE004EB10
:101D800044039A002C4B134493F901002B4B01930D
:101D9000092300932A4BFF222A4900F011FB50B37C
:101DA00001212046FFF728FF06460222264900208F
:101DB000FEF708FD0134E4B2022C39D804EB4403E9
:101DC0009A001D4B134493F901001C4B0193062309
:101DD00000931E4BFF221B4900F0F2FA0028CED0E0
:101DE00000212046FFF708FF064602221649002080
:101DF000FEF7E8FCDEE704EB4405AA000E4B1344B3
:101E000093F901000D4B019302230093104BFF2225
:101E10000C4900F0D5FA0028CCD002212046FFF76B
:101E2000EBFE0646022208490020FEF7CBFCC1E784
:101E3000304602B070BD00BFB0000020A6070020F1
:101E400034710008A4050020E46C00082C7100081F
:101E5000307100082DE9F0410025114B1D70114E25
:101E6000DFF84C80104C114F3B7803EB43039A0092
:101E7000A0183346FF22414690F9010000F018FBFC
:101E80003B7803EB43039A0014446368327841467D
:101E90000320984703233B7035702846BDE8F08146
:101EA00075040020A6070020B0000020AC00002030
:101EB000A40500200322044B1A700020034B187065
:101EC000034B1870704700BFAC0000207504002061
:101ED000A60700200020014B18707047A6070020BD
:101EE00038B51048104B8360104BC3600323037454
:101EF0000223437400240470C4740D4B43603221E8
:101F0000FFF788FC0B4D28702146FFF711FD28785C
:101F1000FFF7A8FC084A09492046FEF753FC204673
:101F200038BD00BF58040020C0710008D400002054
:101F30004071000874040020191B0008BC6C0008E4
:101F400010B584B004AC04E90E00114B1B781BB132
:101F50000923184604B010BD034601210C4A117034
:101F60000C4C04AA12E9070084E807000A4A13701F
:101F700000220A4B1A70FFF7DFFD03460028E8D164
:101F80000221074B1878FFF781FC0346E1E700BF09
:101F9000750400203C040020AC00002076040020E2
:101FA00074040020884202D2091AC8437047401ABC
:101FB00070470000014B1868704700BF880400207C
:101FC00000230BB100207047034A02EB03120021EB
:101FD00011720133DBB2F4E778040020002070476F
:101FE000002070470020704700207047024B03EB31
:101FF00000130020187270477804002010B50446C2
:10200000FFF7D8FF2401024B1851002010BD00BF7C
:102010007804002010B50446084B03EB00131B7A2C
:10202000023BDBB2012B06D9044800EB041001236C
:102030000372002010BDFFF7E1FFF5E778040020F0
:1020400038B50446164B03EB00131B7A012B0AD05C
:10205000FBB9134902018B5801338B500020012832
:1020600019D0002038BD0E4A0301D518D1580D4BA8
:102070001868FFF797FF6B68984206D303222A720D
:10208000EB6823B120469847E9E70020E7E7002006
:10209000E5E70020E3E72046FFF7BCFFE1E700BFEC
:1020A0007804002088040020034B03EB0010022377
:1020B00003720020704700BF78040020024B03EB3E
:1020C00000104160002070477804002010B50446DD
:1020D000FFF770FF2401024B1959FFF763FF10BD92
:1020E00078040020094B03EB00131B7A012B01D06D
:1020F0000020704770B5054E040133195D68FFF785
:1021000059FF3159FFF74EFF281A70BD780400209F
:10211000024B03EB0010007A704700BF78040020E8
:1021200038B505460C4601290BD039B102290BD030
:10213000074800EB05100472002038BDFFF756FF7A
:10214000F6E7FFF767FFF3E7FFF7AEFFF0E700BF43
:102150007804002029B1044B03EB0010C16000207B
:1021600070470620704700BF7804002010B5064A6B
:10217000136801331360002404B110BD2046FFF73B
:102180005FFF0134E4B2F7E78804002008B5FFF7E9
:1021900017FF08BD08B5FFF721FF08BD08B5FFF719
:1021A0001FFF08BD08B5FFF71DFF08BD08B5FFF705
:1021B0001BFF08BD08B51146FFF7CCFF08BD10B5E1
:1021C0001446FFF78FFF2060002010BD10B51446A5
:1021D000FFF79EFF2070002010BD08B5D1B2FFF7B9
:1021E0009FFF08BD10B51446FFF770FF2060002068
:1021F00010BD08B51146FFF761FF08BD074B03EBA3
:10220000C0039B78012B01D001207047034B03EBE7
:10221000C000436813F81100704700BF60720008E7
:102220000A4B03EBC0039B78012B06D0074B03EB53
:10223000C000436833F811007047044B03EBC00043
:10224000436803EB41014878704700BF60720008A3
:102250002DE9F04F83B0002300931E4631E0234B5D
:1022600003EBCB035B6803EB840923F8247041463E
:102270003046FFF7D5FF0546A9F802004146304633
:10228000FFF7BCFF10FB05F017FA80F7BFB201346F
:10229000E4B21FFA84F85445E1D3009A1346019939
:1022A0000B449F4220DC13460B449BB2009306E094
:1022B0000E4B03EBC6035B684FF6FF721A800136C4
:1022C000F6B2042E0CD8B346094B33F836300193DE
:1022D000002BEDD0054B13F836A0009F0024D8E763
:1022E000002003B0BDE8F08F0220FAE73872000842
:1022F000607200080020704700207047002070477F
:102300000020704708B5FFF7A3FF002008BD08B5FF
:10231000FFF7F0FF002008BD08B5FFF7EDFF002034
:1023200008BD08B5FFF7EAFF002008BD08B5FFF7B4
:10233000E7FF002008BD0023136001207047012043
:10234000704700000023012B17D830B40C4C04EB6D
:10235000C300002242710271590019448D00094ADC
:102360002A44117A8171526844F833200133DBB278
:10237000012BEBD9002030BC70470020704700BF14
:1023800030090020B0720008002070470B4B53F852
:10239000302003EBC0004379D15443795A1C817932
:1023A00092FBF1F301FB1323DBB2437102799342F9
:1023B00001D0002070470820704700BF300900207E
:1023C0002DE9F04780469DF82090DDF824E0844612
:1023D000364800EBC8004579047900268EF8006085
:1023E0008679301B284490FBF6F506FB1505B9F1FC
:1023F000000F57D0EDB24D4502D3002630462AE0FB
:102400000020BDE8F087294F57F83C7017F804A06A
:102410009F57BA4533D0254F07EBCC07BF793C44D3
:10242000A41B94FBF7FA07FB1A44E4B23544EDB25F
:102430009EF80070BE1B8EF80060064604F1010A8B
:102440001A4F07EBCC07BF799AFBF7F407FB14A4EC
:10245000E4B2013DEDB2CDB1C0B99EF80070974233
:10246000D1D2DFF848A05AF83CA01AF804A001F82D
:1024700007A09EF8007001378EF80070C3E70136A0
:10248000F6B2B1458CBF00200120D7E7012802D069
:102490000020BDE8F087054B03EBC80888F804402E
:1024A000BDE8F0874846BDE8F08700BF300900204E
:1024B000F0B58646164D05EBC0056F792C790026E0
:1024C0001E70AE79351B3D4495FBF6F706FB17579A
:1024D000FFB20BE0661C0E4D05EBCE05AD7996FB09
:1024E000F5F405FB1464E4B2013FFFB25FB11D785F
:1024F0009542EFD2064E56F83E60365D4E551D7839
:1025000001351D70E6E7024B03EBC0000471F0BD1E
:102510003009002008B501460020FFF737FF08BD4D
:1025200008B501460120FFF731FF08BD081AC000B9
:10253000704700002DE9F843264C4FF000636360BC
:1025400000262660244B1F6839463046FFF7EEFF11
:10255000A060012405E04FF480330FE00126013430
:10256000E4B2032C33D81D4B1A684FF6FF739A421E
:10257000F1D01B4B03EA8223DB0A1B029F42EDD200
:10258000144D4FEA440808EB04029300E818EF509A
:1025900004F1FF3E4FEA4E0303EB0E018A002A448A
:1025A000516873449A002A4493680B4443600A4B71
:1025B00053F8243007EB030949463846FFF7B6FFC6
:1025C000A0444FEA88031D44A8604F46C7E7304641
:1025D000BDE8F883700A0020C8720008E075FF1F8C
:1025E00000FC3F000020704700207047002070472B
:1025F0000020704708B501F06DF908B9002008BD4A
:10260000012008BD08B501F04DF908B9002008BD4A
:10261000012008BD10B400EB40039C00074B23448D
:102620009B68934208D3054B23445B68D3580B60E7
:1026300000205DF8044B70470120FAE7700A002083
:10264000F8B51F46069D00EB40039900114B0B4463
:102650009B68AB4202D201231846F8BD16460446D9
:10266000FFF7D0FF03460028F6D104EB44008200B8
:10267000084B1344596832463B462944002001F078
:102680007BF918B9FFF7B6FF0346E5E7FFF7B2FF9E
:102690000123E1E7700A002000EB40008200024BBA
:1026A00013449B680B607047700A002008B5FFF761
:1026B00041FF08BD08B5FFF797FF08BD08B5FFF754
:1026C00091FF08BD08B5FFF791FF08BD08B5FFF7FA
:1026D0008FFF08BD08B51146FFF7DEFF002008BDDB
:1026E00030B583B00446154601AA0549FEF7E0F867
:1026F000019A29462046FFF78DFF03B030BD00BF89
:10270000446C000830B585B00446154603AA064956
:10271000FEF7CEF8039B00932A4600232046FFF7DE
:102720008FFF05B030BD00BF446C0008002070472B
:10273000002070470020704700207047032915D003
:1027400008B50A46022908D0094B000119188988E2
:10275000185801F070FA002008BD054B00011A1846
:102760009188185801F06CFA002008BD05207047C8
:10277000D872000810B50C46044B00011A18918855
:10278000185801F051FA2070002010BDD8720008CE
:1027900086B003013C4AD358B3F1904F1FD00301D8
:1027A000394AD258394B9A4227D00301364AD25877
:1027B000374B9A422FD00301334AD258354B9A42B5
:1027C00037D00301304AD258334B9A423FD00001F0
:1027D0002D4B1A58314B9A4247D006B0704703F13F
:1027E000784303F50433DA6C42F00102DA64DB6CFF
:1027F00003F001030093009BD1E703F1784303F555
:102800000333DA6C42F00202DA64DB6C03F0020399
:102810000193019BC9E703F1784303F50233DA6CB6
:1028200042F00402DA64DB6C03F004030293029BBF
:10283000C1E703F1784303F50133DA6C42F0080293
:10284000DA64DB6C03F008030393039BB9E703F13D
:10285000784303F50033DA6C42F01002DA64DB6C83
:1028600003F010030493049BB1E703F1784303F5ED
:10287000FA33DA6C42F08002DA64DB6C03F0800336
:102880000593059BA9E700BFD87200080004004823
:1028900000080048000C004800100048001C0048D8
:1028A00070B586B00024264601E00134E4B2052C60
:1028B0001BD82046FFF76CFF0D4A2301D518A988C5
:1028C0000191A9680291297B0491697B0391A97BFD
:1028D000059101A9D05801F0D7F8E97B0329E4D08C
:1028E0002046FFF72BFF0646DFE7304606B070BDF7
:1028F000D872000808B5FFF7D3FF08BD08B5FFF789
:1029000017FF08BD08B5FFF711FF08BD08B5FFF7B1
:1029100011FF08BD08B5FFF70FFF08BD08B5114648
:10292000FFF728FF08BD08B5D1B2FFF707FF08BDC4
:1029300010B5002401E00134E4B2102C0CD8074B90
:1029400013F9240010F1050FF5DB03EB84039A78EB
:10295000597800F0E7FEEEE7002010BD04010020EA
:1029600010B5002401E00134E4B2102C0DD8084B5E
:1029700003EB8403DB78012BF5D1054B13F924001D
:102980000028F0DB00F000FFEDE7002010BD00BFE5
:102990000401002010B5002401E00134E4B2102C41
:1029A00007D8054B13F924000028F6DB00F0F8FEE9
:1029B000F3E7002010BD00BF0401002008B5FFF7B9
:1029C000E9FF002008BD08B5FFF7CAFF002008BDD9
:1029D000EFF3108353B9102803D9112808D0002031
:1029E0007047044B03EB8000C078704700207047AD
:1029F0000120704704010020084B1B889BB2012B6B
:102A000006D9064A13889BB2013B9BB213807047DC
:102A10000022024B1A8062B6704700BF8C0400206F
:102A200072B6034A13889BB201339BB2138070477E
:102A30008C040020112801D90520704738B50D46B7
:102A400004460ED0164B13F92000002816DB01298E
:102A500011D000F0A5FE124800EB8400C5700020E4
:102A600038BD012903D0FFF7DBFF002038BDFFF799
:102A7000C3FF002038BD00F087FEECE7B0F1FF3F58
:102A800001D0052038BD012907D000F03BFE0448E5
:102A900000EB8400C570002038BD00F03BFEF6E777
:102AA0000401002008B5FFF743FF002008BD08B56A
:102AB000FFF756FF002008BD08B5FFF76BFF0020A9
:102AC00008BD08B5FFF77AFF002008BD08B5FFF77D
:102AD0007AFF002008BD10B51446FFF779FF20707B
:102AE000002010BD08B5D1B2FFF7A4FF08BD7047A4
:102AF000FEE7FEE7FEE7FEE77047704708B500F027
:102B000083FE08BD70477047704708B5202001F06C
:102B10009BF808BD08B500F024F808BD08B500F022
:102B200025F808BD08B500F026F808BD08B500F086
:102B300023F808BD08B500F020F808BD08B500F07E
:102B40001DF808BD08B500F01AF808BD70477047B9
:102B500008B500F0B9FDFEF779F8FFF707FB08BDEF
:102B6000704708B5002000F0FBFB08BD08B5012048
:102B700000F0F6FB08BD704770477047704770471C
:102B8000BFF34F8F0549CA6802F4E062044B134358
:102B9000CB60BFF34F8F00BFFDE700BF00ED00E04B
:102BA0000400FA05294B1B6913F4807F26D1284BBA
:102BB000D3F8943013F0804F2FD1254BD3F89430B5
:102BC00013F0005F2DD1224BD3F8943013F0805FC7
:102BD0002BD11F4BD3F8943013F0806F29D11C4BAD
:102BE000D3F8943013F0006F27D1194BD3F89430F9
:102BF000002B26DB0022174B1A7006E04FF4807280
:102C0000124B9A610122134B1A70114AD2F8943078
:102C100043F40003C2F89430704707220D4B1A703A
:102C2000F3E702220B4B1A70EFE70322094B1A70ED
:102C3000EBE70122074B1A70E7E70422054B1A70F5
:102C4000E3E70622034B1A70DFE700BF0070004085
:102C5000001002408E0400200020704700B5B3B081
:102C6000304B1A6821925A6822921A692592DA68C2
:102C700024929A6823925A6926929A692792DA696D
:102C800028921A6A29925A6A2B929A6A2C92DA6AC4
:102C90002D921A6B2E925A6B2F929A6B3092DB6B9D
:102CA000319321A801F018F918B1012033B05DF873
:102CB00004FB0F231C931B4B1A6C1D925A6C1E9223
:102CC0009A6C1F92DB6C209304211CA801F0F0FB8E
:102CD00008B10120EAE74FF4007000F0EDFF08B101
:102CE0000120E3E74FF4003302930E4B1B6D1B935F
:102CF00002A801F069FD01F083FC0B4BA3FB00303F
:102D0000800900F05BFD042000F06EFD074B1A6E99
:102D100042F001021A661B6E03F001030193019B4E
:102D20000020C3E738730008D34D62100010024042
:102D300010B586B000238DF804308DF805308DF87D
:102D4000063040228DF8072004930593114B1B6831
:102D5000F3B1012201A90F4801F0AFFF20B900240F
:102D600024B1204606B010BD0124F9E701228DF8F8
:102D700000208DF801208DF8022000238DF803300B
:102D80006946044802F021F80028EAD00124E8E767
:102D90000024E6E7A00A002000B583B0124B9A6D2C
:102DA00042F080529A659A6D02F080520192019A27
:102DB000D3F8902042F40042C3F890200B4800233F
:102DC00080F821300A4A026043607F228260F92243
:102DD000C26003618361C36101F0FAFEFFF7A8FFDF
:102DE00003B05DF804FB00BF00100240A00A002001
:102DF0000028004008B5FFF7D5FEFFF72FFF034678
:102E000008B1184608BDFFF7C7FFFFF725FF0346C7
:102E1000F7E70020704700207047000003281ED805
:102E200000B583B0012805D0032816D0002003B0D8
:102E30005DF804FB0B4B9A6D42F080529A659B6DD6
:102E400003F080530193019B1F22074B9A610120DD
:102E500000F008FF00F016FFFEE7FFF791FE0020EC
:102E6000704700BF001002400070004008B501200C
:102E7000FFF7D4FF08BD08B50220FFF7CFFF08BD5C
:102E800010B5044601F0BCFB2060002010BD704767
:102E900008B5FFF7AFFF08BD08B5FFF7BAFF08BDDB
:102EA00008B5FFF7E3FF08BD08B5FFF7E4FF08BD6D
:102EB00008B5FFF7B0FF08BD08B5D0B2FFF7AEFF09
:102EC00008BD002070470020704700207047002098
:102ED0007047000008B5436803B108BD034BB3F861
:102EE0004020034902F0CAF9F7E700BF8C730008DD
:102EF000C40A002010B5064B185692B2054B642444
:102F000004FB003002F0BAF900B1012010BD00BF8F
:102F10008C730008C40A002070B50D4B1C560D4878
:102F2000642303FB040043685BB90A4D642303FB7D
:102F300004F3012680F85D60EC58636823F06003B9
:102F4000636092B202F0CAF800B1092070BD00BF00
:102F50008C730008C40A0020F8B50F4616460C4BC7
:102F60001B5603EB4303DD000A4B1D442846FEF7C6
:102F700023FDB0420AD3002404E02846FEF706FDF4
:102F800038550134B442F8D30020F8BD0120F8BD13
:102F90008C730008C40A002008B5FFF79BFF08BD2A
:102FA00008B5FFF797FF08BD002070470020704765
:102FB00000207047002070470020704708B50D4B77
:102FC0001A560D4B642000FB023002F03BFB072831
:102FD0000BD8DFE800F0040C0606060608080220FD
:102FE00008BD092008BD012008BD012008BD002042
:102FF00008BD00BF8C730008C40A002038B51C4B04
:103000001C561C4B53F824500DB9052038BD04EB59
:1030100084031A01184B13441B8F9D4201D90520CC
:1030200038BD154B13449B69B3F5E06F04D0B3F57D
:10303000706F08D0012038BD0F4B13442A46D86B5F
:1030400003F0C4F808E004EB84031A010A4B1344AC
:103050006A00D86B03F0BAF804EB84031A01064B3C
:1030600013442A46D96BE0B2FFF756FF38BD00BFC4
:103070008C730008C40A00208C7300080C4B18568F
:103080000C4B53F820200AB90520704710B500EB0F
:1030900080031C01084B23445B68B3F5827F03D097
:1030A000C0B2FFF759FF10BDC0B2FFF723FF10BD3C
:1030B0008C730008C40A00208C730008034B1A5656
:1030C000034B43F822100020704700BF8C730008A8
:1030D000C40A002008B5054B1B5603EB4303DA0076
:1030E00003481044FEF768FC08BD00BF8C7300085D
:1030F000C40A002008B5FFF757FF002008BD08B537
:10310000FFF756FF002008BD08B5FFF74FFF00206E
:1031100008BD08B5FFF74EFF002008BD08B5FFF752
:103120004BFF002008BD10B51446FFF7D3FF206009
:10313000002010BD08B51146FFF7C0FF08BD08B557
:103140001146FFF79BFF08BD08B51146FFF756FF74
:1031500008BD10B51446FFF731FF2070002010BDE8
:10316000F8B50F46164600EB4000C500094B1D445C
:103170002846FEF721FCB0420AD3002404E028468A
:10318000FEF704FC38550134B442F8D30020F8BDF2
:103190000120F8BDC40A002038B50B4B53F820209D
:1031A000C0EB0013DC002C25084B05FB0030436806
:1031B00003FB02F3DB0092B20548204402F00DFF4E
:1031C00000B1012038BD00BFF80A0020907300084C
:1031D000000B002082B00368114A934204D0114AC8
:1031E00093420CD002B070470F4B1A6E42F48042EB
:1031F0001A661B6E03F480430093009B09E00A4BA0
:103200009A6D42F400329A659B6D03F4003301938A
:10321000019B0268136843F020031360E2E700BFDC
:1032200000380140004400400010024003680D4A8D
:10323000934203D00C4A93420AD070470B4B1A6C4E
:1032400042F480421A641A6C22F480421A64704775
:10325000064B9A6B42F400329A639A6B22F4003266
:103260009A63EAE700380140004400400010024041
:1032700010B582B01A4B93F9003003EB4303D8002A
:103280000830184B18440430FEF796FB68B9144B0D
:1032900093F90030C3EB0313DA00134B9A58136809
:1032A00023F08003136002B010BD0D4C94F9003080
:1032B00003EB4303D80008300A4B18440430FEF7F0
:1032C00065FB02A901F8010D94F90030C3EB03136B
:1032D000D8000122044B184402F030FAE3E700BFA3
:1032E0008F040020C40A0020000B002010B5044603
:1032F000164B93F900202C23154903FB02135B6A3C
:1033000043B1144A1078984701221249204602F02E
:1033100051FA10BD02EB4202D3000F481844FEF7E9
:103320004DFB30B9094B93F9003008210B4AD154B9
:10333000EAE7064B93F9003003EB4303DA00054B51
:10334000197805481044FEF70AFBDDE78F040020DA
:1033500090730008F00B0020C40A0020F40A00203B
:1033600008B5C0EB0012D300034A1070034818449C
:1033700002F0FCFA08BD00BF8F040020000B002003
:1033800070470000F8B500242CE0184A2C2303FBFA
:1033900004F3D518D058164923011B1BDA008B18EB
:1033A00088506A685A602A7A9A60AA7ADA606A7AD9
:1033B0001A6100229A610C215961DA6166003319A1
:1033C000D8000C4FAA8AA9693844FEF7C1FA2644EE
:1033D000F00008303844AA8929690430FEF7B8FAA9
:1033E0000134E4B2012CD0D90020F8BD907300085C
:1033F000000B0020C40A002010B50024012C0AD8BC
:10340000C4EB0412D3000648184402F077F920B93F
:103410000134E4B2F2E7002010BD012010BD00BF6E
:10342000000B002038B50024012C14D8C4EB041381
:10343000DD000C4B1D44284602F060F968B92846AF
:1034400002F06BFE58B901220749284602F0B2F992
:103450000134E4B2E8E7002038BD012038BD012086
:1034600038BD00BF000B0020F00B0020002070478B
:10347000024B43F820100020704700BFF80A0020DC
:1034800008B500EB4000C30002481844FEF794FA68
:1034900008BD00BFC40A002008B5044B53F8202023
:1034A0000AB9052008BDFFF777FE08BDF80A00201D
:1034B00008B5034B53F82020FFF752FE08BD00BFAC
:1034C000F80A0020014B185C704700BFF40A002086
:1034D00008B5FFF757FF002008BD08B5FFF7A2FFAA
:1034E000002008BD08B5FFF787FF002008BD08B51C
:1034F000FFF7BCFF002008BD0020704710B5144640
:1035000040B2FFF7BDFF2060002010BD08B5114696
:1035100040B2FFF7ADFF08BD08B5114640B2FFF756
:10352000C7FF08BD08B5114640B2FFF7B5FF08BD9B
:1035300010B5144640B2FFF7C5FF2070002010BD43
:1035400008B5FDF789F8FEF7FDFEFDF7B9F8FEF7BF
:103550001BFF08BD08B50520FDF7F5FAC0B201381C
:10356000092841D8DFE800F01E10334040404040B9
:10357000400501211D48FDF73FFDFDF787F80021BB
:103580000520FDF700FB08BD01211948FDF734FDBA
:10359000022218490020FDF715F900210520FDF74A
:1035A000F2FA08BD01211448FDF726FDFDF7DEF80B
:1035B00000210520FDF7E7FA01220E490020FDF762
:1035C00001F9FDF7E9F80220FDF73EF808BD0121F9
:1035D0000A48FDF711FD032206490020FDF7F2F825
:1035E00000210520FDF7CFFA08BD00BFE8730008F1
:1035F000F8730008346D0008087400081C74000893
:10360000DFF834D0002103E00C4B5B584350043109
:103610000B480C4B42189A42F6D30B4A02E00023A7
:1036200042F8043B094B9A42F9D300F013F802F038
:10363000A9FDFCF7B5FFFEE700000220BC740008FE
:1036400000000020D0010020D0010020C40E002086
:10365000FEE700000F49D1F8883043F47003C1F849
:1036600088300D4B1A6842F001021A600020986001
:103670001A6822F0A85222F410221A604FF48052E5
:10368000DA601A6822F480221A6098614FF00063B1
:103690008B60704700ED00E00010024010B504465A
:1036A000074B1868074BA3FB0030800900F086F831
:1036B000002221464FF0FF3000F034F8002010BD0A
:1036C00048010020D34D6210024A13680133136091
:1036D000704700BFBC0E0020014B1868704700BF48
:1036E000BC0E002038B50446FFF7F6FF0546B4F1DE
:1036F000FF3F00D00134FFF7EFFF401B8442FAD8B0
:1037000038BD0000024A136823F0020313607047BB
:1037100010E000E0024A136843F0020313607047B0
:1037200010E000E030B4164BDB68C3F30223C3F1B2
:103730000704042C28BF04241D1D062D17D9033BA4
:10374000012505FA04F4013C2140994005FA03F3F0
:10375000013B1340194300280BDB0901C9B200F1FA
:10376000604000F5614080F8001330BC70470023D2
:10377000E6E700F00F000901C9B2024B1954F4E763
:1037800000ED00E014ED00E0420900F01F0001230D
:1037900003FA00F0014B43F82200704700E100E01B
:1037A000430900F01F00012202FA00F02033024A10
:1037B00042F82300704700BF00E100E00138B0F19B
:1037C000807F0AD2064B5860F021064A82F8231007
:1037D0000020986007221A6070470120704700BFE0
:1037E00010E000E000ED00E0042805D0054A136871
:1037F00023F0040313607047024A136843F0040384
:103800001360704710E000E008B5FFF7A1F908BDAC
:1038100008B590F82530DBB2022B03D00423C36334
:10382000012008BD0268136823F00E0313600268CC
:10383000136823F001031360016C436C03F01C0355
:10384000012202FA03F34B6080F82520002380F860
:103850002430836B13B19847002008BD002008BDB9
:1038600010B4054C616941F001016161026043607F
:103870005DF8044B704700BF00200240084A5369BE
:1038800043F48023536172B6402351F8042B40F86F
:10389000042B013B13F0FF03F7D162B6704700BF62
:1038A00000200240094B5B69002B01DB00207047C0
:1038B000064B074A9A6002F188329A605B69002BD6
:1038C00001DB002070470120704700BF002002404C
:1038D00023016745034A536943F0004353610020C5
:1038E000704700BF0020024038B50446FFF7F4FEE1
:1038F00005461F4B1B6913F4803F09D0B4F1FF3F0D
:10390000F7D0FFF7E9FE401B8442F2D8032038BD10
:10391000174A136923F07F4323F47D0323F4705384
:1039200023F00503926902F00042134311D01149BC
:103930004A681A434A6013F0404203D00C49886930
:1039400002438A6133F040430DD0094A13610120DC
:1039500038BD074B1B6913F0010F06D00122044B41
:103960001A61002038BD012038BD002038BD00BFDD
:10397000002002404C0100202DE9F041284C247821
:10398000012C03D102242046BDE8F0819846174659
:103990000E4605460122224B1A704CF25030FFF7BA
:1039A000A3FF044608BB00221D4B5A601D4B1B6839
:1039B00013F4806F1DD01B4A136823F480631360D7
:1039C0000222174B1A77C5B16B1E012B1CD900259B
:1039D0004CF25030FFF788FF044625B1114A536975
:1039E00023EA0505556100F01FF800220C4B1A7000
:1039F000C9E700220A4B1A77E5E73A4643463046C4
:103A0000FFF72EFF0125E3E739463046FFF736FF83
:103A1000022D01D00025DBE74FF48025D8E700BF59
:103A20004C01002000200240154B1B7FDBB2012B14
:103A300009D0032B07D0023BDBB2012B11D90022A6
:103A40000F4B1A7770470F4A116841F400611160FB
:103A5000116821F400611160116841F40071116076
:103A6000E9E7084B1A6842F480521A601A6822F497
:103A700080521A601A6842F480621A60DFE700BF61
:103A80004C01002000200240F0B583B000238CE000
:103A9000DE08083650F8264003F0070E4FEA8E0E77
:103AA0000F2707FA0EF724EA07040F6907FA0EF743
:103AB0003C4340F8264087E086682640CF6807FAF6
:103AC0000EF73E438660466826EA05054E68C6F353
:103AD00000169E4035434560C5682C408D6805FA48
:103AE0000EF52C43C4604C6814F0805F5CD04A4CE7
:103AF000256E45F001052566246E04F0010401944D
:103B0000019C9D08AE1C454C54F8264003F003066A
:103B1000B6000F27B74024EA0704B0F1904F70D0E9
:103B20003F4FB8426FD007F58067B8426DD007F5B8
:103B30008067B8426BD007F58067B8425FD007272F
:103B400007FA06F634430235344E46F82540354C24
:103B50002568D44305EA04064F6817F4803F01D076
:103B600042EA05062F4D2E606D6804EA05064F688F
:103B700017F4003F01D042EA05062A4D6E60AD6899
:103B800004EA05064F6817F4801F01D042EA0506D3
:103B9000244DAE60ED682C404E6816F4001F01D035
:103BA00042EA05041F4AD46001330A6832FA03F47A
:103BB0002FD001259D402A40F6D04C68022C3FF4BE
:103BC00067AF122C3FF464AF06684FEA430E03243C
:103BD00004FA0EF4E44326404F6807F0030707FA9F
:103BE0000EF73E4306604E68771E012F7FF664AFE6
:103BF000112E3FF461AF122E7FF46EAF5CE7042705
:103C00009EE700279CE701279AE7022798E703270A
:103C100096E703B0F0BD00BF001002400000014075
:103C200000040048000401400369194201D100204A
:103C30007047012070470AB98162704781617047FF
:103C4000436959404161704708B5054B5B690342C0
:103C500000D108BD024B5861FEF782FFF9E700BFB3
:103C600000040140064AD36800F01F0123EA010363
:103C700043EA5010D060936819439160704700BFC9
:103C800000700040064A136823F0070343F0030363
:103C90001360044A136943F00403136130BF704793
:103CA0000070004000ED00E0024B186800F4C060B6
:103CB000704700BF00700040B0F5007F0FD0204B70
:103CC0001B6803F4C063B3F5806F37D01C4A1368D8
:103CD00023F4C06343F48063136000207047184BE3
:103CE0001B6803F4C063B3F5007F23D0144A136844
:103CF00023F4C06343F400731360124B1B6802F19A
:103D0000467202F55B3202F28322A2FB03239A0C75
:103D1000322303FB02F300E0013B23B1084A52695E
:103D200012F4806FF8D1064B5B6913F4806F03D0F7
:103D30000320704700207047002070470020704724
:103D4000007000404801002030B583B00546204B8C
:103D50009B6D13F0805F0BD0FFF7A6FFB0F5007FDF
:103D600017D0802D1FD82DD0702D2DD000211BE015
:103D7000174CA36D43F08053A365A36D03F08053EC
:103D80000193019BFFF790FFA36D23F08053A36580
:103D9000E4E7802D03D9A02D03D9022104E00021FE
:103DA00002E0012100E003210A4A136823F007031F
:103DB0000B431360136803F00703994206D00120F8
:103DC00003B030BD0221EFE70121EDE70020F7E766
:103DD00000100240002002403B4B9B6813F00C0F88
:103DE0001AD0394B9B6803F00C030C2B0ED0364BCA
:103DF0009B6803F00C03042B2FD0334B9B6803F01C
:103E00000C03082B2CD00020014618E02E4BDB6859
:103E100003F00303012BEAD12B4B1B6813F0080FAF
:103E200014D1294BD3F89430C3F30323274A52F813
:103E30002310254B9B6813F00C0F0CD00020224A56
:103E4000936803F00C030C2B0DD070471E4B1B68BE
:103E5000C3F30313EAE70846F1E71D480021EEE744
:103E60001C480021EBE71346D26802F00302DB682E
:103E7000C3F302130133022A0AD0032A1AD0B1FB7A
:103E8000F3F3114AD068C0F3062000FB03F008E00A
:103E90000F48B0FBF3F30C4AD068C0F3062000FBD8
:103EA00003F0094BDB68C3F3416301335B00B0FBF4
:103EB000F3F0CAE70748B0FBF3F3034AD068C0F356
:103EC000062000FB03F0ECE70010024048740008F5
:103ED0000024F40000127A00002800F0D78270B5A8
:103EE00082B00446036813F0100F3FD0974B9B68D5
:103EF00013F00C0F40F09280944B1B6813F0020FEC
:103F000003D08369002B00F0C382206A8F4B1B68AB
:103F100013F0080F62D08D4B1B6803F0F00383424F
:103F200063D2FFF711FF002840F0B482874B1A6874
:103F300042F008021A601A6822F0F002216A0A436D
:103F40001A605A6822F47F42E16942EA01225A600B
:103F5000FFF742FF7D4B9B68C3F303137C4AD35C9E
:103F6000D8407C4B18600020FFF798FB236813F0C3
:103F7000010F00F0A180754B9B6803F00C03082B28
:103F800000F09180714B9B6803F00C030C2B00F048
:103F900083806368B3F5803F00F0B580B3F5A02F50
:103FA00000F0B780694B1A6822F480321A601A68F0
:103FB00022F480221A606368002B00F0B780FFF7BC
:103FC0008BFB0546614B1B6813F4003F74D1FFF770
:103FD00083FB401B6428F5D9032062E25B4BD3F8D6
:103FE00094301B0903F0F00399E7584B1A6842F02C
:103FF00008021A601A6822F0F002216A0A431A6065
:104000005A6822F47F42E16942EA01225A60206A3A
:10401000FFF79AFE00289BD0012042E2836933B368
:104020004A4A136843F001031360FFF755FB054646
:10403000464B1B6813F0020F06D1FFF74DFB401BE8
:104040000228F5D903202CE2404B1A6842F00802FE
:104050001A601A6822F0F002216A0A431A605A684C
:1040600022F47F42E16942EA01225A607EE7374A40
:10407000136823F001031360FFF72EFB0546334B53
:104080001B6813F0020F3FF471AFFFF725FB401BD5
:104090000228F4D9032004E22C4BDB6803F003036D
:1040A000032B7FF476AF294B1B6813F4003F03D03A
:1040B0006368002B00F0F081236813F0020F62D0D8
:1040C000224B9B6803F00C03042B4BD01F4B9B68C7
:1040D00003F00C030C2B3FD0E368002B79D01B4A74
:1040E000136843F480731360FFF7F6FA0546174B25
:1040F0001B6813F4806F63D1FFF7EEFA401B0228B0
:10410000F5D90320CDE1114A136843F480331360DD
:1041100051E703F18043A3F53C331A6842F480224F
:104120001A601A6842F480321A6044E7FFF7D4FA42
:104130000546064B1B6813F4003FBDD0FFF7CCFAD1
:10414000401B6428F5D90320ABE100BF00100240FA
:104150003074000848010020B14BDB6803F0030312
:10416000022BB9D1AE4B1B6813F4806F03D0E36808
:10417000002B00F09381AA4A536823F0FE43216983
:1041800043EA01635360236813F0080F4CD063695E
:104190009BB3A34AD2F8943043F00103C2F89430A1
:1041A000FFF79AFA05469E4BD3F8943013F0020FAE
:1041B0003AD1FFF791FA401B0228F4D9032070E1AD
:1041C000974A536823F0FE43216943EA0163536031
:1041D000D9E7934A136823F480731360FFF77CFADE
:1041E00005468F4B1B6813F4806FCCD0FFF774FA31
:1041F000401B0228F5D9032053E1894AD2F89430B4
:1042000023F00103C2F89430FFF766FA0546844BA9
:10421000D3F8943013F0020F06D0FFF75DFA401B7D
:104220000228F4D903203CE1236813F0040F7AD06C
:104230007B4B9B6D13F0805F36D1794B9A6D42F0CA
:1042400080529A659B6D03F080530193019B012579
:10425000744B1B6813F4807F28D0A368012B39D0DE
:10426000052B3FD06E4BD3F8902022F00102C3F80B
:104270009020D3F8902022F00402C3F89020A36885
:10428000002B3DD0FFF728FA0646654BD3F8903057
:1042900013F0020F46D1FFF71FFA801B41F288335B
:1042A0009842F2D90320FCE00025D1E75D4A13686B
:1042B00043F480731360FFF70FFA0646594B1B68EF
:1042C00013F4807FC9D1FFF707FA801B0228F5D9C4
:1042D0000320E6E0524AD2F8903043F00103C2F8DE
:1042E0009030CCE74E4BD3F8902042F00402C3F854
:1042F0009020D3F8902042F00102C3F89020BEE74E
:10430000FFF7EAF90646464BD3F8903013F0020F58
:1043100008D0FFF7E1F9801B41F288339842F2D9C7
:104320000320BEE0E5B9236813F0200F35D0636A9F
:10433000E3B13B4AD2F8983043F00103C2F8983019
:10434000FFF7CAF90546364BD3F8983013F0020F41
:1043500023D1FFF7C1F9401B0228F4D90320A0E0C4
:104360002F4A936D23F080539365DCE72C4AD2F8F3
:10437000983023F00103C2F89830FFF7ADF90546F5
:10438000274BD3F8983013F0020F06D0FFF7A4F9AB
:10439000401B0228F4D9032083E0A36A002B7FD0BE
:1043A0001F4A926802F00C020C2A7CD0022B23D008
:1043B0001B4B1A6822F080721A601B6813F0006FA2
:1043C00004D1174AD36823F00303D360144AD36897
:1043D00023F0887323F48033D360FFF77DF904461C
:1043E0000F4B1B6813F0007F4ED0FFF775F9001BD1
:1043F0000228F5D9032054E0094A136823F080739A
:104400001360FFF769F90546054B1B6813F0007F41
:104410000AD0FFF761F9401B0228F5D9032040E0DC
:104420000010024000700040236B5A1E636B1B0299
:1044300043EA0213E26A1343E26B5208013A43EA89
:104440004253226C5208013A43EA4263A26B43EAA8
:10445000C263164AD360136843F080731360D36855
:1044600043F08073D360FFF737F904460F4B1B68A6
:1044700013F0007F06D1FFF72FF9001B0228F5D9B2
:1044800003200EE000200CE000200AE0012070472D
:10449000012006E0012004E0012002E0012000E00C
:1044A000002002B070BD0120FBE700BF00100240F9
:1044B000002800F0998070B504464D4B1B6803F04E
:1044C00007038B420CD24A4A136823F007030B43BD
:1044D0001360136803F00703994201D0012070BDF7
:1044E0000D46236813F0010F39D06368032B09D000
:1044F000022B26D063BB3F4A126812F0020F06D18E
:10450000012070BD3B4A126812F0007F6ED039491D
:104510008A6822F0030213438B60FFF7DDF806463A
:10452000344B9B6803F00C036268B3EB820F16D028
:10453000FFF7D2F8801B41F288339842F0D903206C
:1045400070BD2C4A126812F4003FE0D1012070BD0A
:10455000284A126812F4806FD9D1012070BD2368F7
:1045600013F0020F06D0234A936823F0F003A168EA
:104570000B4393601E4B1B6803F007039D420CD254
:104580001B4A136823F007032B431360136803F0DF
:1045900007039D4201D0012070BD236813F0040F72
:1045A00006D0144A936823F4E063E1680B439360F8
:1045B000236813F0080F07D00E4A936823F4605362
:1045C000216943EAC1039360FFF706FC094B9B682E
:1045D000C3F30313084AD35CD840084B186000208B
:1045E000FFF75CF8002070BD01207047012070BD0E
:1045F00000200240001002403074000848010020F2
:10460000014B1868704700BF4801002008B5FFF74C
:10461000F7FF044B9B68C3F30223034AD35CD840E3
:1046200008BD00BF001002404074000808B5FFF745
:10463000E7FF044B9B68C3F3C223034AD35CD84013
:1046400008BD00BF0010024040740008F8B55D4B83
:10465000DB6813F0030F19D05A4BDB6803F0030338
:104660000268934204D00124002C48D02046F8BDB3
:10467000002A42D0534BDB68C3F302130133426874
:10468000934201D00124EFE70024EDE70368022BF9
:1046900018D0032B1DD0012B0DD00124002CE3D109
:1046A000484EF26822F073024568013D43EA051363
:1046B0001343F360D8E7434A126812F0020F14D094
:1046C0000024EBE73F4A126812F4806F0FD00024F9
:1046D000E4E73C4A126812F4003F0AD1394A1268F2
:1046E00012F4802F07D00024D8E70124D6E7012454
:1046F000D4E70024D2E70124D0E70124B4E70F4631
:104700000546304A136823F080631360FEF7E4FF28
:1047100006462C4B1B6813F0006F05D0FEF7DCFF3C
:10472000801B0228F5D90324002C9FD147BB2549C3
:104730000B6923F0784323F4FE43A868EA68D206A5
:1047400042EA002213430B611E4A136843F0806360
:104750001360FEF7C1FF06461A4B1B6813F0006F8B
:1047600005D1FEF7B9FF801B0228F5D90324002CE0
:104770007FF47CAF134A1369A9690B43136175E792
:10478000012F0FD00F48026922F0C06222F4FE42CE
:10479000A9686B695B08013B5B0643EA012313438D
:1047A0000361D1E70748026922F4C00222F4FE4205
:1047B000A9682B695B08013B5B0543EA01231343AE
:1047C0000361C1E7001002402DE9F04182B00446C8
:1047D000036813F4006F24D0C36CB3F5000F13D03B
:1047E000B3F5400F02D0B3B1012700E00027002F3E
:1047F0006FD1BD4AD2F8883023F44003E16C0B43FB
:10480000C2F888303E460EE0B74AD36843F480339E
:10481000D3600027EBE700210430FFF717FF0746BE
:10482000E5E700263746236813F4003F6DD0AE4B12
:104830009B6D13F0805F4ED1AB4B9A6D42F080526E
:104840009A659B6D03F080530193019B4FF0010823
:10485000A64A136843F480731360FEF73DFF0546D4
:10486000A24B1B6813F4807F05D1FEF735FF401B78
:104870000228F5D90327002F42D19B4BD3F8903063
:1048800013F4407315D0626E934212D0964AD2F858
:10489000903023F44073D2F8901041F48031C2F884
:1048A0009010D2F8901021F48031C2F89010C2F824
:1048B000903013F0010F11D1002F40F013818A4A7C
:1048C000D2F8903023F44073616E0B43C2F89030FD
:1048D00017E03E46A7E74FF00008B9E7FEF7FCFEF9
:1048E0000546814BD3F8903013F0020FE4D1FEF768
:1048F000F3FE401B41F288339842F2D90327DBE7ED
:104900003E46B8F1000F40F0F380236813F0010F2A
:1049100008D0754AD2F8883023F00303216A0B438C
:10492000C2F88830236813F0020F08D06E4AD2F81C
:10493000883023F00C03616A0B43C2F88830236887
:1049400013F0040F08D0684AD2F8883023F03003FF
:10495000A16A0B43C2F88830236813F0080F08D00F
:10496000614AD2F8883023F0C003E16A0B43C2F8F1
:104970008830236813F0200F08D05B4AD2F88830C3
:1049800023F44063216B0B43C2F88830236813F48F
:10499000007F08D0544AD2F8883023F44023616C59
:1049A0000B43C2F88830236813F4806F08D04E4A56
:1049B000D2F8883023F44013A16C0B43C2F888303E
:1049C000236813F0400F08D0474AD2F8883023F408
:1049D0004053616B0B43C2F88830236813F0800F9B
:1049E00008D0414AD2F8883023F44043A16B0B43EE
:1049F000C2F88830236813F4807F08D03A4AD2F88E
:104A0000883023F44033E16B0B43C2F888302368CD
:104A100013F4801F08D0344AD2F89C3023F00303EB
:104A2000216C0B43C2F89C30236813F4005F0FD055
:104A30002D4AD2F8883023F04063216D0B43C2F831
:104A40008830236DB3F1006F58D0B3F1806F5AD026
:104A5000236813F4002F0FD0234AD2F8883023F0B4
:104A60004063616D0B43C2F88830636DB3F1006F32
:104A700051D0B3F1806F53D0236813F4802F0FD03F
:104A8000194AD2F8883023F04063A16D0B43C2F875
:104A90008830A36DB3F1006F4AD0B3F1806F4CD072
:104AA000236813F4804F0CD00F4AD2F8883023F0DB
:104AB0004053E16D0B43C2F88830E36DB3F1805F82
:104AC00043D0236813F4803F08D0074AD2F88830D7
:104AD00023F00043216E0B43C2F88830304602B009
:104AE000BDE8F0813E460CE7001002400070004037
:104AF0001A4A936D23F08053936506E7D36843F415
:104B00008013D360A4E70121201DFFF79FFD00283B
:104B10009ED006469CE7D36843F48013D360ABE78E
:104B20000121201DFFF792FD0028A5D00646A3E72E
:104B3000D36843F48013D360B2E70121201DFFF74F
:104B400085FD0028ACD00646AAE70221201DFFF70C
:104B50007DFD0028B5D00646B3E700BF0010024037
:104B6000704738B504460268D36823F0A003D360C9
:104B7000FEF7B2FD05462368DB6813F0200F07D16E
:104B8000FEF7AAFD401BB0F57A7FF4D9032038BDAB
:104B9000002038BD38B50368DA6812F0400F01D044
:104BA000002038BD04464FF0FF32DA60FEF794FD76
:104BB00005462368DB6813F0400F07D1FEF78CFD34
:104BC000401BB0F57A7FF4D9032038BD002038BDF2
:104BD00038B5002864D0044690F82130002B45D029
:104BE000022384F821302368CA225A6223685322A0
:104BF0005A622046FFF7CEFF054600283BD12268C7
:104C0000936823F4E00323F04003936021688A68EB
:104C1000636820690343A069034313438B602368DF
:104C2000E2681A6122681369A16843EA01431361CB
:104C30002268D36823F08003D36023689B6813F055
:104C4000200F20D02268D36C23F00303D3642168A3
:104C5000CB6CE269606902431343CB642368FF2293
:104C60005A62012384F82130284638BD80F820306C
:104C7000FFF776FFB4E72368FF225A62042384F823
:104C800021300125F0E72046FFF76BFF0028D9D03F
:104C90002368FF225A62042384F821300125E3E7C8
:104CA0000125E1E7002302E001330A38C0B20928F8
:104CB000FAD81B01DBB218437047F8B590F82030E2
:104CC000012B7FD00E460446012380F820300223BA
:104CD00080F82130002A48D103689B6813F0400F08
:104CE00001D10023CB703078FFF7DCFF050470782A
:104CF000FFF7D8FF45EA0025B078FFF7D3FF284338
:104D0000F57840EA05452368CA225A62236853228F
:104D10005A622046FFF73EFF0746002837D1236836
:104D200005F07F3525F0FE451D602268936823F469
:104D30008023936021688B68F268306902431343D3
:104D40008B602268D36823F08003D36023689B685C
:104D500013F0200F26D02368FF225A62012384F823
:104D60002130002384F820302DE003689B6813F085
:104D7000400F01D10023CB7035787078000240EAF3
:104D80000540B5782843F57840EA0545BBE7236838
:104D9000FF225A62042384F82130002384F8203053
:104DA000012710E02046FFF7DCFE0028D3D023685F
:104DB000FF225A62042384F82130002384F8203033
:104DC000012700E002273846F8BD70B590F8203082
:104DD000012B6DD0012380F82030022380F8213090
:104DE0003AB94B7813F0100F03D003F0EF030A33F6
:104DF0004B700E460446002A34D1C878FFF752FFA4
:104E000005047078FFF74EFF45EA0025B078FFF7FC
:104E100049FF2843357840EA45352368CA225A625B
:104E2000236853225A622046FFF7B4FE064620BB91
:104E3000236825F07F4525F0C0055D602268D368B2
:104E400023F08003D36023689B6813F0200F1FD0EA
:104E50002368FF225A62012384F82130002384F85A
:104E6000203026E048788D78CB78000240EA034075
:104E700028430D7840EA4535CFE72368FF225A6280
:104E8000042384F82130002384F82030012610E028
:104E90002046FFF766FE0028DAD02368FF225A6218
:104EA000042384F82130002384F82030012600E018
:104EB0000226304670BDF8B505460F4616461C461C
:104EC00039E02CB1FEF708FC069BC01A844232D8A8
:104ED0002A68536823F0E00353606B68B3F5827F60
:104EE0000BD0AB6AB3F5005F14D0012385F85D30B9
:104EF000002385F85C300320F8BDAB68B3F5004FA4
:104F000002D0B3F5806FECD12A68136823F0400318
:104F10001360E6E72A68136823F4005313602A68D5
:104F2000136843F400531360DFE70123B34209D051
:104F3000B4F1FF3FC5D12B689B6837EA0303F4D077
:104F40000023F3E70020F8BDF0B583B007460C4618
:104F500015461E4602E0B6F1FF3F10D13A6893684D
:104F60002340AB423FD0B4F5C06FF4D1002DF2D155
:104F7000137BDBB28DF807309DF80730EBE72EB1DD
:104F8000FEF7AAFB089BC01A8642E7D83A68536826
:104F900023F0E00353607B68B3F5827F0BD0BB6ADC
:104FA000B3F5005F14D0012387F85D30002387F844
:104FB0005C30032018E0BB68B3F5004F02D0B3F5B6
:104FC000806FECD13A68136823F040031360E6E782
:104FD0003A68136823F4005313603A68136843F483
:104FE00000531360DFE7002003B0F0BD70B582B05E
:104FF00004460D46164600920B4600224FF4C0515F
:10500000FFF7A2FF38B1236E43F02003236603238A
:10501000184602B070BD00962B4600228021204623
:10502000FFF749FF28B1236E43F0200323660323D3
:10503000EEE700962B4600224FF4C0612046FFF7B2
:1050400083FF03460028E3D0236E43F0200323664A
:105050000323DDE770B582B004460D46164643686B
:10506000B3F5827F10D000962B4600228021204687
:10507000FFF721FF0346A0B1236E43F02003236610
:105080000323184602B070BD8368B3F5004F02D009
:10509000B3F5806FE7D12268136823F040031360F3
:1050A000E1E76268B2F5827FEBD1A268B2F5004F0A
:1050B00002D0B2F5806FE4D100962B4600224FF467
:1050C000C0612046FFF740FF03460028D9D0236E79
:1050D00043F0200323660323D3E70000034690F840
:1050E0005C00012847D0012083F85C00002939D0FA
:1050F000002A39D093F85D00C0B2012801D0022007
:1051000033E0032083F85D000020186699639A87D6
:10511000DA871864A3F84400A3F84600D864DA6874
:10512000B2F5E06F15D9154A1A659A68B2F5004FC5
:1051300012D019684A6842F0A0024A601A681168E1
:1051400011F0400F15D1116841F0400111600020AD
:105150000BE00B4A1A65E8E719680A6842F48042D6
:105160000A60E6E7012000E00120002283F85C20CD
:1051700070470020F9E70220704700BFD9530008AC
:10518000B353000830B490F85C40012C6CD001247B
:1051900080F85C4090F85D40E4B24568012C10D086
:1051A000B5F5827F06D00223002280F85C201846E5
:1051B00030BC70478568002D4CD1042C01D00223EF
:1051C000F2E7002948D0002A48D0002B48D090F8B8
:1051D0005D40E4B2042C02D0052480F85D40002438
:1051E000046681638387C3870264A0F84430A0F813
:1051F0004630C368B3F5E06F21D91C4BC3641C4B28
:105200000365C368B3F5E06F04D8B0F846309BB2CD
:10521000012B19D90268536823F480535360026844
:10522000536843F0E003536003681A6812F0400FBC
:1052300018D11A6842F040021A600023B4E70D4BFF
:10524000C3640D4B0365DCE70268536843F4805385
:105250005360E4E70223A7E70123A5E70123A3E7BF
:105260000123A1E700239FE70223A0E707560008D8
:10527000CD55000853550008F954000810B50446F0
:10528000806818B96368B3F5827F10D094F85C0029
:1052900001285AD0012384F85C3094F85D00C0B234
:1052A00098420DD00220002384F85C3010BD1346D4
:1052B0002046042284F85D200A46FFF763FF10BDF4
:1052C00000293CD0002A3CD0042384F85D30002320
:1052D00023662164A4F84420A4F84620A363A3878E
:1052E000E3872365E368B3F5E06F1AD92268536852
:1052F00023F480535360164BE364A368B3F5004F67
:1053000017D02268536843F06003536023681A681B
:1053100012F0400F17D11A6842F040021A600020C4
:10532000C1E72268536843F480535360094BE36438
:10533000E3E72268136823F480431360E1E7012068
:10534000B1E70120AFE70020ADE7022010BD00BFAC
:105350006D540008415400087047704710B582B082
:105360000446FEF7B9F92268536823F0A00353609E
:10537000024664212046FFF739FE18B1236E43F040
:1053800020032366A36833B901932368DA68019286
:105390009B680193019B012384F85D30236E23B940
:1053A0002046FDF7F9FD02B010BD2046FDF7F8FDDF
:1053B000F9E708B50268836B591C81631B78137386
:1053C000C38F9BB2013B9BB2C387C38F9BB203B118
:1053D00008BDFFF7C3FFFBE708B50368826B1288BF
:1053E000DA60836B02338363C38F9BB2013B9BB252
:1053F000C387C38F9BB203B108BDFFF7AFFFFBE7C5
:1054000010B504460268536823F060035360FEF74A
:1054100063F9024664212046FFF71CFE18B1236E93
:1054200043F020032366012384F85D30236E1BB113
:105430002046FDF7B5FD10BD2046FFF78DFF10BDDE
:1054400008B5036C5A1C02640268127B1A70B0F82B
:1054500046309BB2013B9BB2A0F84630B0F84630D4
:105460009BB203B108BDFFF7CBFFFBE708B5036CA8
:105470000268D2681A80036C02330364B0F84630C5
:105480009BB2013B9BB2A0F84630B0F846309BB2CD
:1054900003B108BDFFF7B4FFFBE710B50446FEF704
:1054A0001BF92268536823F02003536002466421ED
:1054B0002046FFF79BFD18B1236E43F020032366BF
:1054C000236E93B994F85D30DBB2042B06D0012330
:1054D00084F85D302046FFF740FF10BD012384F8BB
:1054E0005D302046FFF738FF10BD012384F85D30A2
:1054F0002046FDF755FD10BD08B5C38F9BB2012BAB
:1055000018D90368826B1288DA60836B0233836375
:10551000C38F9BB2023B9BB2C387C38F9BB243B97D
:105520000268536823F080035360B0F846309BB2A2
:1055300063B108BD0268836B591C81631B781373C8
:10554000C38F9BB2013B9BB2C387E6E7FFF7A5FF82
:10555000EFE708B5B0F846309BB2012B25D9036CB4
:105560000268D2681A80036C02330364B0F84630D4
:105570009BB2023B9BB2A0F84630B0F846309BB2DB
:10558000012B0CD0B0F846309BB23BB9026853688F
:1055900023F060035360C38F9BB2A3B108BD0268C0
:1055A000536843F480535360ECE7036C5A1C026465
:1055B0000268127B1A70B0F846309BB2013B9BB276
:1055C000A0F84630DEE7FFF768FFE7E708B50368B5
:1055D000826B1288DA60836B02338363C38F9BB262
:1055E000013B9BB2C387C38F9BB243B90268536828
:1055F00023F080035360B0F846309BB203B108BD7E
:10560000FFF74BFFFBE708B5036C0268D2681A800E
:10561000036C02330364B0F846309BB2013B9BB28B
:10562000A0F84630B0F846309BB23BB902685368E8
:1056300023F040035360C38F9BB203B108BDFFF753
:105640002CFFFBE790F85D0070470268136823F4B5
:10565000907313600268936823F001039360202322
:1056600080F8723000230366704790F87130DBB227
:10567000212B00D07047B0F852309BB26BB102685A
:10568000C36C591CC1641B781385B0F852309BB2AF
:10569000013B9BB2A0F85230ECE70268136823F09C
:1056A000800313600268136843F04003136070477F
:1056B00090F87130DBB2212B00D07047B0F8523037
:1056C0009BB283B1C36C02681B88C3F308031385C4
:1056D000C36C0233C364B0F852309BB2013B9BB23F
:1056E000A0F85230E9E70268136823F080031360E2
:1056F0000268136843F0400313607047D8B138B5AF
:105700000446242380F871300268136823F00103F3
:105710001360036800251D6003685D6003689D6079
:10572000FDF784FD656784F8715084F8725084F841
:105730007050284638BD01207047000090F8713045
:10574000DBB2202B01D00220704741B34AB390F85E
:105750007030012B27D0012380F87030C164A0F88D
:105760005020A0F85220002343664367212380F88D
:1057700071308368B3F5805F0BD00C4B4366002318
:1057800080F8703001680A6842F080020A601846AA
:1057900070470369002BF0D1054B4366EFE701200A
:1057A0007047012070470220704700BF6B56000809
:1057B000B156000890F87230DBB2202B01D00220E5
:1057C0007047002956D0002A56D090F87030012B2F
:1057D00054D0012380F870304165A0F85820A0F81B
:1057E0005A20002303668368B3F5805F06D0A3B90F
:1057F000036973B9FF23A0F85C3011E0036923B992
:1058000040F2FF13A0F85C300AE0FF23A0F85C3000
:1058100006E07F23A0F85C3002E0B3F1805F19D08E
:1058200000234367222380F872300268936843F0B4
:10583000010393608368B3F5805F15D0104B036656
:10584000002380F8703001680A6842F490720A60A0
:105850001846704703691BB97F23A0F85C30DFE767
:105860003F23A0F85C30DBE70369002BE6D1054B52
:105870000366E5E70120704701207047022070476A
:10588000A55800080959000808B501680A6822F0FF
:1058900040020A60202280F8712000224266FDF753
:1058A000E7FC08BDB0F85C2090F87230DBB2222B28
:1058B00006D00268138B9BB243F008031383704732
:1058C00010B50368998C436D5C1C4465D2B20A40E4
:1058D0001A70B0F85A309BB2013B9BB2A0F85A3014
:1058E00003B110BD0268136823F49073136002685B
:1058F000936823F001039360202380F87230002323
:105900000366FDF7F3FC10BD08B5B0F85C2090F815
:105910007230DBB2222B06D00268138B9BB243F0AD
:105920000803138308BD0368998C436D0A401A80ED
:10593000436D02334365B0F85A309BB2013B9BB2D2
:10594000A0F85A30002BEDD10268136823F490734D
:1059500013600268936823F001039360202380F8AA
:10596000723000230366FDF7C1FC08BD38B504465C
:105970000268D3691168906813F00F050CD113F019
:10598000200F09D011F0200F06D0236E002B00F05D
:1059900093802046984738BD002D6FD010F0010548
:1059A00002D111F4907F69D013F0010F07D011F4E8
:1059B000807F04D001201062626F0243626713F09F
:1059C000020F07D035B1226802201062626F42F0E8
:1059D0000402626713F0040F07D035B12268042077
:1059E0001062626F42F00202626713F0080F09D082
:1059F00011F0200F00D12DB1226808201062626FD3
:105A000002436267626F002A56D013F0200F06D05F
:105A100011F0200F03D0236E0BB120469847636F1F
:105A200013F0080F04D123689B6813F0400F1FD0B8
:105A30002046FFF70AFE23689A6812F0400F13D041
:105A40009A6822F040029A60E36E4BB11D4A9A6355
:105A5000E06EFDF7DDFE78B3E06E836B984738BDEE
:105A60002046FDF78DFC38BD2046FDF789FC38BD8A
:105A70002046FDF785FC0023636738BD13F4801FC3
:105A800002D010F4800F0AD113F0800F0ED011F065
:105A9000800F0BD0636E7BB12046984738BD4FF422
:105AA00080131362204600F06CFB38BD13F0400FEA
:105AB00002D011F0400F00D138BD2046FFF7E4FEC0
:105AC000FAE700BFC95A000808B5806A0023A0F8A9
:105AD0005A30A0F85230FDF753FC08BD2DE9784B41
