:020000040800F2
:1000000000000220210400087104000871040008A7
:100010007104000871040008710400080000000069
:100020000000000000000000000000007104000853
:100030007104000800000000710400087104000849
:1000400071040008710400087104000871040008BC
:1000500071040008710400087104000871040008AC
:10006000710400087104000871040008710400089C
:10007000710400087104000871040008710400088C
:10008000710400087104000871040008710400087C
:10009000710400087104000871040008710400086C
:1000A000710400087104000871040008710400085C
:1000B00071040008710400080000000071040008C9
:1000C000710400087104000871040008710400083C
:1000D000710400087104000871040008710400082C
:1000E0007104000871040008000000000000000016
:1000F0000000000000000000000000000000000000
:1001000000000000710400080000000071040008F5
:1001100071040008000000007104000800000000E5
:1001200071040008710400087104000871040008DB
:100130007104000871040008710400080000000048
:1001400071040008710400087104000871040008BB
:1001500071040008710400087104000871040008AB
:100160007104000871040008710400080000000018
:100170000000000071040008000000000000000002
:10018000710400087104000871040008710400087B
:0401900071040008EE
:1001940010B5054C237833B9044B13B10448AFF3BD
:1001A40000800123237010BD040000200000000023
:1001B4001005000808B5034B1BB103490348AFF30E
:1001C400008008BD000000000800002010050008A1
:1001D40008B500F022F900F039F800F0B7F8FCE7B0
:1001E4000023164A1370012B26D830B4144931F871
:1001F40013206FF30D0221F813205A00D018840045
:1002040010482044847A1144487864F386106FF3CC
:10021400C71048700C49D018C5004C190020A081A3
:10022400A060485160602061012262751344DBB212
:10023400012BDBD930BC7047704700BF540000204D
:1002440058000020280500082400002010B5FFF7FE
:10025400C7FF002401E00134E4B2012C08D804EB08
:1002640044029300084AD358002BF4D09847F2E78D
:10027400064C204600F0CAF82368054AA2FB032373
:100284009B0C236010BD00BF28050008200000203F
:1002940083DE1B43F0B4114B1A78411A104B1868D3
:1002A40091FBF0F10F4E53001344DD0074196368A1
:1002B400194461602369B3F1FF3F28BF0133581C1F
:1002C4002061775907FB0313B3FBF0F37351A36861
:1002D400994200D9A160F0BC704700BF54000020CF
:1002E40020000020240000202DE9F041DFF8588090
:1002F40098F80010114C4B005818C20022440027F3
:1003040057600F4EB568012010750B449A000D4BD1
:1003140013445B68984798F8000043001918CA0012
:1003240022441775B1680344DA001444637D0BB9A1
:10033400BDE8F0812846FFF7ADFFF9E7240000206F
:1003440010E000E0280500085400002070B50024E7
:10035400204627E0002A48D1284A32F813106FF3C8
:100364000D0122F813105A00D118C8002449014481
:100374008D89224931F81310C1F30D011A449000FC
:10038400204A02441289881A854205DA5A00134425
:10039400DA001B4B13449881FFF7A6FF012060BBD2
:1003A400022C2AD80134E4B2174A1378013303F03B
:1003B40001031370114A02EB43025278D209C9D1E6
:1003C4000E4901EB4301497811F0400FE7D00B4986
:1003D40031F81350C5F30D05590019448E0009492D
:1003E400314409898D42DADBB4E7044A02EB430263
:1003F40051786FF3C7115170B5E770BD58000020F4
:1004040024000020280500085400002010B50446EC
:1004140000F052F82060002010BD7047DFF834D09F
:10042400002103E00C4B5B58435004310B480C4B48
:1004340042189A42F6D30B4A02E0002342F8043BE6
:10044400094B9A42F9D300F013F800F03BF8FFF798
:10045400BFFEFEE70000022048050008000000205F
:1004640004000020040000205C000020FEE70000DF
:100474000F49D1F8883043F47003C1F888300D4B2C
:100484001A6842F001021A60002098601A6822F08B
:10049400A85222F410221A604FF48052DA601A68CB
:1004A40022F480221A6098614FF000638B607047D9
:1004B40000ED00E000100240014B1868704700BFD7
:1004C4000000002070B50D4E0D4CA41BA410002597
:1004D400A54209D10B4E0C4C00F018F8A41BA41033
:1004E4000025A54205D170BD56F825309847013541
:1004F400EEE756F8253098470135F2E74005000845
:10050400400500084005000844050008F8B500BF90
:10051400F8BC08BC9E467047F8B500BFF8BC08BCE0
:040524009E46704738
:1005280000000000000000000000000000000000C3
:080538000000000000000000BB
:04054000B9010008F5
:040544009501000815
:0405480000093D0069
:0400000508000421CA
:00000001FF
